S00B00006578702E73726563CC
S11300000C942A000C9401040C9447000C944700AF
S11300100C9447000C9447000C9447000C94470040
S11300200C9447000C9447000C9447000C94470030
S11300300C9447000C9447000C9447000C94470020
S11300400C9447000C9447000C9447000C94470010
S11300500C94470011241FBECFE5D8E0DEBFCDBF0E
S113006011E0A0E6B0E0E8E5F8E002C005900D92EA
S1130070A437B107D9F721E0A4E7B1E001C01D928C
S1130080AA37B207E1F70E9457000C942A040C9493
S1130090000080917701811109C08091760181115E
S11300A005C083E0809374011092750108950E9445
S11300B0BE020E94130241E061E083E00E94C40298
S11300C00E94EF03789489E490E00E94F70364E7C8
S11300D071E080E00E943D012FEF82E597E021501E
S11300E080409040E1F700C0000080E690E00E946C
S11300F0700260E081E00E948F0281E790E00E943C
S113010070022FEF87EA91E6215080409040E1F79A
S113011000C000000E94B102809174018F3F09F079
S113012060C02FEF82E597E0215080409040E1F7D6
S113013000C0000088E790E00E94700260E081E067
S11301400E948F0287E890E00E9470022FEF87EAF6
S113015091E6215080409040E1F700C000000E94E9
S1130160B1028BE890E00E94700260E081E00E949E
S11301708F028AE990E00E9470022FEF87EA91E6ED
S1130180215080409040E1F700C0000060E080E032
S113019090E00E9448012FEF82E597E021508040D3
S11301A09040E1F700C000000E94B10284EA90E0B0
S11301B00E94700260E081E00E948F028AEA90E06F
S11301C00E9470022FEF83ED90E321508040904015
S11301D0E1F700C000000E94B10287E0809374013F
S11301E02BC0811129C00E94B10287EB90E00E94CC
S11301F0700260E081E00E948F028AEA90E00E942F
S113020070022FEF83ED90E3215080409040E1F79E
S113021000C0000087E0809374010EC00E94B10208
S11302208FE491E00E94700260E081E00E948F02FE
S11302308BE591E00E947002809174018730C1F4D3
S1130240EDCF0E94B10283E691E00E94700260E06B
S113025081E00E948F028EE691E00E9470022FEFEF
S11302608DE399E4215080409040E1F700C0000004
S113027080917401833029F3DFCFE199FECF9FBBD6
S11302808EBB8CB381608CBB8DB3FB0180830895DE
S1130290E199FECF9FBB8EBB8CB381608CBB8DB3C9
S11302A0861739F06DBB8CB384608CBB8CB38260D1
S11302B08CBB08951F93CF93DF931F92CDB7DEB706
S11302C0182F40E063E081E00E94360340E062E0E2
S11302D081E00E9436031832E1F5AE014F5F5F4FB3
S11302E061E081E00E94A8038981811132C0412F1D
S11302F0441F4427441F67E00E94360316FB44272B
S113030040F966E080E00E94360315FB442740F97B
S113031065E080E00E94360314FB442740F964E062
S113032080E00E94360341E063E081E00E943603EE
S113033081EE94E00197F1F700C0000040E063E033
S113034081E00E94360383ED90E30197F1F700C04A
S11303500000412F441F4427441F67E080E00E94AF
S1130360360316FB442740F966E080E00E9436031A
S113037015FB442740F965E080E00E94360314FB36
S1130380442740F964E080E00E94360341E063E0E2
S113039081E00E94360381EE94E00197F1F700C0FA
S11303A0000040E063E081E00E94360383ED90E3C7
S11303B00197F1F700C0000013FB442740F967E000
S11303C080E00E94360312FB442740F966E080E097
S11303D00E94360311FB442740F965E080E00E9447
S11303E03603412F417064E080E00E94360341E00F
S11303F063E081E00E94360381EE94E00197F1F717
S113040000C0000040E063E081E00E94360383ED19
S113041090E30197F1F700C0000080E00F90DF91B6
S1130420CF911F91089541E061E081E00E94C402F0
S113043041E062E081E00E94C40241E063E081E0C7
S11304400E94C40241E067E080E00E94C40241E0EF
S113045066E080E00E94C40241E065E080E00E9422
S1130460C40241E064E080E00E94C4028DE292E2B2
S11304700197F1F700C0000040E061E081E00E94D4
S1130480360388E20E945A0189EF90E00197F1F760
S113049000C0000040E061E081E00E9436038FE08C
S11304A00E945A0189EF90E00197F1F700C0000023
S11304B040E061E081E00E94360381E00E945A013D
S11304C083EF91E00197F1F700C0000040E061E0A4
S11304D081E00E94360386E00E945A0180E008957C
S11304E00F931F93CF93DF93EC01892B79F482E070
S11304F011C041E061E081E00E9436038E010F5F8C
S11305001F4F88810E945A01E80101C080E0988150
S11305109111EFCFDF91CF911F910F9108951F9308
S1130520CF93DF938230A8F46031A8F4162FC82F3C
S113053040E061E081E00E943603D82F8C2F90E0E8
S1130540029620E4829F100D1124812F0E945A01EB
S113055003C0D0E001C0D0E08D2FDF91CF911F9177
S11305600895CF9340E061E081E00E943603C82FF4
S113057081E00E945A018C2FCF91089581EB8ABBB0
S113058086E18BBB80E00895843008F067C0683052
S113059008F066C0423008F065C08130E9F030F000
S11305A0823081F1833009F443C05EC081E090E081
S11305B0062E02C0880F991F0A94E2F780952AB389
S11305C02823842F90E002C0880F991F6A95E2F7D0
S11305D0822B8ABB81E0089521E030E0062E02C020
S11305E0220F331F0A94E2F7209587B32823842F20
S11305F090E002C0880F991F6A95E2F7822B87BBAF
S113060081E0089521E030E0062E02C0220F331F5E
S11306100A94E2F7209584B32823842F90E002C043
S1130620880F991F6A95E2F7822B84BB81E00895B5
S113063021E030E0062E02C0220F331F0A94E2F7B5
S1130640209581B32823842F90E002C0880F991F3E
S11306506A95E2F7822B81BB81E0089583E00895D7
S113066083E0089583E0089581E00895843008F0DC
S113067067C0683008F066C0423008F065C0813059
S1130680E9F030F0823081F1833009F443C05EC078
S113069081E090E0062E02C0880F991F0A94E2F7C9
S11306A080952BB32823842F90E002C0880F991FD4
S11306B06A95E2F7822B8BBB81E0089521E030E05C
S11306C0062E02C0220F331F0A94E2F7209588B346
S11306D02823842F90E002C0880F991F6A95E2F7BF
S11306E0822B88BB81E0089521E030E0062E02C011
S11306F0220F331F0A94E2F7209585B32823842F11
S113070090E002C0880F991F6A95E2F7822B85BB9F
S113071081E0089521E030E0062E02C0220F331F4D
S11307200A94E2F7209582B32823842F90E002C034
S1130730880F991F6A95E2F7822B82BB81E00895A6
S113074083E0089583E0089583E0089581E00895A7
S113075041155105E1F18430E0F56830E0F5813070
S113076091F028F08230D9F0833029F136C089B372
S113077090E002C0959587956A95E2F78170FA0139
S1130780808381E0089586B390E002C095958795B3
S11307906A95E2F78170FA01808381E0089583B35A
S11307A090E002C0959587956A95E2F78170FA0109
S11307B0808381E0089580B390E002C09595879589
S11307C06A95E2F78170FA01808381E0089582E0FE
S11307D0089583E0089583E0089581E008958BB738
S11307E080648BBF85B7836085BF80E008950097E0
S11307F031F0909379018093780181E0089582E04B
S113080008951F920F920FB60F9211242F933F93C6
S11308104F935F936F937F938F939F93AF93BF9304
S1130820EF93FF93E0917801F0917901309709F00B
S11308300995FF91EF91BF91AF919F918F917F9116
S11308406F915F914F913F912F910F900FBE0F9039
S10B08501F901895F894FFCFE6
S113085857656C636F6D6520546F20536D617274B6
S113086800486F6D65202100466F722046697273D7
S1130878742054696D650055736500526567697322
S11308887465722041646D696E006F6E204B6579E2
S113089870616400536176656400537563636573BE
S11308A87366756C6C79004C4F4144494E4700524D
S11308B86F6F6D203120636F6E74726F6C6C65643A
S11308C800526F6F6D203220636F6E74726F6C6CA0
S11308D8656400526F6F6D203320636F6E74726F9E
S11308E86C6C656400526F6F6D203420636F6E7496
S11308F8726F6C6C656400526F6F6D203520636F86
S11309086E74726F6C6C65640041697220436F6E1B
S11309186420636F6E74726F6C6C656400446F6FEF
S11309287220636F6E74726F6C6C65640044696DD9
S11309386D657220636F6E74726F6C6C65640041D0
S11309486C6C204465766963657300417265204F59
S113095866660055736572204C6F67696E00506156
S107096867650000BB
S9030000FC
