:100000000C942A000C9447000C9447000C94470071
:100010000C9447000C9447000C9447000C94470044
:100020000C9447000C9447000C9447000C94470034
:100030000C94A3090C9447000C9447000C944700BF
:100040000C9447000C9447000C9447000C94470014
:100050000C94470011241FBECFE5D8E0DEBFCDBF12
:1000600011E0A8E6B1E001C01D92AA36B107E1F7A0
:1000700011E0A0E6B0E0E8EDF4E102C005900D92D9
:10008000A836B107D9F70E94B2090C946A0A0C94F9
:100090000000EF92FF920F931F937B018C0120E0F1
:1000A00030E040E05FE40E94F50388238CF0C80153
:1000B000B70120E030E040E05FE40E94C1010E940F
:1000C00055049B01AC01205030404040504806C0D0
:1000D000C801B7010E9455049B01AC01B901CA01D6
:1000E0001F910F91FF90EF900895A0E0B0E0EBE733
:1000F000F0E00C94330ADC012B01FA019C91923060
:1001000008F439C1EB018881823008F433C194309E
:1001100069F4843009F02FC111969C91119789815F
:10012000981709F428C1A0E6B0E025C1843009F48D
:1001300021C18230A9F4923009F01DC19A01AD01AC
:1001400088E0EA010990AE01E90109929E0181501F
:10015000C1F7E201898111969C918923818308C1AD
:10016000923009F407C112962D903C901397EB0141
:100170008A819B811496AD90BD90CD90DC901797AD
:10018000EC80FD800E811F819101281B390BB90184
:1001900037FF04C066277727621B730B6032710537
:1001A0000CF061C0121613066CF537014801062EDB
:1001B00004C096948794779467940A94D2F721E0C8
:1001C00030E040E050E004C0220F331F441F551FB1
:1001D0006A95D2F721503040404050402E213F21B7
:1001E00040235123211531054105510521F021E01E
:1001F00030E040E050E079018A01E628F72808293C
:1002000019293CC0232BD1F1260E371E350146019A
:10021000062E04C096948794779467940A94D2F734
:1002200021E030E040E050E004C0220F331F441FC3
:10023000551F6A95D2F721503040404050402A2146
:100240003B214C215D21211531054105510521F04E
:1002500021E030E040E050E059016A01A628B728CB
:10026000C828D9280BC0821593052CF01C01AA249C
:10027000BB24650103C0EE24FF24870111969C91E5
:10028000D20111968C91981709F445C0992339F041
:10029000A80197012A193B094C095D0906C0A6016E
:1002A00095012E193F09400B510B57FD08C01182D3
:1002B0003382228224833583468357831DC081E0A5
:1002C00081833382228288279927DC01821B930B4A
:1002D000A40BB50B84839583A683B7830DC0220F2F
:1002E000331F441F551F24833583468357838281E0
:1002F000938101979383828324813581468157813D
:10030000DA01C9010197A109B1098F5F9F4FAF4F72
:10031000BF4328F30BC0918333822282EA0CFB1C7B
:100320000C1D1D1DE482F5820683178383E0808304
:10033000248135814681578157FF1AC0C901AA27F8
:1003400097FDA095BA2F81709070A070B0705695EF
:10035000479537952795822B932BA42BB52B848318
:100360009583A683B7838281938101969383828349
:10037000DF0101C0D201CD01CDB7DEB7E2E10C94BF
:100380004F0AA0E2B0E0E7ECF1E00C943F0A698389
:100390007A838B839C832D833E834F835887E9E048
:1003A000EE2EF12CEC0EFD1ECE010196B7010E943F
:1003B00046068E010F5E1F4FCE010596B8010E94C2
:1003C00046068A8991E089278A8BC701B801AE0168
:1003D000475E5F4F0E9475000E947105A096E6E09F
:1003E0000C945B0AA0E2B0E0E8EFF1E00C943F0A65
:1003F00069837A838B839C832D833E834F835887C5
:10040000F9E0EF2EF12CEC0EFD1ECE010196B701A6
:100410000E9446068E010F5E1F4FCE010596B80161
:100420000E944606C701B801AE01475E5F4F0E94B9
:1004300075000E947105A096E6E00C945B0AA0E2AC
:10044000B0E0E5E2F2E00C94330A69837A838B83AF
:100450009C832D833E834F835887CE010196BE0136
:10046000675F7F4F0E944606CE010596BE016F5E14
:100470007F4F0E9446069985923088F089898230A4
:10048000C8F0943019F4823051F404C0843029F457
:10049000923081F480E690E0C6C0923049F420E0CA
:1004A0009A858A89981321E02A87CE010996BBC0D4
:1004B000823049F420E09A858A89981321E02A8BBA
:1004C000CE014196B0C02D843E844F8458886D88FB
:1004D0007E888F88988CEE24FF248701AA24BB2471
:1004E000650140E050E060E070E0E0E0F0E0C10174
:1004F00081709070892BE9F0E60CF71C081D191D1E
:100500009A01AB012A0D3B1D4C1D5D1D80E090E062
:10051000A0E0B0E0E614F7040805190520F481E036
:1005200090E0A0E0B0E0BA01A901480F591F6A1F8E
:100530007B1FAA0CBB1CCC1CDD1C97FE08C081E0F5
:1005400090E0A0E0B0E0A82AB92ACA2ADB2A3196B6
:10055000E032F10549F0660C771C881C991C569412
:10056000479437942794C3CFFA85EA892B893C892D
:100570008B859C85280F391F2E5F3F4F17C0CA01FE
:1005800081709070892B61F016950795F794E79428
:1005900080E090E0A0E0B0E8E82AF92A0A2B1B2BC3
:1005A00076956795579547952F5F3F4F77FDE7CF36
:1005B0000CC0440F551F661F771F17FD4160EE0CDE
:1005C000FF1C001F111F21503040403090E05907A0
:1005D00090E0690790E4790760F32B8F3C8FDB0193
:1005E000CA018F779070A070B07080349105A1051A
:1005F000B10561F447FD0AC0E114F10401051105DC
:1006000029F0405C5F4F6F4F7F4F40781A8EFE1786
:1006100011F081E08A8F4D8F5E8F6F8F78A383E01A
:10062000898FCE0149960E947105A096E2E10C9453
:100630004F0AA8E1B0E0EFE1F3E00C943B0A6983D4
:100640007A838B839C832D833E834F835887B9E0C5
:10065000EB2EF12CEC0EFD1ECE010196B7010E948F
:1006600046068E010F5E1F4FCE010596B8010E940F
:1006700046062985223008F47EC03989323010F4CC
:10068000B8017CC08A859A8989278A87243011F02D
:10069000223031F4231709F06EC060E670E06EC0BE
:1006A000343039F41D861E861F86188A1C861B86E8
:1006B00004C0323021F484E08987B7015FC02B8504
:1006C0003C858B899C89281B390B3C872B87ED84C3
:1006D000FE840F851889AD88BE88CF88D88CEA142F
:1006E000FB040C051D0540F4EE0CFF1C001F111F40
:1006F000215030403C872B8720E030E040E050E044
:1007000080E090E0A0E0B0E460E070E0EA14FB0478
:100710000C051D0540F0282B392B4A2B5B2BEA18C2
:10072000FB080C091D09B695A79597958795EE0CC2
:10073000FF1C001F111F6F5F7F4F6F31710531F775
:10074000DA01C9018F779070A070B0708034910584
:10075000A105B10561F427FD0AC0E114F10401050A
:10076000110529F0205C3F4F4F4F5F4F20782D87B8
:100770003E874F87588BBE01675F7F4FCB010E943A
:1007800071056896EAE00C94570AA8E1B0E0EBEC3A
:10079000F3E00C943F0A69837A838B839C832D83D7
:1007A0003E834F83588789E0E82EF12CEC0EFD1E26
:1007B000CE010196B7010E9446068E010F5E1F4FC3
:1007C000CE010596B8010E9446068985823040F028
:1007D0008989823028F0C701B8010E94BE0601C095
:1007E0008FEF6896E6E00C945B0AA8E1B0E0EBEFCF
:1007F000F3E00C943F0A69837A838B839C832D8377
:100800003E834F83588789E0E82EF12CEC0EFD1EC5
:10081000CE010196B7010E9446068E010F5E1F4F62
:10082000CE010596B8010E9446068985823040F0C7
:100830008989823028F0C701B8010E94BE0601C034
:100840008FEF6896E6E00C945B0AA8E1B0E0EBE27B
:10085000F4E00C943F0A69837A838B839C832D8315
:100860003E834F83588789E0E82EF12CEC0EFD1E65
:10087000CE010196B7010E9446068E010F5E1F4F02
:10088000CE010596B8010E9446068985823040F067
:100890008989823028F0C701B8010E94BE0601C0D4
:1008A00081E06896E6E00C945B0AACE0B0E0EBE532
:1008B000F4E00C94430A69837A838B839C83CE0192
:1008C0000196BE016B5F7F4F0E9446068D8182308C
:1008D00061F1823050F1843021F48E81882351F10E
:1008E0002EC02F81388537FD20C06E812F31310514
:1008F0001CF06623F9F023C08EE190E0821B930B7D
:1009000029853A854B855C8504C056954795379572
:1009100027958A95D2F76623B1F05095409530958A
:1009200021953F4F4F4F5F4F0EC020E030E040E039
:1009300050E009C02FEF3FEF4FEF5FE704C020E02A
:1009400030E040E050E8B901CA012C96E2E00C9496
:100950005F0AA8E0B0E0EFEAF4E00C943B0A7B0108
:100960008C01611571058105910519F482E0898377
:1009700060C083E089838EE1C82ED12CDC82CB82DB
:10098000ED82FE820F831887C801B7010E942205FD
:10099000FC013197F7FF3BC0222733272E1B3F0B6B
:1009A00057016801022E04C0D694C794B794A79447
:1009B0000A94D2F740E050E060E070E081E090E01F
:1009C000A0E0B0E004C0880F991FAA1FBB1F2A95A2
:1009D000D2F70197A109B1098E219F21A023B1234C
:1009E0000097A105B10521F041E050E060E070E022
:1009F0004A295B296C297D294D835E836F83788723
:100A00008EE190E08E1B9F0B9C838B8312C03097EE
:100A100081F00E2E04C0EE0CFF1C001F111F0A9463
:100A2000D2F7ED82FE820F831887CE1ADF0ADC82AE
:100A3000CB821A82CE0101960E9471052896EAE0C7
:100A40000C94570AEF92FF920F931F937B018C0136
:100A500080E0E81680E0F80681E0080780E01807EB
:100A600088F48FEFE816F1040105110531F028F044
:100A700088E090E0A0E0B0E017C080E090E0A0E067
:100A8000B0E012C080E0E81680E0F80680E00807D9
:100A900081E0180728F088E190E0A0E0B0E004C011
:100AA00080E190E0A0E0B0E020E230E040E050E003
:100AB000281B390B4A0B5B0B04C016950795F7945E
:100AC000E7948A95D2F7F701E859FF4F8081281BF8
:100AD000310941095109C9011F910F91FF90EF9010
:100AE0000895DF92EF92FF920F931F93FC01E48031
:100AF000F58006811781D1808081823048F480E0C2
:100B000090E0A0E1B0E0E82AF92A0A2B1B2BA5C04F
:100B1000843009F49FC0823021F4EE24FF24870141
:100B200005C0E114F1040105110519F4E0E0F0E05D
:100B300096C0628173819FEF623879070CF05BC0C9
:100B400022E83FEF261B370B2A3131052CF020E03D
:100B500030E040E050E02AC0B801A701022E04C0F6
:100B600076956795579547950A94D2F781E090E07E
:100B7000A0E0B0E004C0880F991FAA1FBB1F2A95F0
:100B8000D2F70197A109B1098E219F21A023B1239A
:100B90000097A105B10521F081E090E0A0E0B0E070
:100BA0009A01AB01282B392B4A2B5B2BDA01C901A7
:100BB0008F779070A070B07080349105A105B10559
:100BC00039F427FF09C0205C3F4F4F4F5F4F04C0EF
:100BD000215C3F4F4F4F5F4FE0E0F0E02030A0E05E
:100BE0003A07A0E04A07A0E45A0710F0E1E0F0E07D
:100BF00079018A0127C06038710564F5FB01E1586D
:100C0000FF4FD801C7018F779070A070B07080340B
:100C10009105A105B10539F4E7FE0DC080E490E02F
:100C2000A0E0B0E004C08FE390E0A0E0B0E0E80E08
:100C3000F91E0A1F1B1F17FF05C016950795F7948D
:100C4000E794319687E016950795F794E7948A958F
:100C5000D1F705C0EE24FF248701EFEFF0E06E2FFF
:100C6000679566276795902F9F77D794DD24D79453
:100C70008E2F8695492F462B582F5D29B701CA0123
:100C80001F910F91FF90EF90DF900895FC01DB0121
:100C9000408151812281622F6F7770E0221F2227CD
:100CA000221F9381892F880F822B282F30E0991FD4
:100CB0009927991F11969C93119721153105A9F534
:100CC000411551056105710511F482E037C082E8D4
:100CD0009FEF13969C938E9312979A01AB0167E056
:100CE000220F331F441F551F6A95D1F783E08C9361
:100CF0000DC0220F331F441F551F12968D919C91DA
:100D00001397019713969C938E931297203080E04F
:100D1000380780E0480780E4580758F314962D936D
:100D20003D934D935C93179708952F3F310579F4C8
:100D3000411551056105710519F484E08C930895FE
:100D400064FF03C081E08C9312C01C9210C02F5727
:100D5000304013963C932E93129783E08C9387E058
:100D6000440F551F661F771F8A95D1F7706414963C
:100D70004D935D936D937C93179708951F93DC01BA
:100D8000FB019C91923008F447C08081823008F4C6
:100D900043C0943051F411961C91843099F58181AF
:100DA000682F70E0611B71093FC0843021F09230E0
:100DB00031F48230B9F18181882389F12DC01196F7
:100DC0001C9111978230F1F081811817D9F4129695
:100DD0002D913C911397828193818217930794F010
:100DE00028173907BCF014968D919D910D90BC91F8
:100DF000A02D2481358146815781281739074A075C
:100E00005B0718F4112341F00AC082179307A40767
:100E1000B50740F4112319F061E070E005C06FEFF1
:100E20007FEF02C060E070E0CB011F9108958FB5A5
:100E30008E7F8FBD8FB582608FBD8EB588608EBD71
:100E40008EB580618EBD8FB58F7E8FBD8FB5806270
:100E50008FBD8FB580688FBD8EB581608EBD8EB51C
:100E600082608EBD8EB58B7F8EBD81E00895AF927E
:100E7000BF92CF92DF92EF92FF920F931F93DF9377
:100E8000CF9300D000D0CDB7DEB75B016C01790104
:100E90008A01CA01B90120E030E048EC52E40E9426
:100EA000250488230CF053C0C801B70120E030E0CE
:100EB00040E050E00E94C50318160CF048C0C6017F
:100EC000B50120E030E040E852E40E941F029B019F
:100ED000AC0160E074E284E79BE40E94190320E027
:100EE00030E040E85FE30E94C1010E94490077BD05
:100EF00066BD66B577B580E090E00E94A9049B01CD
:100F0000AC01C801B7010E941F0220E030E048ECAC
:100F100052E40E9419030E94490080E090E00E9480
:100F2000A90469837A838B839C8369817A818B810D
:100F30009C810E9449007BBD6ABD69817A818B8159
:100F40009C810E94490079BD68BD81E001C080E0BC
:100F50000F900F900F900F90CF91DF911F910F91F5
:100F6000FF90EF90DF90CF90BF90AF9008956C9876
:100F700017BABE9A699A68986E9A08958FB9779B46
:100F8000FECF8FB108956F9A08956F98089581EB01
:100F90008ABB86E18BBB80E00895843008F065C091
:100FA000683008F062C0423008F05FC08130E9F07C
:100FB000813030F0823071F1833009F054C03FC08D
:100FC0008AB321E030E0062E02C0220F331F0A94BC
:100FD000E2F720952823842F90E002C0880F991F04
:100FE0006A95E2F7282B2ABB3EC087B321E030E0A8
:100FF000062E02C0220F331F0A94E2F72095282301
:10100000842F90E002C0880F991F6A95E2F7282B81
:1010100027BB29C084B321E030E0062E02C0220F96
:10102000331F0A94E2F720952823842F90E002C012
:10103000880F991F6A95E2F7282B24BB14C081B34F
:1010400021E030E0062E02C0220F331F0A94E2F79F
:1010500020952823842F90E002C0880F991F6A955D
:10106000E2F7282B21BB81E0089583E008958430C6
:1010700008F065C0683008F062C0423008F05FC018
:101080008130E9F0813030F0823071F1833009F045
:1010900054C03FC08BB321E030E0062E02C0220FC7
:1010A000331F0A94E2F720952823842F90E002C092
:1010B000880F991F6A95E2F7282B2BBB3EC088B397
:1010C00021E030E0062E02C0220F331F0A94E2F71F
:1010D00020952823842F90E002C0880F991F6A95DD
:1010E000E2F7282B28BB29C085B321E030E0062E8B
:1010F00002C0220F331F0A94E2F720952823842F81
:1011000090E002C0880F991F6A95E2F7282B25BB53
:1011100014C082B321E030E0062E02C0220F331F3C
:101120000A94E2F720952823842F90E002C0880FCC
:10113000991F6A95E2F7282B22BB81E0089583E08E
:1011400008958430C0F56830B0F5813091F0813079
:1011500028F08230C9F0833061F521C02BB381E0E3
:1011600090E002C0880F991F6A95E2F728272BBBF1
:1011700020C028B381E090E002C0880F991F6A95D3
:10118000E2F7282728BB15C025B381E090E002C014
:10119000880F991F6A95E2F7282725BB0AC022B35A
:1011A00081E090E002C0880F991F6A95E2F7282736
:1011B00022BB81E0089583E00895FA0141155105AD
:1011C00011F482E008958430E0F46830D0F4813086
:1011D00049F0813028F0823039F0833081F406C044
:1011E00089B305C086B303C083B301C080B390E068
:1011F00002C0959587956A95E2F78170808381E0BA
:10120000089583E00895D09A87E886B980E487B985
:10121000089597B18F70892B87B9369A349BFECF8A
:1012200085E38A95F1F784B135B120E0280F311DAF
:10123000C9010895FF920F931F93F82E062F80E0A7
:101240000E940909A0E0B0E0BC01CD010E94A90400
:1012500020E030E040E05FE30E941F020E9449006E
:1012600010E00617170720F483E066E041E008C0AD
:101270008F2D90E06817790728F483E066E040E05E
:101280000E9437081F910F91FF900895AF92BF926F
:10129000CF92DF92EF92FF920F931F937C01A62EC5
:1012A00083E067E040E00E94370800E010E0C801FA
:1012B000B7010E94A9047B018C01BB24CC24DD244E
:1012C000C601B5010E94A9049B01AC01C801B70188
:1012D0000E9437071F910F91FF90EF90DF90CF9002
:1012E000BF90AF900895EF92FF920F931F93E82E57
:1012F00083E067E041E00E943708FF2400E010E04F
:10130000C801B7010E94A90420E030E044E353E49F
:101310000E94190320E030E040EA50E40E941F02DE
:1013200020E030E040EA50E40E94F2019B01AC0171
:1013300060E070E088E492E40E9437071F910F910B
:10134000FF90EF9008951F920F920FB60F92112405
:101350008F938FB1809369018F910F900FBE0F9083
:101360001F9018951F930E94B7070E9417070E94AD
:1013700003098FEF81BB80E061E041E00E94CD076F
:1013800080E062E041E00E94CD0780E063E041E060
:101390000E94CD0780E064E041E00E94CD0780E03C
:1013A00065E041E00E94CD0778940E94C30710E0F9
:1013B000112321F485E16CE10E941A0980916901F1
:1013C000853041F1863060F48230D9F0833018F4F2
:1013D000813071F713C08330B9F0843049F717C0FA
:1013E0008E3071F18F3028F48C30C9F08D3001F7D8
:1013F00025C0803159F18131D9F62CC080E061E0FF
:101400000BC080E062E008C080E063E005C080E0DF
:1014100064E002C080E065E00E94A10814C00E9460
:10142000C5078FEF0E94BE07682F82E390E00E94FD
:101430004609109269010E94C307BACF8AE501C02C
:1014400080E00E94730910926901B2CF83E066E0E8
:1014500041E003C083E066E040E00E94370810925C
:10146000690111E0ABCF2F923F924F925F926F9242
:101470007F928F929F92AF92BF92CF92DF92EF9224
:10148000FF920F931F93CF93DF93CDB7DEB7CA1BA5
:10149000DB0B0FB6F894DEBF0FBECDBF09942A88D0
:1014A000398848885F846E847D848C849B84AA8478
:1014B000B984C884DF80EE80FD800C811B81AA8105
:1014C000B981CE0FD11D0FB6F894DEBF0FBECDBFD0
:0814D000ED010895F894FFCF2F
:1014D80000000000000000000001020203030303F3
:1014E80004040404040404040505050505050505AC
:1014F800050505050505050506060606060606068C
:101508000606060606060606060606060606060673
:10151800060606060606060607070707070707075B
:101528000707070707070707070707070707070743
:101538000707070707070707070707070707070733
:101548000707070707070707070707070707070723
:10155800070707070707070708080808080808080B
:1015680008080808080808080808080808080808F3
:1015780008080808080808080808080808080808E3
:1015880008080808080808080808080808080808D3
:1015980008080808080808080808080808080808C3
:1015A80008080808080808080808080808080808B3
:1015B80008080808080808080808080808080808A3
:1015C8000808080808080808080808080808080893
:0815D8000808080808080808CB
:00000001FF
