:100000000C9433000C94D80D0C9450000C945000B8
:100010000C9450000C9450000C9450000C94500020
:100020000C9450000C9450000C9450000C94500010
:100030000C9450000C9450000C9450000C94500000
:100040000C9450000C9450000C9450000C945000F0
:100050000C9450006A056F057B05800585058B05AE
:100060008E059105BF0511241FBECFE5D8E0DEBF88
:10007000CDBF15E0A0E6B0E0E8E5FDE102C00590E7
:100080000D92A636B107D9F725E0A6E6B5E001C086
:100090001D92AD36B207E1F70E9443020C94AA0EFE
:1000A0000C940000CF92DF92EF92FF920F931F9378
:1000B000CF93DF93CDB7DEB72B970FB6F894DEBFA3
:1000C0000FBECDBFE982FA820B831C832D833E8352
:1000D0004F83588769877A878B87F6018081F9E09B
:1000E0008F9FC001112444E050E0BE016F5F7F4F3D
:1000F00042960E94AC0D2FEF80E792E021508040A5
:100100009040E1F700C00000F6018081F9E08F9F88
:10011000C001112444E050E0BE016A5F7F4F469663
:100120000E94AC0D2FEF80E792E02150804090407C
:10013000E1F700C00000F6018081F9E08F9FC00167
:1001400011246B854A960E94A00D2FEF80E792E064
:10015000215080409040E1F700C00000F60160812E
:100160006F5F608381E190E00E94A00D2B960FB637
:10017000F894DEBF0FBECDBFDF91CF911F910F91DD
:10018000FF90EF90DF90CF900895AF92BF92CF9203
:10019000DF92EF92FF920F931F93CF93DF931F9203
:1001A000CDB7DEB77C018B010E94A20C80E890E005
:1001B0000E94670C60E081E00E94840C6701570197
:1001C00084E0A80EB11CCE0101960E94F809898135
:1001D0000E94ED0B8981F60181936F01AE16BF0677
:1001E00091F7F70114820E94A20C8AE890E00E9425
:1001F000670C60E081E00E94840C78016801F4E003
:10020000CF0ED11CCE0101960E94F8098AE20E940D
:10021000ED0B8981F70181937F01EC15FD0591F7C5
:10022000F801148281E00F90DF91CF911F910F911F
:10023000FF90EF90DF90CF90BF90AF9008950F9315
:100240001F93CF93DF938C01EB0184E990E00E9430
:10025000270EC8010E94360EF801148283EA90E04E
:100260000E94270ECE010E94360E1C8281E0DF9193
:10027000CF911F910F910895DC0140E0242F30E0D1
:10028000FD01E20FF31F9081FB01E20FF31F2081BC
:10029000921304C0992341F04F5FF0CF911106C033
:1002A00081E0222321F002C081E0089580E00895DA
:1002B0007F928F929F92AF92BF92CF92DF92EF92F6
:1002C000FF920F931F93CF93DF9300D000D01F9224
:1002D000CDB7DEB78C015B018EEA90E00E94270E5D
:1002E000CE0101960E94360E1D82F50190807801A4
:1002F000D12CD91409F47EC07E2C8F2CBE016F5FE7
:100300007F4FC7010E943C01C82EFBE0EF0EF11C9D
:10031000882309F46DC0F8012BE0929EE00DF11DD9
:1003200011243B978BE0A72DB82D01900D928A9553
:10033000E1F7F5018081F9E0DF9E70011124B80139
:100340002BE0829F600D711D11246B50710944E0F8
:1003500050E0C70142960E94AC0D8FEF90E7E2E0BB
:1003600081509040E040E1F700C00000F50180813D
:10037000B801FBE08F9F600D711D1124665071095B
:1003800044E050E0C70146960E94AC0D2FEF80E795
:1003900092E0215080409040E1F700C00000F5015C
:1003A0008081FBE08F9F000D111D1124F8013B9708
:1003B0006285C7014A960E94A00D2FEF80E792E068
:1003C000215080409040E1F700C00000F5016081BD
:1003D0006150608381E190E00E94A00DFFEF20E773
:1003E00082E0F15020408040E1F700C0000003C0EF
:1003F000D3947FCFC12C8C2D0F900F900F900F9026
:100400000F90DF91CF911F910F91FF90EF90DF90B0
:10041000CF90BF90AF909F908F907F90089521E0F4
:1004200030E001C0220F6A95EAF7FC013081232BEE
:100430002083089521E030E001C0220F6A95EAF799
:100440002095FC01308123232083089521E030E0B2
:1004500001C0220F6A95EAF7FC013081232720832F
:10046000089580916A0581110DC0809169058111FF
:1004700009C080916605811105C083E080936705FE
:10048000109268050895CF93DF93CDB7DEB7C754B8
:10049000D1090FB6F894DEBF0FBECDBF0E94AF0CDE
:1004A0000E94010E0E94110E0E94900B0E94A6094C
:1004B0000E94C60D81E392E00E94CE0D41E061E012
:1004C00083E00E94B50C41E060E082E00E94B50C40
:1004D000789428961FAE289726961FAE269788ED0B
:1004E00090E00E94670C60E081E00E94840C89EE3D
:1004F00090E00E94670C67E675E080E00E94830D43
:100500002FEF3DE282E2215030408040E1F700C011
:1005100000000E94A20C809167058F3F09F091C0F6
:1005200028966FAD289781E190E00E94A00D9FEF83
:10053000E0E7F2E09150E040F040E1F700C0000059
:1005400080EF90E00E94670C60E081E00E94840CE4
:100550008FEF90E00E94670C2FEF3DE282E2215086
:1005600030408040E1F700C000000E94A20C83E010
:1005700091E00E94670C60E081E00E94840C82E1BF
:1005800091E00E94670C9FEFEDE2F2E29150E040B3
:10059000F040E1F700C00000BE016E5C7F4FCE016D
:1005A0008D960E94C50081E08FAB44E050E0BE0113
:1005B000635D7F4F81E090E00E94AC0D2FEF30E74C
:1005C00082E0215030408040E1F700C0000044E06C
:1005D00050E0BE016E5C7F4F85E090E00E94AC0D64
:1005E0009FEFE0E7F2E09150E040F040E1F700C01B
:1005F000000060E080E090E00E94A00D2FEF30E767
:1006000082E0215030408040E1F700C000000E94AD
:10061000A20C8CE191E00E94670C60E081E00E94F6
:10062000840C80E891E00E94670C9FEFEDE2F2E21B
:100630009150E040F040E1F700C000000E94A20CA1
:100640009FC08111A0C0BE01695B7F4F81E10E9404
:10065000830D2FEF30E782E0215030408040E1F7FA
:1006600000C0000044E050E0BE01635D7F4F81E0C8
:1006700090E00E948C0D19AA9FEFE0E7F2E0915004
:10068000E040F040E1F700C0000044E050E0BE016F
:100690006E5C7F4F85E090E00E948C0D1EAA2FEFCC
:1006A00030E782E0215030408040E1F700C0000098
:1006B00081E08FAB9FEFE0E7F2E09150E040F04047
:1006C000E1F700C00000612C3BE0532E28968FAD6F
:1006D0002897681608F054C029E0629E4001112452
:1006E000640132E1C30ED11C569C80011124EE241A
:1006F000E394F12CEC0EFD1EE00EF11E44E050E000
:10070000B701C6010E948C0D8FEF90E7E2E08150A7
:100710009040E040E1F700C00000B8016B5F7F4F00
:1007200021E030E02C0F3D1F620F731F44E050E0CA
:10073000C40146960E948C0D3FEF80E792E0315055
:1007400080409040E1F700C00000B801665F7F4F35
:10075000E1E0F0E0EC0FFD1F6E0F7F1F88E08C0DD5
:100760000E94830DFFEF20E732E0F150204030403F
:10077000E1F700C00000F701148211866394A6CF50
:1007800087E08093670593E0992E80916705873015
:1007900019F08BE0E82EE4C082E291E00E94270E7F
:1007A0000E94A20C26968FAD269781110DC00E9443
:1007B000A20C8BE491E00E94670C60E081E00E9453
:1007C000840C87E591E04DC001E010E08CE40E94CC
:1007D000ED0B80E3800F0E94ED0B8AE30E94ED0B8E
:1007E00026968FAD269790E0002E02C095958795AE
:1007F0000A94E2F78170809F802D1124823041F0AD
:1008000018F4813029F006C0833011F0843011F4DF
:100810008BE201C08DE20E94ED0B0F5F1F4F053090
:100820001105A1F660E081E00E94840C8FE591E063
:100830000E94670C8B2D90E00E94FA0B84E691E0F9
:100840000E94670C26968FAD269786FD08C085FD11
:1008500003C08CE691E005C081E791E002C08BE522
:1008600091E00E94670C12E080916705873009F0E3
:1008700090CF0E944C0E8823B9F310936705F4CFF4
:10088000BE01685C7F4FCE01CD960E941F01BE0164
:10089000635D7F4FCE01CD960E943C01811166C001
:1008A000F12C28968FAD2897F81608F048C50F2D23
:1008B00010E0E09E6001E19ED00C1124BE01635C5B
:1008C0007F4F81E090E08C0F9D1F8C0D9D1D0E943D
:1008D0003C01882309F478C0C6010596BE01685C16
:1008E0007F4F21E030E02C0F3D1F820F931F0E94AD
:1008F0003C0191E0811101C090E0A92E31E0A312EA
:100900007DC0E09EC001E19E900D112401E010E049
:100910000C0F1D1F080F191FF801828582508230AD
:1009200008F454C01FEF190D8AEB91E00E94270EC6
:10093000FFEF25EA3EE0F15020403040E1F700C0F3
:10094000000087ED91E00E94270E8FE2890D0E9442
:100950001B0E111103C086E080936705A12C912E18
:1009600080916705823009F48BCF4AC0BE016E5C6E
:100970007F4FCE01C8960E943C0111E0811101C059
:1009800010E0113009F08CCF84E791E00E94270E2F
:10099000FFEF29E638E1F15020403040E1F700C098
:1009A00000008DE891E00E94270E8FEF99E6E8E1C4
:1009B00081509040E040E1F700C0000010936A05CC
:1009C00084E080936705C0C4A12C98CF8FE991E0A3
:1009D0000E94270EFFEF29E638E1F1502040304019
:1009E000E1F700C0000084E080936705F80182858C
:1009F000833009F0A9C4A0926905A6C4F39451CF2D
:100A0000ABE06A2EBBE08B2E1FE0412E0BE0502E98
:100A100074E6F72EEAE0EE2EF9E0DF2E809167050E
:100A2000843009F020C208E0109168051111D3C08C
:100A300080916705843091F78CEE91E00E94270E3B
:100A400086EF91E00E94270E80E092E00E94270E40
:100A50008AE092E00E94270E84E192E00E94270E35
:100A60008FE192E00E94270E80916A05813091F417
:100A700083E392E00E94270E8CE392E00E94270E0F
:100A800089E492E00E94270ECE018C5B9F4F0E946A
:100A9000200E11C089E693E00E94270ECE018C5BE8
:100AA0009F4F0E94200E25968FAD2597873318F013
:100AB0002596FFAE25972596EFAD25978E2F90E0D2
:100AC000FC01F197E930F10508F075C0E65DFF4FD4
:100AD0000C948A0E81E00E940A0E61E004C082E05C
:100AE0000E940A0E62E0CE018B5B9F4F0E9426029D
:100AF0005092680599CF83E00E940A0E63E0F3CF1D
:100B000084E00E940A0E64E0EECF8CE00E940A0EA0
:100B10000093680589CFD092680586CFE09268057A
:100B200083CF28968FAD2897843098F4689EC001B3
:100B30001124BC016B5F7F4FE1E0F0E0EC0FFD1F83
:100B40006E0F7F1F8E0F9F1F0E941F01409268052E
:100B50006BCF8BE592E00E94270E84E892E00E9422
:100B6000270E8EEC92E00E94270E10926805FFEF90
:100B70002DE232E2F15020403040E1F719C0BE01D1
:100B8000695B7F4FCE0101960E945801813019F4B4
:100B900080EA92E002C089EB92E00E94270E109258
:100BA00068058FEF9DE2E2E281509040E040E1F77E
:100BB00000C0000039CF89EE92E00E94270EFFEFBF
:100BC00023ED30E3F15020403040E1F700C0000059
:100BD0001092680529CF1A3009F4B8C038F41830DB
:100BE00009F483C0193009F4CDC018CF1B3009F4C3
:100BF00008C11F3009F012CF8CEF92E00E94270E3F
:100C000088E093E00E94270E85E193E00E94270E82
:100C100084E293E00E94270ECE018C5B9F4F0E94DE
:100C2000200E25968FAD2597813369F428968FADD8
:100C30002897E1E0F0E0EC0FFD1F689EE00DF11D4C
:100C4000112482E00EC0823321F528968FAD2897BB
:100C5000E1E0F0E0EC0FFD1F689EE00DF11D1124B6
:100C600083E082879E01295B3F4F6901E080F1802C
:100C70000281138124813581468157816085718588
:100C80000E945200809268058CE693E00E94270E35
:100C9000BFCE8333E1F428968FAD2897E1E0F0E0F2
:100CA000EC0FFD1F689EE00DF11D11241286CE0190
:100CB000895B9F4F6C01E080F18002811381248168
:100CC0003581468157816085718580E0D9CF89EE75
:100CD00092E00E94270E9FEFE3EDF0E39150E04099
:100CE000F040E1F700C0000093CE88E893E00E9456
:100CF000270ECE018D5B9F4F0E94200E24968FAD54
:100D000024970E941B0E24968FAD2497805324961F
:100D10008FAF2497CE018E5B9F4F0E94200E2396AB
:100D20008FAD23970E941B0E23968FAD239790EDD6
:100D3000980F23969FAF239724968FAD2497B92EB3
:100D40002AE0829FB00C11248B2D0FC08FEA93E014
:100D50000E94270ECE018C5B9F4F0E94200E25968D
:100D60008FAD2597813331F48DE00E940A0E809279
:100D700068054ECE823311F48EE0F7CF803309F050
:100D80006BC067C08BE094E00E94270ECE018C5BA5
:100D90009F4F0E94200E25968FAD2597813359F4E1
:100DA00080E10E940A0E66E070E0CE018B5B9F4FEF
:100DB0000E941A020BC0823381F481E10E940A0E64
:100DC00066E0CE018B5B9F4F0E940F0265E0CE0173
:100DD0008B5B9F4F0E940F02CACF833341F682E1A3
:100DE0000E940A0E66E070E0CE018B5B9F4F0E946E
:100DF0001A0265E070E0CE018B5B9F4F0E941A02E1
:100E0000B6CF82E394E00E94270ECE018C5B9F4F09
:100E10000E94200E25968FAD25978133C1F487E07F
:100E2000809367051092680589E594E00E94270E7B
:100E300080916A05813019F410926A05E9CD80919C
:100E40006905813009F0E4CD10926905E1CD823366
:100E500019F410926805DCCD87EF93E00E94270E0D
:100E600010936805D5CD4BE0E42E56E0852E65E065
:100E7000662E80916705833009F0C7C00E94A20CDE
:100E800088E694E00E94670C60E081E00E94840C98
:100E900083E794E00E94670C3FEF8DE292E23150CD
:100EA00080409040E1F700C00000BE01685C7F4FC9
:100EB000CE01CD960E94C500F12C28968FAD2897C3
:100EC000F81608F09AC00F2D10E0E09E6001E19E38
:100ED000D00C1124BE01635C7F4F81E090E08C0F49
:100EE0009D1F8C0D9D1D0E943C01882399F0C60119
:100EF0000596BE01685C7F4FE1E0F0E0EC0FFD1F5E
:100F00008E0F9F1F0E943C0191E0811101C090E073
:100F1000792E01C0712CF1E07F126DC0E09EF001CE
:100F2000E19EF00D112421E030E02C0F3D1FE20F77
:100F3000F31F82858823A1F19A940E94A20C84E871
:100F400094E00E94670C60E081E00E94840C8BECCE
:100F500091E00E94670C3FEF8DE292E231508040B9
:100F60009040E1F700C000000E94A20C89ED91E0E2
:100F70000E94670C60E081E00E94840C892D90E063
:100F80000E94FA0BEFEFFDE222E2E150F040204038
:100F9000E1F700C00000911036C08092670533C0B1
:100FA0000E94A20C83E994E00E94670C60E081E05B
:100FB0000E94840C80E891E00E94670C3FEF8DE274
:100FC00092E2315080409040E1F700C000000E9462
:100FD000A20C8DE994E00E94670CEFEFFDE222E2A3
:100FE000E150F0402040E1F700C00000609267054A
:100FF00033E0932E3ECFF39460CF772009F49CCF5B
:101000007724739436CF712C34CF8BE0F82E98E090
:10101000E92E1BE020E1D22E80916705853009F092
:101020006AC180916805811168C00E94A20C8AEA99
:1010300094E00E94670C60E081E00E94840C8AEBDF
:1010400094E00E94670CCE018A5B9F4F0E94F809D2
:1010500027968FAD2797823379F038F48133E9F4FE
:1010600081E00E940A0E61E010C0833351F08433A6
:10107000A1F4D0926805D5CF82E00E940A0E62E00A
:1010800004C083E00E940A0E63E0CE018B5B9F4F99
:101090000E94260210936805C4CF0E94A20C89EC1E
:1010A00094E00E94670C3FEF8DE292E23150804065
:1010B0009040E1F700C00000B4CF0E94A20C88ED80
:1010C00094E00E94670C60E081E00E94840C89EE4D
:1010D00094E00E94670CCE018A5B9F4F0E94F80942
:1010E00027968FAD27978133B1F060F0823381F47A
:1010F0008CE00E940A0EE0926805009168050031BC
:10110000E1F26FC0803309F05CC010926805F5CF42
:10111000833359F056C084E00E940A0E64E0CE0189
:101120008B5B9F4F0E94260249C00E94A20C89EF50
:1011300094E00E94670C60E081E00E94840C88E0EB
:1011400095E00E94670CCE018A5B9F4F0E94F809D0
:1011500027968FAD2797813361F480E10E940A0EB4
:1011600066E070E0CE018B5B9F4F0E941A0265E043
:101170000CC0823381F481E10E940A0E65E0CE0149
:101180008B5B9F4F0E940F0266E0CE018B5B9F4FEF
:101190000E940F0213C0833389F482E10E940A0E79
:1011A00066E070E0CE018B5B9F4F0E941A0265E003
:1011B00070E0CE018B5B9F4F0E941A02109368056E
:1011C0009CCF0E94A20C89EC94E00E94670CEFEF88
:1011D000FDE222E2E150F0402040E1F700C00000D3
:1011E0008CCF083021F00B3009F449C015CF0E9494
:1011F000A20C84E195E00E94670C60E081E00E940F
:10120000840C8FE195E00E94670CCE018D5B9F4FAF
:101210000E94F80924968FAD24970E94ED0B249626
:101220008FAD2497805324968FAF2497CE018E5B89
:101230009F4F0E94F80923968FAD23970E94ED0BD4
:1012400023968FAD239790ED980F23969FAF23970A
:1012500024968FAD2497B92E3AE0839FB00C1124C9
:101260008B2D0E940A0E8FEF9DE2E2E281509040AA
:10127000E040E1F700C00000F0926805CDCE0E948A
:10128000A20C8BE295E00E94670CCE018A5B9F4F17
:101290000E94F80927968FAD27978133A9F487E03C
:1012A00080936705109268050E94A20C8BE395E07D
:1012B0000E94670CFFEF2DE232E2F15020403040F7
:1012C000E1F700C00000A8CE823319F4109268053F
:1012D000A3CE0E94A20C89EC94E00E94670C8FEFD1
:1012E0009DE2E2E281509040E040E1F700C0000062
:1012F0000093680591CE863009F047CA66E080E029
:1013000090E00E94A00D81E0809366050E94A20CEF
:1013100086E495E00E94670C60E081E00E94840C06
:1013200086E595E00E94670C41E060E082E00E9463
:101330000B0D80916705863009F027CAFFCFAA20E0
:1013400009F4F0CA192D0BCB13E009CB41E063E09F
:1013500083E00E94B50C41E064E083E00E94B50C9C
:1013600041E065E083E00E94B50C41E066E083E087
:101370000E94B50C40E062E082E00E94B50C40E0C3
:1013800063E082E00E94B50C40E064E082E00E94ED
:10139000B50C40E065E082E00E94B50C41E063E0FE
:1013A00083E00E940B0D41E064E083E00E940B0D9E
:1013B00041E065E083E00E940B0D41E066E083E0E0
:1013C0000E940B0D41E062E082E00E940B0D41E0C3
:1013D00063E082E00E940B0D41E064E082E00E9445
:1013E0000B0D41E065E082E00E940B0D80E0089566
:1013F0002F923F924F925F926F927F928F929F9225
:10140000AF92BF92CF92DF92EF92FF920F931F9312
:10141000CF93DF93CDB7DEB7A3970FB6F894DEBFB7
:101420000FBECDBF6C018091600090916100A091D2
:101430006200B09163008D8F9E8FAF8FB8A38091B3
:10144000640090916500A0916600B0916700898F5B
:101450009A8FAB8FBC8F8091680090916900A091AA
:101460006A00B0916B008D8B9E8BAF8BB88F809193
:101470006C0090916D00A0916E00B0916F00898B0F
:101480009A8BAB8BBC8B8FEFF6018083F60180814A
:101490008F3F09F07BC03E01F9E16F0E711CCE0158
:1014A0004D969BA38AA3E12CF12CF30121903F01DF
:1014B000EAA1FBA13190FBA3EAA340E0622D832DBA
:1014C0000E940B0D4E01F1E18F0E911C5E0185E132
:1014D000A80EB11C00E010E0F40151904F01F5019D
:1014E00041905F01AE014F5D5F4F652D842D0E94DD
:1014F000610D89A1811136C083EC99E00197F1F764
:1015000000C00000AE014F5D5F4F652D842D0E942D
:10151000610D89A1811126C089A1811108C0AE0188
:101520004F5D5F4F652D842D0E94610DF5CF80E1E9
:10153000E0E7F0E0DE01119601900D928A95E1F767
:10154000000F111F000F111FE1E0F0E0EC0FFD1F75
:101550000E0F1F1FF801EE0DFF1D8081F601808325
:1015600081E015C00F5F1F4F0430110509F0B4CFA3
:1015700041E0622D832D0E940B0DFFEFEF1AFF0A51
:1015800084E0E816F10409F090CF80CF80E0A396C4
:101590000FB6F894DEBF0FBECDBFDF91CF911F9184
:1015A0000F91FF90EF90DF90CF90BF90AF909F9002
:1015B0008F907F906F905F904F903F902F90089505
:1015C0001F93CF93DF931F92CDB7DEB7182F40E064
:1015D00063E081E00E940B0D40E062E081E00E9448
:1015E0000B0D183299F5AE014F5F5F4F61E081E05E
:1015F0000E94610D8981811129C040E067E00E944D
:101600000B0D40E066E080E00E940B0D41E065E0DC
:1016100080E00E940B0D40E064E080E00E940B0D32
:1016200041E063E081E00E940B0D81EE94E00197C0
:10163000F1F700C0000040E063E081E00E940B0D84
:1016400083ED90E30197F1F700C00000412F441FA4
:101650004427441F67E080E00E940B0D16FB4427DF
:1016600040F966E080E00E940B0D15FB442740F92D
:1016700065E080E00E940B0D14FB442740F964E014
:1016800080E00E940B0D41E063E081E00E940B0DC1
:1016900081EE94E00197F1F700C0000040E063E0C4
:1016A00081E00E940B0D83ED90E30197F1F700C0FC
:1016B000000013FB442740F967E080E00E940B0D17
:1016C00012FB442740F966E080E00E940B0D11FBFD
:1016D000442740F965E080E00E940B0D412F4170E6
:1016E00064E080E00E940B0D41E063E081E00E9435
:1016F0000B0D81EE94E00197F1F700C0000040E08F
:1017000063E081E00E940B0D83ED90E30197F1F718
:1017100000C0000080E00F90DF91CF911F910895ED
:1017200041E061E081E00E94B50C41E062E081E0CF
:101730000E94B50C41E063E081E00E94B50C41E0FD
:1017400067E080E00E94B50C41E066E080E00E9426
:10175000B50C41E065E080E00E94B50C41E064E03A
:1017600080E00E94B50C8DE292E20197F1F700C093
:10177000000040E061E081E00E940B0D88E20E94E1
:10178000E00A89EF90E00197F1F700C0000040E027
:1017900061E081E00E940B0D8FE00E94E00A89EF7A
:1017A00090E00197F1F700C0000040E061E081E0C7
:1017B0000E940B0D81E00E94E00A83EF91E0019707
:1017C000F1F700C0000040E061E081E00E940B0DF5
:1017D00086E00E94E00A80E00895CF93C82F41E0A0
:1017E00061E081E00E940B0D8C2F0E94E00A80E0F6
:1017F000CF9108956F927F928F929F92AF92BF92F6
:10180000CF92DF92EF92FF920F931F93CF93DF93CC
:10181000FC01892B51F441E061E081E00E940B0D55
:1018200080E30E94E00AD0E042C0C0E0C12CD12C8D
:1018300076010AE010E0AAE0B0E0A70196010E945C
:10184000900E6B017C01CF01B8010E94540EC80EAE
:10185000D91EE11CF11CCF5FFB01309761F7D0E08E
:101860008AE0882E912CA12CB12CC114D104E10462
:10187000F104B1F041E061E081E00E940B0DC7018D
:10188000B601A50194010E94680E39018A0180E326
:10189000860F0E94E00AD82F63017801C150E5CF7E
:1018A000CC2329F080E30E94E00AC150F9CF8D2FAC
:1018B000DF91CF911F910F91FF90EF90DF90CF902C
:1018C000BF90AF909F908F907F906F9008950F93EF
:1018D0001F93CF93DF93009789F0EC0180E08E0196
:1018E0009881992361F041E061E081E00E940B0D55
:1018F0002196F80180810E94E00AF1CF82E0DF9119
:10190000CF911F910F9108951F93CF93DF93823052
:1019100098F4603188F4C62FD82F40E061E081E070
:101920000E940B0D182F8C2F90E4D99F800D11244D
:1019300080580E94E00A01C010E0812FDF91CF9112
:101940001F910895CF9340E061E081E00E940B0D6C
:10195000C82F81E00E94E00A8C2FCF91089581EB7F
:101960008ABB86E18BBB80E00895843008F051C0CB
:10197000683008F04EC0423008F04BC0823039F178
:101980008330B1F1813089F081E090E0062E01C012
:10199000880F0A94EAF780959AB3892301C0440F0F
:1019A0006A95EAF7482B4ABB10C081E090E0062E0A
:1019B00001C0880F0A94EAF7809597B3892301C084
:1019C000440F6A95EAF7482B47BB81E0089581E010
:1019D00090E0062E01C0880F0A94EAF7809594B330
:1019E000892301C0440F6A95EAF7482B44BBEDCF29
:1019F00081E090E0062E01C0880F0A94EAF78095F6
:101A000091B3892301C0440F6A95EAF7482B41BB83
:101A1000DCCF83E00895843008F051C0683008F0CE
:101A20004EC0423008F04BC0823039F18330B1F102
:101A3000813089F081E090E0062E01C0880F0A9481
:101A4000EAF780959BB3892301C0440F6A95EAF7B2
:101A5000482B4BBB10C081E090E0062E01C0880FE0
:101A60000A94EAF7809598B3892301C0440F6A95D8
:101A7000EAF7482B48BB81E0089581E090E0062E0C
:101A800001C0880F0A94EAF7809595B3892301C0B5
:101A9000440F6A95EAF7482B45BBEDCF81E090E013
:101AA000062E01C0880F0A94EAF7809592B3892325
:101AB00001C0440F6A95EAF7482B42BBDCCF83E0B4
:101AC0000895FA013097D9F08430D8F46830C8F41A
:101AD000823041F0833089F0813011F089B303C046
:101AE00086B301C083B390E002C0959587956A954F
:101AF000E2F78170808381E0089580B3F4CF82E0C3
:101B0000089583E00895E199FECF9FBB8EBBE09AD4
:101B10008DB3FB0180830895E199FECF460F571FD7
:101B2000FB01861B970BE417F50749F09C012E0F6C
:101B30003F1F3FBB2EBBE09A2DB32193F4CF0895F6
:101B4000E199FECF9FBB8EBBE09A8DB3861719F04B
:101B50006DBBE29AE19A0895460F571FFB019C0165
:101B6000261B370BE417F50781F0E199FECFC90179
:101B70008E0F9F1F9FBB8EBBE09A8DB391918917EB
:101B800089F39DBBE29AE19AEDCF08958BB780640B
:101B90008BBF85B7836085BF80E00895009731F0E3
:101BA00090936C0580936B0581E0089582E0089521
:101BB0001F920F920FB60F9211242F933F934F93C2
:101BC0005F936F937F938F939F93AF93BF93EF93A5
:101BD000FF93E0916B05F0916C05309709F0099542
:101BE000FF91EF91BF91AF919F918F917F916F91F5
:101BF0005F914F913F912F910F900FBE0F901F90CB
:101C000018956C9ABC9ABD9ABE98BF9A699A6898C2
:101C10006E9A0895C4988FB9779BFECFC49A8FB1FE
:101C200008951BB888E18AB986E880BD87E689B93E
:101C300010BC80E008955D9BFECF8CB980E00895D4
:101C40005F9BFECF2CB1FC01208380E00895AC01A6
:101C500090E0FA01E90FF11D2081222329F05D9B1C
:101C6000FECF2CB99F5FF5CF80E00895AC0190E0E6
:101C70005F9BFECFFA01E90FF11D2CB120835D9B24
:101C8000FECF2CB920812D3021F02A3011F09F5F3A
:101C9000EFCF108280E008958BB1881F8827881FBE
:101CA00011F08CB181E00895AA1BBB1B51E107C064
:101CB000AA1FBB1FA617B70710F0A61BB70B881FDC
:101CC000991F5A95A9F780959095BC01CD0108956B
:101CD000A1E21A2EAA1BBB1BFD010DC0AA1FBB1F30
:101CE000EE1FFF1FA217B307E407F50720F0A21BA2
:101CF000B30BE40BF50B661F771F881F991F1A940F
:101D000069F760957095809590959B01AC01BD0138
:101D1000CF010895EE0FFF1F0590F491E02D099477
:101D20000E949B0EA59F900DB49F900DA49F800DC7
:101D3000911D11240895A29FB001B39FC001A39FDC
:101D4000700D811D1124911DB29F700D811D1124F4
:081D5000911D0895F894FFCFE6
:101D58000303030303040506020202020203040547
:101D68003738392B3435362D3132337863303D2FBF
:101D7800557365726E616D653A0050617373776F64
:101D880072643A000D0A0D0A557365726E616D65CD
:101D98003A200050617373776F72643A20000D0A1D
:101DA800456E74657220557365726E616D6520525B
:101DB8006571756972656420746F2062652052656B
:101DC8006D6F7665643A200057656C636F6D6520AA
:101DD800546F20536D61727400486F6D6520210047
:101DE800466F722046697273742054696D65005598
:101DF80073650052656769737465722041646D6923
:101E08006E006F6E204B6579706164005361766572
:101E18006400507265737320416E79204B65792098
:101E2800546F2053746172742041204C6F67696E3F
:101E380020417474656D70740D0A00416C6C204407
:101E480065766963657300417265204F6666004474
:101E5800696D3A0020412E436F6E3A004175746FE8
:101E6800004F6E000D0A4C6F6767656420696E202D
:101E78005375636365737366756C6C79000D0A57E7
:101E8800656C636F6D652041646D696E0D0A000DA8
:101E98000A4C6F6767656420696E205375636365D4
:101EA800737366756C6C790D0A000D0A57726F6E44
:101EB8006720557365726E616D65206F7220506181
:101EC8007373776F7264000D0A52656D61696E698C
:101ED8006E6720547269616C733A20000D0A312DC7
:101EE800526F6F6D31000D0A322D526F6F6D3200D7
:101EF8000D0A332D526F6F6D33000D0A342D526F5A
:101F08006F6D34000D0A352D44696D6D6572000DD5
:101F18000A362D41697220436F6E646974696F6E69
:101F28006572000D0A372D446F6F72000D0A382D47
:101F38004164642055736572000D0A392D52656D30
:101F48006F766520557365720D0A000D0A5265613A
:101F58006368656420546865204D6178204E756D0E
:101F6800626572206F662053746F726564205573C2
:101F7800657273000D0A436F756C646E2774205385
:101F8800746F72652041204E657720557365720025
:101F98000D0A52656D6F76656420537563636573CA
:101FA8007366756C6C790D0A000D0A557365726E4F
:101FB800616D65206E6F7420466F756E64200D0A22
:101FC80052657475726E696E6720746F204D616911
:101FD8006E204D656E750D0A000D0A496E76616CAE
:101FE80069642043686F6963650D0A000D0A312D25
:101FF80052656D6F746564000D0A322D50726F6DF5
:102008006F746564000D0A332D4E6F6E72656D6FC7
:10201800746564000D0A0D0A5072696F72697479EB
:1020280020417272616E676D656E743A2050726FEE
:102038006D6F746564203E204E6F6E72656D6F74AF
:10204800656420284C43442B4B65797061642920D2
:102058003E2052656D6F7465640D0A000D0A526565
:102068006769737465726564205375636365737318
:1020780066756C6C790D0A000D0A456E74657220E0
:102088005468652050657263656E74616765206F7A
:1020980066204272696768746E6573733A20000D32
:1020A8000A446F6F72204F7074696F6E73200D0A47
:1020B80020312D4F70656E20446F6F720D0A2032EB
:1020C8002D436C6F736520446F6F720D0A20302D9D
:1020D80052657475726E20746F206D61696E206D23
:1020E800656E750D0A20000D0A496E76616C69648B
:1020F8002043686F6963650D0A20000D0A312D4F72
:1021080070656E0D0A322D436C6F73650D0A332DA1
:102118004175746F6D6174696320436F6E74726F7B
:102128006C000D0A0D0A312D4C6F67204F75740D28
:102138000A322D52657475726E20746F206D616954
:102148006E206D656E750D0A000D0A4C6F67676528
:1021580064204F75740D0A0055736572204C6F67C3
:10216800696E00417474656D7074204465746563AC
:102178007465640057726F6E6720557365726E617F
:102188006D65004C6F6767656420696E0057656C04
:10219800636F6D65205573657200313A526F6F6DCC
:1021A8003120323A526F6F6D3200333A526F6F6D91
:1021B8003320343A4D6F726500496E76616C6964FC
:1021C8002043686F69636500313A526F6F6D342040
:1021D800323A44696D6D657200333A416972436FF2
:1021E8006E6420303A52657400312D4F70656E2050
:1021F800322D436C6F736500332D4175746F6D61BB
:10220800746963004272696768746E65737300501D
:10221800657263656E746167653A00313A4C6F6741
:10222800204F757420323A526574004C6F676765A9
:1022380064204F757400596F752061726520426C77
:102248006F636B65640046726F6D20546865205338
:06225800797374656D004E
:00000001FF
