S01100004156524D61737465722E73726563BE
S11300000C9433000C9450000C9450000C94500049
S11300100C9450000C9450000C9450000C9450001C
S11300200C9450000C9450000C9450000C9450000C
S11300300C9450000C9450000C9450000C945000FC
S11300400C9450000C9450000C9450000C945000EC
S11300500C945000DC040C05DE04E304E804ED0415
S1130060F204F704FC0411241FBECFE5D8E0DEBF80
S1130070CDBF14E0A0E6B0E0E4EAF8E102C00590E8
S11300800D92A835B107D9F724E0A8E5B4E001C082
S11300901D92A935B207E1F70E942F020C94500C6F
S11300A00C940000CF92DF92EF92FF920F931F9374
S11300B0CF93DF93CDB7DEB72B970FB6F894DEBF9F
S11300C00FBECDBFE982FA820B831C832D833E834E
S11300D04F83588769877A878B87F601808190E000
S11300E09C01220F331F220F331F220F331F820F55
S11300F0931F44E050E0BE016F5F7F4F42960E9421
S11301008207FFEF20E782E0F15020408040E1F7D2
S113011000C00000F601808190E09C01220F331F93
S1130120220F331F220F331F820F931F44E050E02E
S1130130BE016A5F7F4F46960E948207FFEF20E769
S113014082E0F15020408040E1F700C00000F60159
S1130150808190E09C01220F331F220F331F220F56
S1130160331F820F931F6B854A960E947007FFEF1F
S113017020E782E0F15020408040E1F700C0000019
S1130180F60160816F5F608381E190E00E947007F7
S11301902B960FB6F894DEBF0FBECDBFDF91CF9183
S11301A01F910F91FF90EF90DF90CF900895CF9221
S11301B0DF92EF92FF921F93CF93DF931F92CDB7FD
S11301C0DEB76C017B010E94990A80E790E00E94EF
S11301D0580A60E081E00E94770A10E00DC0CE0169
S11301E001960E94FB0789810E94D209F601E10F62
S11301F0F11D898180831F5F143088F3F601148216
S11302000E94990A8AE790E00E94580A60E081E01F
S11302100E94770A10E01DC0CE0101960E94FB07E0
S113022089810E94D209FFEF29E688E1F15020403C
S11302308040E1F700C00000612F81E00E94770A4E
S11302408AE20E94D209F701E10FF11D89818083BE
S11302501F5F143008F3F701148281E00F90DF91DF
S1130260CF911F91FF90EF90DF90CF9008950F935F
S11302701F93CF93DF938C01EB0184E890E00E94FD
S1130280F90BC8010E940D0CF801148283E990E077
S11302900E94F90BCE010E940D0C1C8281E0DF91BB
S11302A0CF911F910F910895DC0140E005C099237F
S11302B079F0222369F04F5F242F30E0FD01E20F33
S11302C0F31F9081FB01E20FF31F2081921779F352
S11302D0911104C0222321F080E0089580E0089564
S11302E081E008958F929F92AF92BF92CF92DF9256
S11302F0EF92FF920F931F93CF93DF9300D000D020
S11303001F92CDB7DEB76C017B018EE990E00E94AD
S1130310F90BCE0101960E940D0C1D8200E087C0EE
S113032046012BE0029F800C911C1124BE016F5FDB
S11303307F4FC4010E945401B82E882309F476C06B
S11303400F2EFBE0AF2EF02DA19EF00111243B9760
S1130350EC0DFD1D8BE0D40101900D928A95E1F71F
S1130360F7016081A69EB00111246B5071096C0DD8
S11303707D1D802F90E08C01000F111F000F111FB5
S1130380000F111F080F191F44E050E0C8014296E6
S11303900E948207FFEF20E782E0F1502040804076
S11303A0E1F700C00000F7016081A69EB0011124AE
S11303B06B5071096C0D7D1D6B5F7F4F44E050E005
S11303C0C80146960E948207FFEF20E782E0F150C1
S11303D020408040E1F700C00000F7018081A89E22
S11303E0C00111240B97F601E80FF91F6285C801BB
S11303F04A960E947007FFEF20E782E0F150204008
S11304008040E1F700C00000F70160816150608323
S113041081E190E00E947007FFEF20E782E0F15055
S113042020408040E1F700C0000006C00F5FF701E4
S11304301081011708F474CF8B2D0F900F900F903B
S11304400F900F90DF91CF911F910F91FF90EF903C
S1130450DF90CF90BF90AF909F908F900895CF93EF
S1130460DF93CDB7DEB7C754D1090FB6F894DEBF1A
S11304700FBECDBF0E94A60A0E94D70B0E94E30BB9
S11304800E9475090E94A90741E061E083E00E948F
S1130490AC0A789419AEBE016F5F7F4F80E00E9472
S11304A04C072FEF32E587E0215030408040E1F7E0
S11304B000C0000088EC90E00E94580A60E081E0EF
S11304C00E94770A89ED90E00E94580A9FEF27EA7C
S11304D031E6915020403040E1F700C000000E9416
S11304E0990A89818F3F09F091C069AD81E190E05B
S11304F00E9470078FEF92E527E0815090402040E2
S1130500E1F700C0000080EE90E00E94580A60E02D
S113051081E00E94770A8FEE90E00E94580A3FEF34
S113052087EA91E6315080409040E1F700C0000036
S11305300E94990A83EF90E00E94580A60E081E0EB
S11305400E94770A82E091E00E94580A2FEF37EA6E
S113055081E6215030408040E1F700C00000BE0138
S1130560695F7F4FCE0102960E94D70081E08C879D
S113057044E050E0BE016E5F7F4F81E090E00E9456
S113058082079FEF23EC39E0915020403040E1F79F
S113059000C0000044E050E0BE01695F7F4F85E089
S11305A090E00E9482078FEF93EC29E08150904005
S11305B02040E1F700C0000060E080E090E00E948D
S11305C070073FEF82E597E0315080409040E1F7BB
S11305D000C000000E94990A8CE091E00E94580A31
S11305E060E081E00E94770A89E491E00E94580A61
S11305F02FEF33ED80E3215030408040E1F700C01D
S113060000000E94990A87E08983AAC08111A8C0CA
S1130610BE01675C7F4F81E10E944C079FEF23EC92
S113062039E0915020403040E1F700C0000044E040
S113063050E0BE016E5F7F4F81E090E00E9457075B
S11306401E828FEF92E527E0815090402040E1F731
S113065000C0000044E050E0BE01695F7F4F85E0C8
S113066090E00E9457071B863FEF82E597E03150E8
S113067080409040E1F700C0000081E08C872FEFBC
S113068032E587E0215030408040E1F700C00000AF
S1130690F12C60C08F2D90E06C01CC0CDD1CCC0CD7
S11306A0DD1CCC0CDD1CC80ED91E460122E1820ED5
S11306B0911C2BE0289F8001299F100D11246DE0CF
S11306C070E06C0F7D1F600F711F44E050E0C401A7
S11306D00E9457073FEF82E597E0315080409040F9
S11306E0E1F700C00000B8016B5F7F4F2DE030E000
S11306F02C0F3D1F620F731F44E050E0C601469665
S11307000E9457073FEF82E597E0315080409040C8
S1130710E1F700C00000B801665F7F4F2DE030E0D4
S11307202C0F3D1F620F731F88E0880D0E944C0739
S11307303FEF82E597E0315080409040E1F700C000
S11307400000E1E0F0E0EC0FFD1FE00FF11F108A64
S1130750158AF39489ADF81608F49CCF87E0898351
S11307600F2EF3E09F2EF02D10E082E191E00E9425
S1130770F90B18C00E94990A89E291E00E94580A74
S113078060E081E00E94770A85E391E00E94580AC4
S113079080E090E00E94F20B0E94230C882311F069
S11307A082E089838981873029F3CAC0BE01615CF4
S11307B07F4FCE01CA960E943701BE016E5F7F4F04
S11307C0CE01CA960E945401882359F0BE01695F84
S11307D07F4FCE01CF960E945401882321F081E0FF
S11307E003C080E001C080E0D82E21E0821378C0ED
S11307F08DE391E00E94F90B3FEF89E698E13150D7
S113080080409040E1F700C0000086E591E00E943E
S1130810F90B2FEF39E688E1215030408040E1F7B1
S113082000C0000084E089830F2EF3E09F2EF02D9A
S11308305CC0E02EF12C2BE02E9DC0012F9D900D6D
S11308401124BE01665C7F4F2DE030E02C0F3D1F6C
S1130850820F931F0E9454018823B1F02BE02E9D38
S1130860C0012F9D900D11240596BE01615C7F4F40
S11308702DE030E02C0F3D1F820F931F0E94540186
S1130880882321F081E003C080E001C080E0B82E1D
S113089031E0831323C08BE08E9DF0018F9DF00D1A
S11308A0112481E090E08C0F9D1FE80FF91F8689C9
S11308B08230A1F488E691E00E94F90B9FEF29E6CB
S11308C038E1915020403040E1F700C0000088E05A
S11308D089830F2EF3E09F2EF02D07C00F5F01C018
S11308E000E089AD081708F4A4CFD11029C0B110D5
S11308F027C00FEF090D83E891E00E94F90B8FEFF9
S113090095EA2EE0815090402040E1F700C00000BD
S113091080EA91E00E94F90B8FE2890D0E94ED0BB1
S11309203FEF83ED90E3315080409040E1F700C009
S11309300000011104C086E08983902E01C0902E2E
S11309408981823009F432CFADC185EB91E00E94F8
S1130950F90B82EC91E00E94F90B82ED91E00E9488
S1130960F90B8CED91E00E94F90B86EE91E00E9468
S1130970F90B80EF91E00E94F90B8AEF91E00E945D
S1130980F90B84E092E00E94F90B8FE092E00E9460
S1130990F90BCE018B5B9F4F0E94F20B2696EFADB5
S11309A026978E2F90E0FC01F197E930F10530F5A0
S11309B0E65DFF4F0C944A0C16E02FC081E00E94C4
S11309C0DE0B1BE02AC082E00E94DE0B1BE025C088
S11309D083E00E94DE0B1BE020C084E00E94DE0B5B
S11309E01BE01BC085E00E94DE0B1BE016C08CE000
S11309F00E94DE0B18E011C01AE00FC08AE192E0F9
S1130A000E94F90B2FEF33ED80E3215030408040FA
S1130A10E1F700C0000001C017E0112309F495CFED
S1130A20183009F4CBC030F4163059F0173009F4FB
S1130A30A8C038C11A3009F4F4C01B3009F412C13B
S1130A4031C189AD843008F085C02BE0829FC0019C
S1130A501124BC016B5F7F4F2DE030E02C0F3D1F54
S1130A60620F731F820F931F0E9437018DE292E081
S1130A700E94F90B89E392E00E94F90B86E492E06C
S1130A800E94F90B85E592E00E94F90BCE018B5B85
S1130A909F4F0E94F20B26968FAD2697813369F4FF
S1130AA089ADE1E0F0E0EC0FFD1F3BE0839FE00D3A
S1130AB0F11D112482E0868B2AC0823369F489AD4A
S1130AC0E1E0F0E0EC0FFD1F9BE0899FE00DF11DDC
S1130AD0112483E0868B1BC0833361F489ADE1E08C
S1130AE0F0E0EC0FFD1F2BE0829FE00DF11D1124BF
S1130AF0168A0DC08AE192E00E94F90B3FEF83ED64
S1130B0090E3315080409040E1F700C0000089AD8F
S1130B10A1E0B0E0AC0FBD1F2BE0829FA00DB11D82
S1130B201124FD013C96CE01C9966C011C96EC90F3
S1130B30F18002811381248135814681578160854A
S1130B40718582850E9452008DE992E00E94F90B22
S1130B501BE0A8C089EB92E00E94F90B82EE92E0C0
S1130B600E94F90B8CE293E00E94F90B9FEF2DE2B7
S1130B7032E2915020403040E1F700C000001BE019
S1130B8091C0BE01675C7F4FCE010D960E94720139
S1130B90813029F48EEF92E00E94F90B04C087E1C2
S1130BA093E00E94F90B8FEF9DE222E28150904086
S1130BB02040E1F700C0000010E074C087E493E037
S1130BC00E94F90BCE018A5B9F4F0E94F20B27967D
S1130BD08FAD27970E94ED0B27968FAD27978053F3
S1130BE027968FAF2797CE01895B9F4F0E94F20B08
S1130BF028968FAD28970E94ED0B28969FAD2897D5
S1130C00905328969FAF289727968FAD2797880FE4
S1130C10282F220F220F820F890F0E94DE0B1BE068
S1130C2041C08EE693E00E94F90BCE018B5B9F4F8F
S1130C300E94F20B26968FAD2697813329F48DE01E
S1130C400E94DE0B1BE02EC0823329F48EE00E944A
S1130C50DE0B1BE027C0803311F186EB93E00E948A
S1130C60F90B20C08AEC93E00E94F90BCE018B5B58
S1130C709F4F0E94F20B26968FAD2697813341F445
S1130C8087E089838FEE93E00E94F90B10E00AC09D
S1130C90823339F086EB93E00E94F90B03C010E035
S1130CA001C010E08981843009F4B7CEACC0BE0124
S1130CB0615C7F4FCE01CA960E94D70000E033C02A
S1130CC0E02EF12C2BE02E9DC0012F9D900D1124C0
S1130CD0BE01665C7F4F2DE030E02C0F3D1F820F7C
S1130CE0931F0E9454018823B1F02BE02E9DC00174
S1130CF02F9D900D11240596BE01615C7F4F2DE060
S1130D0030E02C0F3D1F820F931F0E945401882353
S1130D1021F081E003C080E001C080E0A82E31E032
S1130D20831729F00F5F89AD081750F204C00F2E06
S1130D30F3E09F2EF02DA11036C09A940E94990AD8
S1130D408EEF93E00E94580A60E081E00E94770AE7
S1130D5084E991E00E94580A8FEF92E527E08150E0
S1130D6090402040E1F700C000000E94990A82EA06
S1130D7091E00E94580A60E081E00E94770A692DA0
S1130D8070E080E090E00E94DF093FEF82E597E0A9
S1130D90315080409040E1F700C00000911033C012
S1130DA086E0898330C00E94990A8DE094E00E9415
S1130DB0580A60E081E00E94770A89E491E00E9489
S1130DC0580A2FEF3DE282E2215030408040E1F7A3
S1130DD000C000000E94990A87E194E00E94580A2A
S1130DE060E081E00E94770A8DEB91E00E94580A4E
S1130DF09FEF2DE232E2915020403040E1F700C0F5
S1130E00000085E089838981833009F450CF8530DF
S1130E1009F0ABCC0E94990A8FE194E00E94580A31
S1130E2060E081E00E94770ACE0102960E94580A8F
S1130E308FEF99E628E1815090402040E1F700C00F
S1130E4000000E94990A8CE294E00E94580A60E033
S1130E5081E00E94770A8EE394E00E94580ACE0152
S1130E608C5B9F4F0E94FB0725968FAD259781537E
S1130E70833078F00E94990A89E494E00E94580A29
S1130E803FEF83EC99E0315080409040E1F700C09F
S1130E90000087E0898369CCE199FECF9FBB8EBBBC
S1130EA08CB381608CBB8DB3FB0180830895DC011E
S1130EB0E199FECF20E030E00FC0F901EA0FFB1FFB
S1130EC0FFBBEEBB9CB391609CBBFB01E20FF31F25
S1130ED09DB390832F5F3F4F2417350770F3089518
S1130EE0E199FECF9FBB8EBB8CB381608CBB8DB36D
S1130EF0861739F06DBB8CB384608CBB8CB3826075
S1130F008CBB0895CF93DF93DC01EA0120E030E04D
S1130F101AC0E199FECFC9018A0F9B1F9FBB8EBBEC
S1130F209CB391609CBB5DB3FB01E20FF31F908106
S1130F30591739F09DBB9CB394609CBB9CB39260E1
S1130F409CBB2F5F3F4F2C173D0718F3DF91CF91C8
S1130F50089541E063E083E00E94AC0A41E064E06C
S1130F6083E00E94AC0A41E065E083E00E94AC0AA1
S1130F7041E066E083E00E94AC0A40E062E082E087
S1130F800E94AC0A40E063E082E00E94AC0A40E0C8
S1130F9064E082E00E94AC0A40E065E082E00E94E6
S1130FA0AC0A41E063E083E00E941E0B41E064E090
S1130FB083E00E941E0B41E065E083E00E941E0B6B
S1130FC041E066E083E00E941E0B41E062E082E0C3
S1130FD00E941E0B41E063E082E00E941E0B41E090
S1130FE064E082E00E941E0B41E065E082E00E9422
S1130FF01E0B80E008956F927F928F929F92AF9222
S1131000BF92CF92DF92EF92FF920F931F93CF93F1
S1131010DF93CDB7DEB7A1970FB6F894DEBF0FBE4E
S1131020CDBF5C0183E089838A838B838C838D832A
S113103034E03E8325E02F8396E0988792E09987F9
S11310409A879B879C879D878E873F87288B8FEF06
S1131050F501808377C0C82CD12CE5E0F0E0EC0FDB
S1131060FD1FEC0DFD1D6080E1E0F0E0EC0FFD1FC5
S1131070EC0DFD1D708040E0662D872D0E941E0B37
S113108010E051C0E12EF12CEDE0F0E0EC0FFD1F7B
S1131090EE0DFF1D0081E9E0F0E0EC0FFD1FEE0D09
S11310A0FF1D9080AE014F5E5F4F602F892D0E941F
S11310B0900B8989811136C083EC99E00197F1F78F
S11310C000C00000AE014F5E5F4F602F892D0E946B
S11310D0900B8989811126C007C0AE014F5E5F4F16
S11310E0602F892D0E94900B89898823B1F380E1B8
S11310F0E0E6F0E0DE01529601900D928A95E1F768
S1131100EE0CFF1CEE0CFF1CE1E0F0E0EC0FFD1F09
S1131110EE0EFF1EF701EC0DFD1D8189F5018083A4
S113112081E015C01F5F143008F4ACCF41E0662D98
S1131130872D0E941E0B839401C0812CF3E0F815C7
S113114008F089CFF50180818F3FB9F380E0A19643
S11311500FB6F894DEBF0FBECDBFDF91CF911F91C4
S11311600F91FF90EF90DF90CF90BF90AF909F9042
S11311708F907F906F9008951F93CF93DF931F926A
S1131180CDB7DEB7182F40E063E081E00E941E0B6C
S113119040E062E081E00E941E0B1832E1F5AE01EE
S11311A04F5F5F4F61E081E00E94900B8981811164
S11311B032C0412F441F4427441F67E00E941E0B86
S11311C016FB442740F966E080E00E941E0B15FBE5
S11311D0442740F965E080E00E941E0B14FB44277D
S11311E040F964E080E00E941E0B41E063E081E08E
S11311F00E941E0B81EE94E00197F1F700C00000FD
S113120040E063E081E00E941E0B83ED90E30197D0
S1131210F1F700C00000412F441F4427441F67E03A
S113122080E00E941E0B16FB442740F966E080E034
S11312300E941E0B15FB442740F965E080E00E94E4
S11312401E0B14FB442740F964E080E00E941E0B4F
S113125041E063E081E00E941E0B81EE94E001977F
S1131260F1F700C0000040E063E081E00E941E0B43
S113127083ED90E30197F1F700C0000013FB4427CE
S113128040F967E080E00E941E0B12FB442740F9FE
S113129066E080E00E941E0B11FB442740F965E0E4
S11312A080E00E941E0B412F417064E080E00E94A8
S11312B01E0B41E063E081E00E941E0B81EE94E08E
S11312C00197F1F700C0000040E063E081E00E9474
S11312D01E0B83ED90E30197F1F700C0000080E05E
S11312E00F90DF91CF911F91089541E061E081E07B
S11312F00E94AC0A41E062E081E00E94AC0A41E055
S113130063E081E00E94AC0A41E067E080E00E9473
S1131310AC0A41E066E080E00E94AC0A41E065E08E
S113132080E00E94AC0A41E064E080E00E94AC0AE4
S11313308DE292E20197F1F700C0000040E061E025
S113134081E00E941E0B88E20E94BC0889EF90E0B5
S11313500197F1F700C0000040E061E081E00E94E5
S11313601E0B8FE00E94BC0889EF90E00197F1F713
S113137000C0000040E061E081E00E941E0B81E0BB
S11313800E94BC0883EF91E00197F1F700C00000D0
S113139040E061E081E00E941E0B86E00E94BC08F0
S11313A080E00895CF93C82F41E061E081E00E947E
S11313B01E0B8C2F0E94BC0880E0CF910895AF9241
S11313C0BF92CF92DF92EF92FF920F931F93CF932E
S11313D0DF93611571058105910561F541E061E0D7
S11313E081E00E941E0B80E30E94BC08A12C54C023
S11313F02AE030E040E050E00E94280CCC0CDD1CD8
S1131400EE1CFF1CD701C601880F991FAA1FBB1F22
S1131410880F991FAA1FBB1FC80ED91EEA1EFB1EE8
S1131420C60ED11CE11CF11CCF5F622F732F842FD9
S1131430952F04C0C0E0C12CD12C76016115710533
S113144081059105A9F6A12C1BC041E061E081E072
S11314500E941E0BC701B6012AE030E040E050E0D4
S11314600E94280CB22E032F142FD52F80E3860F51
S11314700E94BC08A82ECB2CD02EE12EFD2EC150EC
S1131480C114D104E104F10401F704C080E30E9413
S1131490BC08C150C111FACF8A2DDF91CF911F91A1
S11314A00F91FF90EF90DF90CF90BF90AF90089591
S11314B00F931F93CF93DF93EC01892B79F482E090
S11314C011C041E061E081E00E941E0B8E010F5FBC
S11314D01F4F88810E94BC08E80101C080E0988108
S11314E09111EFCFDF91CF911F910F9108951F9329
S11314F0CF93DF938230A8F46031A8F4162FC82F5D
S113150040E061E081E00E941E0BD82F8C2F90E018
S1131510029620E4829F100D1124812F0E94BC08A2
S113152003C0D0E001C0D0E08D2FDF91CF911F9197
S11315300895CF9340E061E081E00E941E0BC82F24
S113154081E00E94BC088C2FCF91089581EB8ABB67
S113155086E18BBB80E00895843008F067C0683072
S113156008F066C0423008F065C08130E9F030F020
S1131570823081F1833009F443C05EC081E090E0A1
S1131580062E02C0880F991F0A94E2F780952AB3A9
S11315902823842F90E002C0880F991F6A95E2F7F0
S11315A0822B8ABB81E0089521E030E0062E02C040
S11315B0220F331F0A94E2F7209587B32823842F40
S11315C090E002C0880F991F6A95E2F7822B87BBCF
S11315D081E0089521E030E0062E02C0220F331F7F
S11315E00A94E2F7209584B32823842F90E002C064
S11315F0880F991F6A95E2F7822B84BB81E00895D6
S113160021E030E0062E02C0220F331F0A94E2F7D5
S1131610209581B32823842F90E002C0880F991F5E
S11316206A95E2F7822B81BB81E0089583E00895F7
S113163083E0089583E0089581E00895843008F0FC
S113164067C0683008F066C0423008F065C0813079
S1131650E9F030F0823081F1833009F443C05EC098
S113166081E090E0062E02C0880F991F0A94E2F7E9
S113167080952BB32823842F90E002C0880F991FF4
S11316806A95E2F7822B8BBB81E0089521E030E07C
S1131690062E02C0220F331F0A94E2F7209588B366
S11316A02823842F90E002C0880F991F6A95E2F7DF
S11316B0822B88BB81E0089521E030E0062E02C031
S11316C0220F331F0A94E2F7209585B32823842F31
S11316D090E002C0880F991F6A95E2F7822B85BBC0
S11316E081E0089521E030E0062E02C0220F331F6E
S11316F00A94E2F7209582B32823842F90E002C055
S1131700880F991F6A95E2F7822B82BB81E00895C6
S113171083E0089583E0089583E0089581E00895C7
S113172041155105E1F18430E0F56830E0F5813090
S113173091F028F08230D9F0833029F136C089B392
S113174090E002C0959587956A95E2F78170FA0159
S1131750808381E0089586B390E002C095958795D3
S11317606A95E2F78170FA01808381E0089583B37A
S113177090E002C0959587956A95E2F78170FA0129
S1131780808381E0089580B390E002C095958795A9
S11317906A95E2F78170FA01808381E0089582E01E
S11317A0089583E0089583E0089581E0089587B360
S11317B0806B87BB8DB181658DB908958FB9779B97
S11317C0FECF8FB108951BB888E18AB986E880BD41
S11317D087E689B910BC80E008955D9BFECF8CB983
S11317E080E008955F9BFECF2CB1FC01208380E054
S11317F00895AC0120E009C05D9BFECF9CB9909197
S113180058049F5F909358042F5FFA01E20FF11D73
S113181090819111F1CF80E00895AC0120E05F9BAD
S1131820FECFFA01E20FF11D9CB190835D9BFECFC8
S11318309CB990819D3021F09A3011F02F5FEFCF49
S1131840108280E0089580915804811181E0089508
S1131850A1E21A2EAA1BBB1BFD010DC0AA1FBB1FB0
S1131860EE1FFF1FA217B307E407F50720F0A21B22
S1131870B30BE40BF50B661F771F881F991F1A948F
S113188069F760957095809590959B01AC01BD01B9
S1131890CF010895EE0FFF1F0590F491E02D0994F8
S10718A0F894FFCFE6
S11318A43738392B3435362D3132337863303D2F84
S11318B4557365726E616D653A0050617373776F29
S11318C472643A000D0A0D0A557365726E616D6592
S11318D43A200050617373776F72643A20000D0AE2
S11318E4456E74657220557365726E616D65205220
S11318F46571756972656420746F20626520526530
S11319046D6F7665643A200057656C636F6D65206E
S1131914546F20536D61727400486F6D652021000B
S1131924466F722046697273742054696D6500555C
S113193473650052656769737465722041646D69E7
S11319446E006F6E204B6579706164005361766537
S11319546400505245535320454E54455220544F2D
S11319642053544152540D0A00416C6C2044657652
S11319746963657300417265204F6666000D0A4C05
S11319846F6767656420696E205375636365737359
S113199466756C6C79000D0A57656C636F6D652010
S11319A441646D696E0D0A000D0A4C6F67676564C6
S11319B420696E205375636365737366756C6C7903
S11319C40D0A000D0A57726F6E6720557365726EA7
S11319D4616D65206F722050617373776F72640058
S11319E40D0A52656D61696E696E6720547269618E
S11319F46C733A20000D0A312D41646420557365DB
S1131A0472000D0A322D52656D6F7665205573652B
S1131A1472000D0A332D526F6F6D31000D0A342D8F
S1131A24526F6F6D32000D0A352D526F6F6D330096
S1131A340D0A362D526F6F6D34000D0A372D526F17
S1131A446F6D35000D0A382D44696D6D6572000D96
S1131A540A392D446F6F720D0A000D0A496E7661BE
S1131A646C69642043686F6963650D0A000D0A316B
S1131A742D52656D6F746564000D0A322D50726FBA
S1131A846D6F746564000D0A332D4E6F6E72656D4F
S1131A946F746564000D0A0D0A5072696F7269747B
S1131AA47920417272616E676D656E743A2050726A
S1131AB46F6D6F746564203E204E6F6E72656D6F3A
S1131AC474656420284C43442B4B65797061642904
S1131AD4203E2052656D6F7465640D0A000D0A5230
S1131AE465676973746572656420537563636573AC
S1131AF47366756C6C790D0A000D0A52656163682E
S1131B04656420546865204D6178204E756D626566
S1131B1472206F662053746F726564205573657206
S1131B2473000D0A436F756C646E27742053746FCD
S1131B3472652041204E65772055736572000D0A45
S1131B4452656D6F7665642053756363657373665C
S1131B54756C6C790D0A000D0A557365726E616DAE
S1131B6465206E6F7420466F756E64200D0A52658D
S1131B747475726E696E6720746F204D61696E208E
S1131B844D656E750D0A000D0A456E746572205418
S1131B9468652050657263656E74616765206F665D
S1131BA4204272696768746E6573733A20000D0A83
S1131BB4446F6F72204F7074696F6E73200D0A2026
S1131BC4312D4F70656E20446F6F720D0A20322DD3
S1131BD4436C6F736520446F6F720D0A20302D526D
S1131BE4657475726E20746F206D61696E206D6505
S1131BF46E750D0A20000D0A496E76616C696420C5
S1131C0443686F6963650D0A20000D0A312D4C6F1A
S1131C1467204F75740D0A322D52657475726E20E7
S1131C24746F206D61696E206D656E750D0A000D0B
S1131C340A4C6F67676564204F75740D0A00577208
S1131C446F6E6720557365726E616D65004C6F67C6
S1131C5467656420696E0057656C636F6D65005732
S1131C64656C636F6D65205573657200312D4C6925
S1131C746768747320322D44696D6D657200332D69
S1131C8441697220436F6E6400496E76616C6964C5
S10B1C942043686F69636500D9
S9030000FC
