S01100004156524D61737465722E73726563BE
S11300000C9432000C94860D0C944F000C944F0009
S11300100C944F000C944F000C944F000C944F0020
S11300200C944F000C944F000C944F000C944F0010
S11300300C944F000C944F000C944F000C944F0000
S11300400C944F000C944F000C944F000C944F00F0
S11300500C944F0094059905A505AA05AF05BB05A9
S1130060BE05EC0511241FBECFE5D8E0DEBFCDBF31
S113007015E0A0E6B0E0ECEAFCE102C005900D92C8
S1130080AC31B107D9F725E0ACE1B5E001C01D9270
S1130090A332B207E1F70E9446020C94540E0C946A
S11300A00000CF92DF92EF92FF920F931F93CF93B2
S11300B0DF93CDB7DEB72B970FB6F894DEBF0FBE34
S11300C0CDBFE982FA820B831C832D833E834F8349
S11300D0588769877A878B87F6018081F9E08F9F3B
S11300E0C001112444E050E0BE016F5F7F4F42968F
S11300F00E947D092FEF80E792E0215080409040DC
S1130100E1F700C00000F6018081F9E08F9FC00193
S1130110112444E050E0BE016A5F7F4F46960E947E
S11301207D092FEF80E792E0215080409040E1F775
S113013000C00000F6018081F9E08F9FC001112406
S11301406B854A960E9471092FEF80E792E0215057
S113015080409040E1F700C00000F60160816F5FCD
S1130160608381E190E00E9471092B960FB6F894A8
S1130170DEBF0FBECDBFDF91CF911F910F91FF90D6
S1130180EF90DF90CF900895AF92BF92CF92DF921D
S1130190EF92FF920F931F93CF93DF931F92CDB7EC
S11301A0DEB78C016B010E94930C80E890E00E9402
S11301B0580C60E081E00E94750C7801580124E03D
S11301C0A20EB11CCE0101960E94E90989810E9408
S11301D0DE0B8981F70181937F01EA15FB0591F715
S11301E0F80114820E94930C8AE890E00E94580C53
S11301F060E081E00E94750C760110E0CE0101966A
S11302000E94E90989810E94DE0BFFEF29E688E15B
S1130210F15020408040E1F700C00000612F81E0F0
S11302200E94750C8AE20E94DE0B8981F70181939A
S11302307F011F5F143011F7F601148281E00F90E3
S1130240DF91CF911F910F91FF90EF90DF90CF90AE
S1130250BF90AF9008950F931F93CF93DF938C01BA
S1130260EB0184E990E00E94D10DC8010E94E00DE9
S1130270F801148283EA90E00E94D10DCE010E941D
S1130280E00D1C8281E0DF91CF911F910F910895C1
S1130290DC0140E0242F30E0FD01E20FF31F9081E8
S11302A0FB01E20FF31F2081921304C0992341F054
S11302B04F5FF0CF911106C081E0222321F002C0EC
S11302C081E0089580E008957F928F929F92AF928B
S11302D0BF92CF92DF92EF92FF920F931F93CF932F
S11302E0DF9300D000D01F92CDB7DEB78C015B0145
S11302F08EEA90E00E94D10DCE0101960E94E00D9D
S11303001D82F50190807801D12CD91409F47EC0A6
S11303107E2C8F2CBE016F5F7F4FC7010E94480166
S1130320C82EFBE0EF0EF11C882309F46DC0F80120
S11303302BE0929EE00DF11D11243B978BE0A72D3D
S1130340B82D01900D928A95E1F7F5018081F9E0CD
S1130350DF9E70011124B8012BE0829F600D711D96
S113036011246B50710944E050E0C70142960E9489
S11303707D098FEF90E7E2E081509040E040E1F7A3
S113038000C00000F5018081B801FBE08F9F600D83
S1130390711D11246650710944E050E0C70146966E
S11303A00E947D092FEF80E792E021508040904029
S11303B0E1F700C00000F5018081FBE08F9F000D94
S11303C0111D1124F8013B976285C7014A960E94CA
S11303D071092FEF80E792E0215080409040E1F7CF
S11303E000C00000F50160816150608381E190E00C
S11303F00E947109FFEF20E782E0F1502040804025
S1130400E1F700C0000003C0D3947FCFC12C8C2D32
S11304100F900F900F900F900F90DF91CF911F913D
S11304200F91FF90EF90DF90CF90BF90AF909F908F
S11304308F907F90089521E030E001C0220F6A95EB
S1130440EAF7FC013081232B2083089521E030E07A
S113045001C0220F6A95EAF7FC013081232720832B
S1130460089580912005811108C080911F05811194
S113047004C080911D05882319F010921C0508956D
S113048081E080931C0510921E050895CF93DF939D
S1130490CDB7DEB7C854D1090FB6F894DEBF0FBE8E
S11304A0CDBF0E94A00C0E94AF0D0E94BB0D0E9404
S11304B0810B0E94970941E061E083E00E94A60C51
S11304C041E060E082E00E94A60C0E94740D7894E2
S11304D081E392E00E947C0D29961FAE299728960D
S11304E01FAE289723961FAE239788ED90E00E94B5
S11304F0580C60E081E00E94750C89EE90E00E9447
S1130500580CBE01685B7F4F80E00E9454092FEFB6
S113051037EA81E6215030408040E1F700C0000016
S11305200E94930C29968FAD29978F3F09F091C0B3
S113053028966FAD289781E190E00E9471099FEFA2
S1130540E2E5F7E09150E040F040E1F700C0000040
S113055080EF90E00E94580C60E081E00E94750CEE
S11305608FEF90E00E94580C2FEF37EA81E621507C
S113057030408040E1F700C000000E94930C83E00B
S113058091E00E94580C60E081E00E94750C82E1C9
S113059091E00E94580C9FEFE7EAF1E69150E040A9
S11305A0F040E1F700C00000BE016E5C7F4FCE0159
S11305B08D960E94C40081E08FAB44E050E0BE0100
S11305C0635D7F4F81E090E00E947D092FEF32E56B
S11305D087E0215030408040E1F700C0000044E053
S11305E050E0BE016E5C7F4F85E090E00E947D0983
S11305F09FEFE2E5F7E09150E040F040E1F700C002
S1130600000060E080E090E00E9471092FEF32E585
S113061087E0215030408040E1F700C000000E9494
S1130620930C8CE191E00E94580C60E081E00E9400
S1130630750C85E991E00E94580C9FEFE3EDF0E31F
S11306409150E040F040E1F700C000000E94930C9C
S11306509FC08111A1C0BE01695B7F4F81E10E94EF
S113066054092FEF32E587E0215030408040E1F714
S113067000C0000044E050E0BE01635D7F4F81E0B4
S113068090E00E945D0919AA9FEFE2E5F7E091501E
S1130690E040F040E1F700C0000044E050E0BE015B
S11306A06E5C7F4F85E090E00E945D091EAA2FEFEB
S11306B032E587E0215030408040E1F700C000007F
S11306C081E08FAB9FEFE2E5F7E09150E040F0402E
S11306D0E1F700C00000612C5BE0552E28968FAD39
S11306E02897681608F054C029E0629E400111243E
S11306F0640132E1C30ED11C569C80011124EE2406
S1130700E394F12CEC0EFD1EE00EF11E44E050E0EB
S1130710B701C6010E945D098FEF92E5E7E08150C1
S11307209040E040E1F700C00000B8016B5F7F4FEC
S113073021E030E02C0F3D1F620F731F44E050E0B6
S1130740C40146960E945D093FEF82E597E031506F
S113075080409040E1F700C00000B801665F7F4F21
S1130760E1E0F0E0EC0FFD1F6E0F7F1F88E08C0DC1
S11307700E945409FFEF22E537E0F1502040304059
S1130780E1F700C00000F701148211866394A6CF3C
S113079087E029968FAF299733E0932E82E291E088
S11307A00E94D10D29968FAD2997873019F02BE03F
S11307B0E22E06C123968FAD239781110EC00E94AD
S11307C0930C89E391E00E94580C60E081E00E9460
S11307D0750C85E491E00E94580CFF24F3940B2DD2
S11307E010E082E0E82E93E0D92E29968FAD299768
S11307F08730E9F623962FAD2397822F90E00F2CB4
S113080002C0959587950A94E2F781708F9D802D9B
S11308101124833001F128F4813071F0823089F0A1
S113082047C0853099F1E0F0863009F041C00E945C
S1130830930C81E791E020C00E94930C8DE491E039
S11308401BC021FF0E94930C60E081E00E94750CA4
S113085086E591E00EC00E94930C8FE591E00CC0F8
S113086023FF0E94930C60E081E00E94750C88E6EF
S113087091E00E94580C13C00E94580CFFEF23ED26
S113088030E3F15020403040E1F710C00E94930C57
S113089080E891E00E94580CC8010E94EB0B8FEF96
S11308A093EDE0E381509040E040E1F700C00000A8
S11308B0F394F7E0FF1202C0FF24F39480911C0527
S11308C0813021F42996DFAE29978FCF0E94F60D4F
S11308D0882309F48ACF2996EFAE299786CFBE01E3
S11308E0685C7F4FCE01CD960E942B01BE01635DF3
S11308F07F4FCE01CD960E944801811168C0F12C32
S113090028968FAD2897F81608F0C9C40F2D10E06B
S1130910E09E6001E19ED00C1124BE01635C7F4F18
S113092081E090E08C0F9D1F8C0D9D1D0E9448015D
S1130930882309F47BC0C6010596BE01685C7F4F1D
S113094021E030E02C0F3D1F820F931F0E944801CD
S113095091E0811101C090E0A92E31E0A31281C081
S1130960E09EC001E19E900D112401E010E00C0F07
S11309701D1F080F191FF80182858250823008F468
S113098057C01FEF190D8FEC91E00E94D10DFFEFBE
S113099025EA3EE0F15020403040E1F700C000007D
S11309A08CEE91E00E94D10D8FE2890D0E94C50D5D
S11309B0111104C086E029968FAF2997A12C912E9E
S11309C029968FAD2997823009F489CF4CC0BE0196
S11309D06E5C7F4FCE01C8960E94480111E08111E0
S11309E001C010E0113009F08ACF89E891E00E943B
S11309F0D10D2FEF39E688E1215030408040E1F7F6
S1130A0000C0000082EA91E00E94D10D9FEFE9E668
S1130A10F8E19150E040F040E1F700C0000010938D
S1130A20200584E029968FAF299737C4A12C95CF50
S1130A3084EB91E00E94D10DFFEF29E638E1F150FB
S1130A4020403040E1F700C0000084E029968FAFD9
S1130A502997F8018285833009F01FC4A0921F05ED
S1130A601CC4F3944DCFFBE06F2EABE08A2EBFE0A5
S1130A704B2E1BE0512E74E6E72E0AE0E8E0FE2E32
S1130A8029968FAD2997843009F0DFC110911E0596
S1130A901111CEC081E092E00E94D10D8BE092E072
S1130AA00E94D10D85E192E00E94D10D8FE192E088
S1130AB00E94D10D89E292E00E94D10D809120051F
S1130AC0813091F484E392E00E94D10D8DE392E0B1
S1130AD00E94D10D8AE492E00E94D10DCE018B5B7D
S1130AE09F4F0E94CA0D11C086E391E00E94D10D70
S1130AF0CE018B5B9F4F0E94CA0D26968FAD269721
S1130B00863318F02696EFAE26972696EFAD2697F5
S1130B108E2F90E0FC01F197E830F10508F078C0E1
S1130B20E65DFF4F0C94340E81E00E94B60D61E047
S1130B3004C082E00E94B60D62E0CE018E5B9F4F3E
S1130B400E94260250921E05A1CF83E00E94B60D9A
S1130B5063E0F3CF84E00E94B60D64E0EECF8CE056
S1130B600E94B60D65E0CE018E5B9F4F0E941B0272
S1130B70F0921E058BCF00931E0588CF28968FAD6B
S1130B802897843098F4689EC0011124BC016B5FDF
S1130B907F4FE1E0F0E0EC0FFD1F6E0F7F1F8E0F23
S1130BA09F1F0E942B0140921E0570CF8CE592E09E
S1130BB00E94D10D85E892E00E94D10D8FEC92E065
S1130BC00E94D10D10921E05FFEF2DE232E2F1508A
S1130BD020403040E1F719C0BE01695B7F4FCE0170
S1130BE001960E946401813019F481EA92E002C006
S1130BF08AEB92E00E94D10D10921E058FEF9DE2C8
S1130C00E2E281509040E040E1F700C000003ECFB6
S1130C108AEE92E00E94D10DFFEF23ED30E3F15014
S1130C2020403040E1F700C0000010921E052ECF96
S1130C301A3009F4B4C0A0F5183009F021CF89E8BE
S1130C4093E00E94D10DCE018C5B9F4F0E94CA0D90
S1130C5025968FAD25970E94C50D25968FAD2597B6
S1130C60805325968FAF2597CE018D5B9F4F0E94B1
S1130C70CA0D24968FAD24970E94C50D24968FAD7E
S1130C80249790ED980F24969FAF249725968FADC7
S1130C902597B92E2AE0829FB00C11248B2D9CC07D
S1130CA01B3009F49FC01F3009F0EACE8DEF92E0AB
S1130CB00E94D10D89E093E00E94D10D86E193E07A
S1130CC00E94D10D85E293E00E94D10DCE018B5B91
S1130CD09F4F0E94CA0D26968FAD2697813369F4E3
S1130CE028968FAD2897E1E0F0E0EC0FFD1F689E99
S1130CF0E00DF11D112482E00EC0823321F5289607
S1130D008FAD2897E1E0F0E0EC0FFD1F689EE00D49
S1130D10F11D112483E082879E01295B3F4F690105
S1130D20E080F180028113812481358146815781DD
S1130D30608571850E94510080921E058DE693E0C6
S1130D400E94D10D98CE8333E1F428968FAD289775
S1130D50E1E0F0E0EC0FFD1F689EE00DF11D1124B1
S1130D601286CE01895B9F4F6C01E080F180028185
S1130D70138124813581468157816085718580E0A6
S1130D80D9CF8AEE92E00E94D10D9FEFE3EDF0E31C
S1130D909150E040F040E1F700C000006CCE80EBE1
S1130DA093E00E94D10DCE018B5B9F4F0E94CA0D30
S1130DB026968FAD2697813361F48DE00E94B60D9F
S1130DC066E0CE018E5B9F4F0E941B0280921E053F
S1130DD052CE823321F48EE00E94B60DF7CF8033D9
S1130DE069F529C08CE094E00E94D10DCE018B5BA3
S1130DF09F4F0E94CA0D26968FAD26978133C9F462
S1130E0087E029968FAF299710921E0581E394E01D
S1130E100E94D10D80912005813019F41092200593
S1130E202ACE80911F05813009F025CE10921F052E
S1130E3022CE823319F410921E051DCE88EF93E062
S1130E400E94D10D10931E0516CE4BE0E42E56E001
S1130E50852E65E0662E29968FAD2997833009F09B
S1130E60C6C00E94930C80E494E00E94580C60E099
S1130E7081E00E94750C8BE494E00E94580C3FEFD3
S1130E808DE292E2315080409040E1F700C00000D2
S1130E90BE01685C7F4FCE01CD960E94C400F12C48
S1130EA028968FAD2897F81608F09CC00F2D10E0F7
S1130EB0E09E6001E19ED00C1124BE01635C7F4F73
S1130EC081E090E08C0F9D1F8C0D9D1D0E944801B8
S1130ED0882399F0C6010596BE01685C7F4FE1E066
S1130EE0F0E0EC0FFD1F8E0F9F1F0E94480191E060
S1130EF0811101C090E0792E01C0712CF1E07F12C4
S1130F006FC0E09EF001E19EF00D112421E030E07D
S1130F102C0F3D1FE20FF31F82858823A9F19A94B9
S1130F200E94930C8CE594E00E94580C60E081E0F0
S1130F300E94750C80EE91E00E94580C3FEF8DE208
S1130F4092E2315080409040E1F700C000000E94DE
S1130F50930C8EEE91E00E94580C60E081E00E94B8
S1130F60750C892D90E00E94EB0BEFEFFDE222E27D
S1130F70E150F0402040E1F700C00000911035C07E
S1130F8029968FAE299731C00E94930C8BE694E08A
S1130F900E94580C60E081E00E94750C85E991E0A4
S1130FA00E94580C3FEF8DE292E231508040904015
S1130FB0E1F700C000000E94930C85E794E00E94D2
S1130FC0580CEFEFFDE222E2E150F0402040E1F75F
S1130FD000C0000029966FAE299733E0932E3BCFD3
S1130FE0F3945ECF711037CF9ACF712C34CF8BE04E
S1130FF0F82E98E0E92E1BE020E1D22E29968FAD41
S11310002997853009F024C180911E0581116BC098
S11310100E94930C82E894E00E94580C60E081E006
S11310200E94750C82E994E00E94580CCE018A5B00
S11310309F4F0E94E90927968FAD2797823379F055
S113104038F48133E9F481E00E94B60D61E010C008
S1131050833351F08433A1F4D0921E05D5CF82E0BE
S11310600E94B60D62E004C083E00E94B60D63E006
S1131070CE018E5B9F4F0E94260210931E05C4CFA3
S11310800E94930C81EA94E00E94580C3FEF8DE299
S113109092E2315080409040E1F700C00000B4CFAC
S11310A00E94930C80EB94E00E94580C60E081E075
S11310B00E94750C81EC94E00E94580CCE018A5B6E
S11310C09F4F0E94E90927968FAD2797813381F4BA
S11310D084E00E94B60D64E0CE018E5B9F4F0E94B7
S11310E0260210931E0500911E050031C9F21DC091
S11310F0823329F0803349F410921E05F4CF8CE03A
S11311000E94B60DE0921E05EECF0E94930C81EA78
S113111094E00E94580CEFEFFDE222E2E150F0402F
S11311202040E1F700C00000DECF083021F00B3092
S113113009F44FC063CF0E94930C8AEC94E00E94A0
S1131140580C60E081E00E94750C85ED94E00E94EB
S1131150580CCE018C5B9F4F0E94E90925968FADF8
S113116025970E94DE0B25968FAD259780532596F3
S11311708FAF2597CE018D5B9F4F0E94E90924967E
S11311808FAD24970E94DE0B24968FAD249790EDAB
S1131190980F24969FAF249725968FAD2597B92E47
S11311A03AE0839FB00C11248B2D0E94B60D8FEF73
S11311B09DE2E2E281509040E040E1F700C000008F
S11311C065E0CE018E5B9F4F0E941B02F0921E05CC
S11311D015CF0E94930C81EE94E00E94580CCE012E
S11311E08A5B9F4F0E94E90927968FAD2797813329
S11311F0C1F487E029968FAF299710921E051092AB
S11312001C050E94930C81EF94E00E94580CFFEFA0
S11312102DE232E2F15020403040E1F700C00000FE
S1131220EDCE823319F410921E05E8CE0E94930C81
S113123081EA94E00E94580C8FEF9DE2E2E2815033
S11312409040E040E1F700C0000000931E05D6CEB8
S1131250863009F0A3CA66E080E090E00E9471093C
S113126081E080931D050E94930C8CEF94E00E9412
S1131270580C60E081E00E94750C8CE095E00E94BF
S1131280580C41E060E082E00E94FC0C29968FAD8E
S11312902997863009F082CAFFCF13E090CBAA20A9
S11312A009F46FCB192D8BCBE199FECF9FBB8EBB7D
S11312B0E09A8DB3FB0180830895E199FECF460F38
S11312C0571FFB01861B970BE417F50749F09C0198
S11312D02E0F3F1F3FBB2EBBE09A2DB32193F4CFBB
S11312E00895E199FECF9FBB8EBBE09A8DB386171C
S11312F019F06DBBE29AE19A0895460F571FFB015E
S11313009C01261B370BE417F50781F0E199FECF0A
S1131310C9018E0F9F1F9FBB8EBBE09A8DB3919125
S1131320891789F39DBBE29AE19AEDCF089541E0D4
S113133063E083E00E94A60C41E064E083E00E9445
S1131340A60C41E065E083E00E94A60C41E066E063
S113135083E00E94A60C40E062E082E00E94A60CBA
S113136040E063E082E00E94A60C40E064E082E09A
S11313700E94A60C40E065E082E00E94A60C41E0D9
S113138063E083E00E94FC0C41E064E083E00E949F
S1131390FC0C41E065E083E00E94FC0C41E066E067
S11313A083E00E94FC0C41E062E082E00E94FC0CBD
S11313B041E063E082E00E94FC0C41E064E082E0F2
S11313C00E94FC0C41E065E082E00E94FC0C80E09D
S11313D008952F923F924F925F926F927F928F92D5
S11313E09F92AF92BF92CF92DF92EF92FF920F93B0
S11313F01F93CF93DF93CDB7DEB7A3970FB6F894BF
S1131400DEBF0FBECDBF6C01809160009091610082
S1131410A0916200B09163008D8F9E8FAF8FB8A3AF
S11314208091640090916500A0916600B09167007E
S1131430898F9A8FAB8FBC8F8091680090916900DF
S1131440A0916A00B0916B008D8B9E8BAF8BB88F8F
S113145080916C0090916D00A0916E00B0916F002E
S1131460898B9A8BAB8BBC8B8FEFF6018083F60153
S113147080818F3F09F07BC03E01F9E16F0E711C42
S1131480CE014D969BA38AA3E12CF12CF30121906C
S11314903F01EAA1FBA13190FBA3EAA340E0622D46
S11314A0832D0E94FC0C4E01F1E18F0E911C5E0114
S11314B085E1A80EB11C00E010E0F40151904F0149
S11314C0F50141905F01AE014F5D5F4F652D842DA5
S11314D00E94520D89A1811136C083EC99E00197D5
S11314E0F1F700C00000AE014F5D5F4F652D842D04
S11314F00E94520D89A1811126C089A1811108C0C1
S1131500AE014F5D5F4F652D842D0E94520DF5CFC6
S113151080E1E0E7F0E0DE01119601900D928A95FA
S1131520E1F7000F111F000F111FE1E0F0E0EC0FD5
S1131530FD1F0E0F1F1FF801EE0DFF1D8081F60128
S1131540808381E015C00F5F1F4F0430110509F03F
S1131550B4CF41E0622D832D0E94FC0CFFEFEF1A03
S1131560FF0A84E0E816F10409F090CF80CF80E010
S1131570A3960FB6F894DEBF0FBECDBFDF91CF9117
S11315801F910F91FF90EF90DF90CF90BF90AF909D
S11315909F908F907F906F905F904F903F902F908F
S11315A008951F93CF93DF931F92CDB7DEB7182F03
S11315B040E063E081E00E94FC0C40E062E081E0F6
S11315C00E94FC0C183299F5AE014F5F5F4F61E049
S11315D081E00E94520D8981811129C040E067E0B9
S11315E00E94FC0C40E066E080E00E94FC0C41E0BC
S11315F065E080E00E94FC0C40E064E080E00E9432
S1131600FC0C41E063E081E00E94FC0C81EE94E07C
S11316100197F1F700C0000040E063E081E00E9420
S1131620FC0C83ED90E30197F1F700C00000412F1B
S1131630441F4427441F67E080E00E94FC0C16FB13
S1131640442740F966E080E00E94FC0C15FB442727
S113165040F965E080E00E94FC0C14FB442740F94B
S113166064E080E00E94FC0C41E063E081E00E94C1
S1131670FC0C81EE94E00197F1F700C0000040E01B
S113168063E081E00E94FC0C83ED90E30197F1F7A5
S113169000C0000013FB442740F967E080E00E948B
S11316A0FC0C12FB442740F966E080E00E94FC0C2D
S11316B011FB442740F965E080E00E94FC0C412FB7
S11316C0417064E080E00E94FC0C41E063E081E052
S11316D00E94FC0C81EE94E00197F1F700C0000039
S11316E040E063E081E00E94FC0C83ED90E301970D
S11316F0F1F700C0000080E00F90DF91CF911F91BF
S1131700089541E061E081E00E94A60C41E062E0BE
S113171081E00E94A60C41E063E081E00E94A60CF7
S113172041E067E080E00E94A60C41E066E080E0D2
S11317300E94A60C41E065E080E00E94A60C41E016
S113174064E080E00E94A60C8DE292E20197F1F73A
S113175000C0000040E061E081E00E94FC0C88E2EF
S11317600E94D10A89EF90E00197F1F700C00000D0
S113177040E061E081E00E94FC0C8FE00E94D10A0D
S113178089EF90E00197F1F700C0000040E061E0CC
S113179081E00E94FC0C81E00E94D10A83EF91E079
S11317A00197F1F700C0000040E061E081E00E9491
S11317B0FC0C86E00E94D10A80E00895CF93C82FE4
S11317C041E061E081E00E94FC0C8C2F0E94D10A70
S11317D080E0CF9108956F927F928F929F92AF9203
S11317E0BF92CF92DF92EF92FF920F931F93CF930A
S11317F0DF93FC01892B51F441E061E081E00E9418
S1131800FC0C80E30E94D10AD0E042C0C0E0C12CAD
S1131810D12C76010AE010E0AAE0B0E0A70196011D
S11318200E943A0E6B017C01CF01B8010E94FE0DAB
S1131830C80ED91EE11CF11CCF5FFB01309761F784
S1131840D0E08AE0882E912CA12CB12CC114D104B3
S1131850E104F104B1F041E061E081E00E94FC0C9C
S1131860C701B601A50194010E94120E39018A0133
S113187080E3860F0E94D10AD82F63017801C150FA
S1131880E5CFCC2329F080E30E94D10AC150F9CFDF
S11318908D2FDF91CF911F910F91FF90EF90DF90EB
S11318A0CF90BF90AF909F908F907F906F9008954E
S11318B00F931F93CF93DF93009789F0EC0180E09F
S11318C08E019881992361F041E061E081E00E94FA
S11318D0FC0C2196F80180810E94D10AF1CF82E0AC
S11318E0DF91CF911F910F9108951F93CF93DF93B1
S11318F0823098F4603188F4C62FD82F40E061E03C
S113190081E00E94FC0C182F8C2F90E4D99F800D4D
S1131910112480580E94D10A01C010E0812FDF9168
S1131920CF911F910895CF9340E061E081E00E9440
S1131930FC0CC82F81E00E94D10A8C2FCF9108950E
S113194081EB8ABB86E18BBB80E00895843008F08C
S113195051C0683008F04EC0423008F04BC08230AD
S113196039F18330B1F1813089F081E090E0062EC5
S113197001C0880F0A94EAF780959AB3892301C0BD
S1131980440F6A95EAF7482B4ABB10C081E090E007
S1131990062E01C0880F0A94EAF7809597B389232D
S11319A001C0440F6A95EAF7482B47BB81E00895CC
S11319B081E090E0062E01C0880F0A94EAF7809532
S11319C094B3892301C0440F6A95EAF7482B44BBBA
S11319D0EDCF81E090E0062E01C0880F0A94EAF76B
S11319E0809591B3892301C0440F6A95EAF7482B87
S11319F041BBDCCF83E00895843008F051C06830E7
S1131A0008F04EC0423008F04BC0823039F18330C8
S1131A10B1F1813089F081E090E0062E01C0880F99
S1131A200A94EAF780959BB3892301C0440F6A9511
S1131A30EAF7482B4BBB10C081E090E0062E01C0B2
S1131A40880F0A94EAF7809598B3892301C0440F5C
S1131A506A95EAF7482B48BB81E0089581E090E05D
S1131A60062E01C0880F0A94EAF7809595B389235E
S1131A7001C0440F6A95EAF7482B45BBEDCF81E0DE
S1131A8090E0062E01C0880F0A94EAF7809592B37D
S1131A90892301C0440F6A95EAF7482B42BBDCCF87
S1131AA083E00895FA013097D9F08430D8F468308F
S1131AB0C8F4823041F0833089F0813011F089B369
S1131AC003C086B301C083B390E002C095958795A7
S1131AD06A95E2F78170808381E0089580B3F4CF42
S1131AE082E0089583E008958BB780648BBF85B747
S1131AF0836085BF80E00895009731F090932205BC
S1131B008093210581E0089582E008951F920F9249
S1131B100FB60F9211242F933F934F935F936F93BC
S1131B207F938F939F93AF93BF93EF93FF93E09132
S1131B302105F0912205309709F00995FF91EF9165
S1131B40BF91AF919F918F917F916F915F914F91D1
S1131B503F912F910F900FBE0F901F90189587B350
S1131B60806B87BB8DB181658DB908958FB9779BE3
S1131B70FECF8FB108951BB888E18AB986E880BD8D
S1131B8087E689B910BC80E008955D9BFECF8CB9CF
S1131B9080E008955F9BFECF2CB1FC01208380E0A0
S1131BA00895AC0190E0FA01E90FF11D2081222390
S1131BB029F05D9BFECF2CB99F5FF5CF80E008959F
S1131BC0AC0190E05F9BFECFFA01E90FF11D2CB14F
S1131BD020835D9BFECF2CB920812D3021F02A304B
S1131BE011F09F5FEFCF108280E008958BB1881FC2
S1131BF08827881F11F08CB181E00895AA1BBB1BB4
S1131C0051E107C0AA1FBB1FA617B70710F0A61BF8
S1131C10B70B881F991F5A95A9F780959095BC0119
S1131C20CD010895A1E21A2EAA1BBB1BFD010DC014
S1131C30AA1FBB1FEE1FFF1FA217B307E407F50778
S1131C4020F0A21BB30BE40BF50B661F771F881F54
S1131C50991F1A9469F760957095809590959B01EA
S1131C60AC01BD01CF010895EE0FFF1F0590F49163
S1131C70E02D09940E94450EA59F900DB49F900DF0
S1131C80A49F800D911D11240895A29FB001B39FBC
S1131C90C001A39F700D811D1124911DB29F700D71
S10F1CA0811D1124911D0895F894FFCFBC
S1131CAC03030303030405060202020202030405F0
S1131CBC3738392B3435362D3132337863303D2F68
S1131CCC557365726E616D653A0050617373776F0D
S1131CDC72643A000D0A0D0A557365726E616D6576
S1131CEC3A200050617373776F72643A20000D0AC6
S1131CFC456E74657220557365726E616D65205204
S1131D0C6571756972656420746F20626520526513
S1131D1C6D6F7665643A200057656C636F6D652052
S1131D2C546F20536D61727400486F6D65202100EF
S1131D3C466F722046697273742054696D65005540
S1131D4C73650052656769737465722041646D69CB
S1131D5C6E006F6E204B657970616400536176651B
S1131D6C6400505245535320454E54455220544F11
S1131D7C2053544152540D0A00416C6C2044657636
S1131D8C6963657300417265204F666600526F6F1C
S1131D9C6D31204F6E00526F6F6D32204F6E0052BA
S1131DAC6F6F6D33204F6E00526F6F6D34204F6E1A
S1131DBC00446F6F72206973204F70656E65640008
S1131DCC44696D6D65723A20000D0A4C6F67676546
S1131DDC6420696E205375636365737366756C6CEC
S1131DEC79000D0A57656C636F6D652041646D69EC
S1131DFC6E0D0A000D0A4C6F6767656420696E20CE
S1131E0C5375636365737366756C6C790D0A000D99
S1131E1C0A57726F6E6720557365726E616D65201B
S1131E2C6F722050617373776F7264000D0A526580
S1131E3C6D61696E696E6720547269616C733A20C6
S1131E4C000D0A312D526F6F6D31000D0A322D5277
S1131E5C6F6F6D32000D0A332D526F6F6D33000DA1
S1131E6C0A342D526F6F6D34000D0A352D44696D93
S1131E7C6D6572000D0A362D446F6F72000D0A37B2
S1131E8C2D4164642055736572000D0A382D52651A
S1131E9C6D6F766520557365720D0A000D0A5265D7
S1131EAC616368656420546865204D6178204E75C3
S1131EBC6D626572206F662053746F726564205571
S1131ECC73657273000D0A436F756C646E2774200E
S1131EDC53746F72652041204E657720557365727B
S1131EEC000D0A52656D6F766564205375636365E6
S1131EFC737366756C6C790D0A000D0A55736572F3
S1131F0C6E616D65206E6F7420466F756E64200D66
S1131F1C0A52657475726E696E6720746F204D6118
S1131F2C696E204D656E750D0A000D0A496E766159
S1131F3C6C69642043686F6963650D0A000D0A318E
S1131F4C2D52656D6F746564000D0A322D50726FDD
S1131F5C6D6F746564000D0A332D4E6F6E72656D72
S1131F6C6F746564000D0A0D0A5072696F7269749E
S1131F7C7920417272616E676D656E743A2050728D
S1131F8C6F6D6F746564203E204E6F6E72656D6F5D
S1131F9C74656420284C43442B4B65797061642927
S1131FAC203E2052656D6F7465640D0A000D0A5253
S1131FBC65676973746572656420537563636573CF
S1131FCC7366756C6C790D0A000D0A456E74657236
S1131FDC205468652050657263656E746167652072
S1131FEC6F66204272696768746E6573733A200079
S1131FFC0D0A446F6F72204F7074696F6E73200DED
S113200C0A20312D4F70656E20446F6F720D0A20BB
S113201C322D436C6F736520446F6F720D0A203040
S113202C2D52657475726E20746F206D61696E200B
S113203C6D656E750D0A20000D0A496E76616C692A
S113204C642043686F6963650D0A20000D0A312D05
S113205C4C6F67204F75740D0A322D52657475726E
S113206C6E20746F206D61696E206D656E750D0A3E
S113207C000D0A4C6F67676564204F75740D0A0078
S113208C55736572204C6F67696E00417474656D8D
S113209C70742044657465637465640057726F6E64
S11320AC6720557365726E616D65004C6F6767656B
S11320BC6420696E0057656C636F6D65205573659C
S11320CC7200313A526F6F6D3120323A526F6F6D2C
S11320DC3200333A526F6F6D3320343A4D6F726560
S11320EC00496E76616C69642043686F69636500AE
S11320FC313A526F6F6D3420323A44696D6D6572AA
S113210C00303A52657475726E0042726967687475
S113211C6E6573730050657263656E746167653ABE
S113212C00313A4C6F67204F757420323A52657403
S113213C004C6F67676564204F757400596F752088
S113214C61726520426C6F636B65640046726F6DDF
S10F215C205468652053797374656D008D
S9030000FC
