:100000000C942A000C943F000C943F000C943F0089
:100010000C943F000C943F000C943F000C943F0064
:100020000C943F000C943F000C943F000C943F0054
:100030000C943F000C943F000C943F000C943F0044
:100040000C943F000C943F000C943F000C943F0034
:100050000C943F0011241FBECFE5D8E0DEBFCDBF1A
:1000600011E0A0E6B0E0E2E6F3E102C005900D92F7
:10007000AC3EB107D9F70E94C0000C94AF090C94B4
:100080000000CF92DF92EF92FF921F93CF93DF9306
:100090001F92CDB7DEB76C017B010E94480880E754
:1000A00090E00E94070860E081E00E94260810E0CE
:1000B0000DC0CE0101960E94AA0589810E94810788
:1000C000F601E10FF11D898180831F5F143088F3F1
:1000D000F601E10FF11D10820E9448088AE790E0C6
:1000E0000E94070860E081E00E94260810E01AC024
:1000F000CE0101960E94AA0589810E94810787EAA4
:1001000091E60197F1F700C00000612F81E00E94A5
:1001100026088AE20E948107F701E10FF11D89811B
:1001200080831F5F143020F3F701E10FF11D10826F
:1001300081E00F90DF91CF911F91FF90EF90DF90C2
:10014000CF900895DC0140E005C0992379F0222387
:1001500069F04F5F242F30E0FD01E20FF31F908123
:10016000FB01E20FF31F2081921779F3911104C074
:10017000222321F080E0089580E0089581E0089531
:10018000CF93DF93CDB7DEB7C454D1090FB6F8943F
:10019000DEBF0FBECDBF0E9455080E9486090E9497
:1001A00024070E945805789419AEBE016F5F7F4FF7
:1001B00080E00E94FB042FEF32E587E021503040C1
:1001C0008040E1F700C0000084E890E00E9407084A
:1001D00060E081E00E94260885E990E00E9407081F
:1001E0009FEF27EA31E6915020403040E1F700C010
:1001F00000000E94480889818F3F09F08FC069ADD7
:1002000081E190E00E941F058FEF92E527E0815089
:1002100090402040E1F700C000008CE990E00E948F
:10022000070860E081E00E9426088BEA90E00E94C7
:1002300007083FEF87EA91E6315080409040E1F7B0
:1002400000C000000E9448088FEA90E00E94070862
:1002500060E081E00E9426088EEB90E00E94070893
:100260002FEF37EA81E6215030408040E1F700C0AF
:100270000000BE01695F7F4FCE0102960E944100DF
:1002800081E08C8744E050E0BE016E5F7F4F81E0EB
:1002900090E00E9431059FEF23EC39E0915020401F
:1002A0003040E1F700C0000044E050E0BE01695F6B
:1002B0007F4F85E090E00E9431058FEF93EC29E0BD
:1002C000815090402040E1F700C0000060E080E0F5
:1002D00090E00E941F053FEF82E597E0315080409B
:1002E0009040E1F700C000000E94480888EC90E0D0
:1002F0000E94070860E081E00E9426088EEC90E0F2
:100300000E9407082FEF33ED80E3215030408040FA
:10031000E1F700C0000087E08983AAC08111A8C06E
:10032000BE01675C7F4F81E10E94FB049FEF23ECDD
:1003300039E0915020403040E1F700C0000044E037
:1003400050E0BE016E5F7F4F81E090E00E940605A5
:100350001E828FEF92E527E0815090402040E1F728
:1003600000C0000044E050E0BE01695F7F4F85E0BF
:1003700090E00E9406051B863FEF82E597E0315032
:1003800080409040E1F700C0000081E08C872FEFB3
:1003900032E587E0215030408040E1F700C00000A6
:1003A000D12C60C08D2D90E07C01EE0CFF1CEE0C7A
:1003B000FF1CEE0CFF1CE80EF91E570122E1A20EF5
:1003C000B11C2BE0289F8001299F100D11246DE0A6
:1003D00070E06C0F7D1F600F711F44E050E0C5019D
:1003E0000E9406053FEF82E597E031508040904043
:1003F000E1F700C00000B8016B5F7F4F2DE030E0F7
:100400002C0F3D1F620F731F44E050E0C70146965A
:100410000E9406053FEF82E597E031508040904012
:10042000E1F700C00000B801665F7F4F2DE030E0CB
:100430002C0F3D1F620F731F88E08A0D0E94FB0482
:100440003FEF82E597E0315080409040E1F700C0F7
:100450000000E1E0F0E0EC0FFD1FE00FF11F108A5B
:10046000158AD39489ADD81608F49CCF87E0898388
:100470008981873081F50E9448088BED90E00E94C9
:10048000070860E081E00E94260887EE90E00E9465
:100490000708CE018C5B9F4F0E94AA0525968FAD61
:1004A0002597813319F0823321F006C082E08983D9
:1004B00012C083E089830FC00E94480887EF90E054
:1004C0000E9407082FEF33EC89E021503040804034
:1004D000E1F700C000008981823009F06AC0BE01E6
:1004E000615C7F4FCE01CA960E944100BE016E5FE3
:1004F0007F4FCE01CA960E94A200882359F0BE0108
:10050000695F7F4FCE01CF960E94A200882321F021
:1005100081E003C080E001C080E0811131C00E9411
:10052000480886E091E00E94070860E081E00E94B0
:10053000260885E191E00E9407089FEF23ED30E354
:10054000915020403040E1F700C000000E94480870
:1005500081E291E00E94070860E081E00E942608A5
:1005600062E070E080E090E00E948E078FEF93EDF4
:1005700020E3815090402040E1F700C0000019C006
:100580000E94480884E391E00E94070860E081E04F
:100590000E9426088EEC90E00E9407083FEF8DE253
:1005A00092E2315080409040E1F700C0000084E0CA
:1005B00089838981843009F049C10E9448088EE30B
:1005C00091E00E94070860E081E00E942608CE01C9
:1005D00002960E9407082FEF39E688E1215030404B
:1005E0008040E1F700C000000E9448088DE491E0DF
:1005F0000E94070860E081E00E9426088CE591E0F7
:100600000E940708CE018C5B9F4F0E94AA05259689
:100610008FAD2597823309F419C1833309F4DEC005
:10062000813309F004C189AD843008F0CAC02BE0E1
:10063000829FC0011124BC016B5F7F4F2DE030E031
:100640002C0F3D1F620F731F820F931F0E944100EA
:100650000E9448088CE691E00E94070860E081E073
:100660000E94260886E791E00E940708CE018C5B75
:100670009F4F0E94AA0525968FAD2597813319F0CB
:10068000823371F018C089ADE1E0F0E0EC0FFD1F9E
:100690003BE0839FE00DF11D112482E0868B0BC0AF
:1006A00089ADE1E0F0E0EC0FFD1F9BE0899FE00DDC
:1006B000F11D1124168A89AD90E01BE0189FB0014E
:1006C000199F700D11242DE030E02C0F3D1F620F9B
:1006D000731F9C01220F331F220F331F220F331F62
:1006E000820F931F44E050E042960E9431058FE351
:1006F0009CE90197F1F700C0000089AD90E0189FD8
:10070000B001199F700D11246B5F7F4F2DE030E019
:100710002C0F3D1F620F731F9C01220F331F220FEE
:10072000331F220F331F820F931F44E050E0469681
:100730000E9431058FE39CE90197F1F700C00000AA
:100740001E821B8629AD30E0C901880F991F880FD2
:10075000991F880F991F820F931F129FF001139FFB
:10076000F00D112421E030E02C0F3D1FE20FF31FAC
:1007700066894A960E941F058FE39CE90197F1F76D
:1007800000C0000069AD6F5F69AF81E190E00E9439
:100790001F050E94480883E891E00E94070860E076
:1007A00081E00E9426088EEC90E00E9407089FEFEF
:1007B0002DE232E2915020403040E1F700C00000CD
:1007C00045C08EE891E00E94070860E081E00E9449
:1007D000260888E991E00E94070838C00E9448086E
:1007E00083EA91E00E94070860E081E00E94260809
:1007F00082EB91E00E940708CE018C5B9F4F0E9424
:10080000AA0525968FAD259784538230F8F00E9473
:10081000480887EF90E00E9407088FEF93EC29E0EB
:10082000815090402040E1F700C000000FC00E94BE
:10083000480887EF90E00E9407083FEF83EC99E0BB
:10084000315080409040E1F700C000008981833042
:1008500009F08BC0BE01615C7F4FCE01CA960E9439
:10086000410010E033C0E12EF12C2BE02E9DC001A1
:100870002F9D900D1124BE01665C7F4F2DE030E06E
:100880002C0F3D1F820F931F0E94A2008823B1F0FE
:100890002BE02E9DC0012F9D900D11240596BE01C9
:1008A000615C7F4F2DE030E02C0F3D1F820F931FC6
:1008B0000E94A200882321F081E003C080E001C0F3
:1008C00080E0C82E31E0831721F01F5F89AD181733
:1008D00050F2C11031C00E94480886E091E00E94A9
:1008E000070860E081E00E94260885E191E00E940F
:1008F00007088FEF92E527E0815090402040E1F714
:1009000000C000000E94480881E291E00E940708B0
:1009100060E081E00E94260862E070E080E090E004
:100920000E948E073FEF82E597E031508040904073
:10093000E1F700C0000019C00E94480884E391E07C
:100940000E94070860E081E00E9426088EEC90E09B
:100950000E9407082FEF3DE282E2215030408040A4
:10096000E1F700C0000085E089838981853009F0C6
:1009700042CC0E94480882EC91E00E94070860E0A7
:1009800081E00E942608CE0102960E9407089FEF90
:1009900029E638E1915020403040E1F700C00000E6
:1009A0000E9448088FEC91E00E94070860E081E017
:1009B0000E94260881EE91E00E940708CE018C5B20
:1009C0009F4F0E94AA0525968FAD259781538330AE
:1009D00078F00E94480887EF90E00E9407088FEFA8
:1009E00093EC29E0815090402040E1F700C00000E6
:1009F00087E0898300CCE199FECF9FBB8EBB8CB38F
:100A000081608CBB8DB3FB0180830895DC01E1998B
:100A1000FECF20E030E00FC0F901EA0FFB1FFFBB63
:100A2000EEBB9CB391609CBBFB01E20FF31F9DB337
:100A300090832F5F3F4F2417350770F30895E19996
:100A4000FECF9FBB8EBB8CB381608CBB8DB38617F2
:100A500039F06DBB8CB384608CBB8CB382608CBB73
:100A60000895CF93DF93DC01EA0120E030E01AC063
:100A7000E199FECFC9018A0F9B1F9FBB8EBB9CB320
:100A800091609CBB5DB3FB01E20FF31F908159178E
:100A900039F09DBB9CB394609CBB9CB392609CBBA3
:100AA0002F5F3F4F2C173D0718F3DF91CF9108952B
:100AB00041E063E083E00E945B0841E064E083E0A2
:100AC0000E945B0841E065E083E00E945B0841E032
:100AD00066E083E00E945B0840E062E082E00E9402
:100AE0005B0840E063E082E00E945B0840E064E075
:100AF00082E00E945B0840E065E082E00E945B08C3
:100B000041E063E083E00E94CD0841E064E083E0DF
:100B10000E94CD0841E065E083E00E94CD0841E0FD
:100B200066E083E00E94CD0841E062E082E00E943E
:100B3000CD0841E063E082E00E94CD0841E064E03E
:100B400082E00E94CD0841E065E082E00E94CD088D
:100B500080E008956F927F928F929F92AF92BF92A2
:100B6000CF92DF92EF92FF920F931F93CF93DF9379
:100B7000CDB7DEB7A1970FB6F894DEBF0FBECDBFDD
:100B80005C0183E089838A838B838C838D8334E04B
:100B90003E8325E02F8396E0988792E099879A8795
:100BA0009B879C879D878E873F87288B8FEFF501DA
:100BB000808377C0C82CD12CE5E0F0E0EC0FFD1F5E
:100BC000EC0DFD1D6080E1E0F0E0EC0FFD1FEC0D91
:100BD000FD1D708040E0662D872D0E94CD0810E03D
:100BE00051C0E12EF12CEDE0F0E0EC0FFD1FEE0D19
:100BF000FF1D0081E9E0F0E0EC0FFD1FEE0DFF1D91
:100C00009080AE014F5E5F4F602F892D0E943F099B
:100C10008989811136C083EC99E00197F1F700C012
:100C20000000AE014F5E5F4F602F892D0E943F098B
:100C30008989811126C007C0AE014F5E5F4F602FCA
:100C4000892D0E943F0989898823B1F380E1E0E67C
:100C5000F0E0DE01529601900D928A95E1F7EE0CDC
:100C6000FF1CEE0CFF1CE1E0F0E0EC0FFD1FEE0EB0
:100C7000FF1EF701EC0DFD1D8189F501808381E0E8
:100C800015C01F5F143008F4ACCF41E0662D872DEE
:100C90000E94CD08839401C0812CF3E0F81508F080
:100CA00089CFF50180818F3FB9F380E0A1960FB61F
:100CB000F894DEBF0FBECDBFDF91CF911F910F9192
:100CC000FF90EF90DF90CF90BF90AF909F908F906C
:100CD0007F906F9008951F93CF93DF931F92CDB7AE
:100CE000DEB7182F40E063E081E00E94CD0840E0CD
:100CF00062E081E00E94CD081832E1F5AE014F5F5D
:100D00005F4F61E081E00E943F098981811132C01B
:100D1000412F441F4427441F67E00E94CD0816FB63
:100D2000442740F966E080E00E94CD0815FB442787
:100D300040F965E080E00E94CD0814FB442740F9AB
:100D400064E080E00E94CD0841E063E081E00E9421
:100D5000CD0881EE94E00197F1F700C0000040E07B
:100D600063E081E00E94CD0883ED90E30197F1F705
:100D700000C00000412F441F4427441F67E080E06B
:100D80000E94CD0816FB442740F966E080E00E94EF
:100D9000CD0815FB442740F965E080E00E94CD08AE
:100DA00014FB442740F964E080E00E94CD0841E054
:100DB00063E081E00E94CD0881EE94E00197F1F7B5
:100DC00000C0000040E063E081E00E94CD0883EDB8
:100DD00090E30197F1F700C0000013FB442740F9AE
:100DE00067E080E00E94CD0812FB442740F966E0EE
:100DF00080E00E94CD0811FB442740F965E080E0C7
:100E00000E94CD08412F417064E080E00E94CD082F
:100E100041E063E081E00E94CD0881EE94E001971B
:100E2000F1F700C0000040E063E081E00E94CD08DF
:100E300083ED90E30197F1F700C0000080E00F9090
:100E4000DF91CF911F91089541E061E081E00E9420
:100E50005B0841E062E081E00E945B0841E063E002
:100E600081E00E945B0841E067E080E00E945B084F
:100E700041E066E080E00E945B0841E065E080E0E0
:100E80000E945B0841E064E080E00E945B088DE224
:100E900092E20197F1F700C0000040E061E081E0DC
:100EA0000E94CD0888E20E946B0689EF90E00197CE
:100EB000F1F700C0000040E061E081E00E94CD0851
:100EC0008FE00E946B0689EF90E00197F1F700C078
:100ED000000040E061E081E00E94CD0881E00E94D6
:100EE0006B0683EF91E00197F1F700C0000040E04E
:100EF00061E081E00E94CD0886E00E946B0680E000
:100F00000895CF93C82F41E061E081E00E94CD08B1
:100F10008C2F0E946B0680E0CF910895AF92BF9214
:100F2000CF92DF92EF92FF920F931F93CF93DF93B5
:100F3000611571058105910561F541E061E081E090
:100F40000E94CD0880E30E946B06A12C54C02AE0C9
:100F500030E040E050E00E948D09CC0CDD1CEE1C1E
:100F6000FF1CD701C601880F991FAA1FBB1F880F3E
:100F7000991FAA1FBB1FC80ED91EEA1EFB1EC60E54
:100F8000D11CE11CF11CCF5F622F732F842F952F92
:100F900004C0C0E0C12CD12C76016115710581051A
:100FA0009105A9F6A12C1BC041E061E081E00E94FF
:100FB000CD08C701B6012AE030E040E050E00E94D1
:100FC0008D09B22E032F142FD52F80E3860F0E9498
:100FD0006B06A82ECB2CD02EE12EFD2EC150C114B5
:100FE000D104E104F10401F704C080E30E946B0620
:100FF000C150C111FACF8A2DDF91CF911F910F916E
:10100000FF90EF90DF90CF90BF90AF9008950F9337
:101010001F93CF93DF93EC01892B79F482E011C009
:1010200041E061E081E00E94CD088E010F5F1F4F1B
:1010300088810E946B06E80101C080E098819111CF
:10104000EFCFDF91CF911F910F9108951F93CF9311
:10105000DF938230A8F46031A8F4162FC82F40E047
:1010600061E081E00E94CD08D82F8C2F90E002969D
:1010700020E4829F100D1124812F0E946B0603C073
:10108000D0E001C0D0E08D2FDF91CF911F91089566
:10109000CF9340E061E081E00E94CD08C82F81E05D
:1010A0000E946B068C2FCF91089581EB8ABB86E15D
:1010B0008BBB80E00895843008F067C0683008F08A
:1010C00066C0423008F065C08130E9F030F082300F
:1010D00081F1833009F443C05EC081E090E0062EC8
:1010E00002C0880F991F0A94E2F780952AB328233B
:1010F000842F90E002C0880F991F6A95E2F7822B37
:101100008ABB81E0089521E030E0062E02C0220F64
:10111000331F0A94E2F7209587B32823842F90E0A9
:1011200002C0880F991F6A95E2F7822B87BB81E086
:10113000089521E030E0062E02C0220F331F0A94EA
:10114000E2F7209584B32823842F90E002C0880F13
:10115000991F6A95E2F7822B84BB81E0089521E014
:1011600030E0062E02C0220F331F0A94E2F72095CA
:1011700081B32823842F90E002C0880F991F6A95BD
:10118000E2F7822B81BB81E0089583E0089583E03C
:10119000089583E0089581E00895843008F067C0E1
:1011A000683008F066C0423008F065C08130E9F070
:1011B00030F0823081F1833009F443C05EC081E0B9
:1011C00090E0062E02C0880F991F0A94E2F78095DE
:1011D0002BB32823842F90E002C0880F991F6A95B3
:1011E000E2F7822B8BBB81E0089521E030E0062EF0
:1011F00002C0220F331F0A94E2F7209588B32823F8
:10120000842F90E002C0880F991F6A95E2F7822B25
:1012100088BB81E0089521E030E0062E02C0220F55
:10122000331F0A94E2F7209585B32823842F90E09A
:1012300002C0880F991F6A95E2F7822B85BB81E077
:10124000089521E030E0062E02C0220F331F0A94D9
:10125000E2F7209582B32823842F90E002C0880F04
:10126000991F6A95E2F7822B82BB81E0089583E0A3
:10127000089583E0089583E0089581E0089541157D
:101280005105E1F18430E0F56830E0F5813091F00E
:1012900028F08230D9F0833029F136C089B390E04C
:1012A00002C0959587956A95E2F78170FA0180836F
:1012B00081E0089586B390E002C0959587956A9580
:1012C000E2F78170FA01808381E0089583B390E0B2
:1012D00002C0959587956A95E2F78170FA0180833F
:1012E00081E0089580B390E002C0959587956A9556
:1012F000E2F78170FA01808381E0089582E0089529
:1013000083E0089583E0089581E0089587B3806BBA
:1013100087BB8DB181658DB90895A1E21A2EAA1BF4
:10132000BB1BFD010DC0AA1FBB1FEE1FFF1FA21795
:10133000B307E407F50720F0A21BB30BE40BF50B92
:10134000661F771F881F991F1A9469F7609570951B
:10135000809590959B01AC01BD01CF010895F89453
:02136000FFCFBD
:101362003738392B3435362D3132337863303D2FCF
:10137200557365726E616D653A0050617373776F74
:1013820072643A0057656C636F6D6520546F205329
:101392006D61727400486F6D65202100466F722086
:1013A20046697273742054696D6500557365005205
:1013B200656769737465722041646D696E006F6E52
:1013C200204B6579706164005361766564005375E2
:1013D200636365737366756C6C790043686F6F73D2
:1013E20065206D6F646500312D41646D696E20204A
:1013F200322D5573657200496E76616C69642043C3
:10140200686F6963650057726F6E67205573657206
:101412006E616D65006F722050617373776F7264D5
:101422000052656D61696E696E6720547269616C04
:10143200733A20004C6F6767656420696E005765D8
:101442006C636F6D652041646D696E3A00312D5297
:101452006567697374726174696F6E00322D4C69CD
:101462006768747320332D4D6F726500312D52659C
:101472006D6F74656400322D4E6F6E72656D6F74A0
:1014820065640052656769737465726564004D61D5
:1014920078204C696D6974006973205265616368D4
:1014A200656400342D50726F6D6F746520557365DD
:1014B2007200352D44696D6D657220362D446F6F53
:1014C200720057656C636F6D6520557365720031EC
:1014D2002D4C696768747320322D44696D6D657295
:0C14E20000332D41697220436F6E6400DE
:00000001FF
