S01100004156524D61737465722E73726563BE
S11300000C9433000C9450000C9450000C94500049
S11300100C9450000C9450000C9450000C9450001C
S11300200C9450000C9450000C9450000C9450000C
S11300300C9450000C9450000C9450000C945000FC
S11300400C9450000C9450000C9450000C945000EC
S11300500C945000C404F104C604CB04D004D504A9
S1130060DA04DF04E10411241FBECFE5D8E0DEBFCB
S1130070CDBF13E0A0E6B0E0E8E2F7E102C00590EE
S11300800D92AA39B107D9F723E0AAE9B3E001C078
S11300901D92AB39B207E1F70E941B020C94920B3C
S11300A00C940000CF92DF92EF92FF920F931F9374
S11300B0CF93DF93CDB7DEB72B970FB6F894DEBF9F
S11300C00FBECDBFE982FA820B831C832D833E834E
S11300D04F83588769877A878B87F601808190E000
S11300E09C01220F331F220F331F220F331F820F55
S11300F0931F44E050E0BE016F5F7F4F42960E9421
S1130100C40683ED90E30197F1F700C00000F60107
S1130110808190E09C01220F331F220F331F220F96
S1130120331F820F931F44E050E0BE016A5F7F4F8C
S113013046960E94C40683ED90E30197F1F700C050
S113014000006B85F601808190E09C01220F331F33
S1130150220F331F220F331F820F931F70E04A9622
S11301600E94B20683ED90E30197F1F700C000000E
S1130170F60160816F5F608370E081E190E00E942E
S1130180B2062B960FB6F894DEBF0FBECDBFDF913B
S1130190CF911F910F91FF90EF90DF90CF90089532
S11301A0CF92DF92EF92FF921F93CF93DF931F9230
S11301B0CDB7DEB76C017B010E94DB0980E790E0DC
S11301C00E949A0960E081E00E94B90910E00DC024
S11301D0CE0101960E943D0789810E941409F6010F
S11301E0E10FF11D898180831F5F143088F3F601CC
S11301F014820E94DB098AE790E00E949A0960E079
S113020081E00E94B90910E01AC0CE0101960E9453
S11302103D0789810E94140987EA91E60197F1F765
S113022000C00000612F81E00E94B9098AE20E94A7
S11302301409F701E10FF11D898180831F5F1430D8
S113024020F3F701148281E00F90DF91CF911F9189
S1130250FF90EF90DF90CF9008950F931F93CF936B
S1130260DF938C01EB0184E890E00E943B0BC80112
S11302700E944F0BF801148283E990E00E943B0B2B
S1130280CE010E944F0B1C8281E0DF91CF911F9120
S11302900F910895DC0140E005C0992379F02223F1
S11302A069F04F5F242F30E0FD01E20FF31F9081CE
S11302B0FB01E20FF31F2081921779F3911104C01F
S11302C0222321F080E0089580E0089581E00895DC
S11302D08F929F92AF92BF92CF92DF92EF92FF9252
S11302E00F931F93CF93DF9300D000D01F92CDB70D
S11302F0DEB76C017B018EE990E00E943B0BCE01DE
S113030001960E944F0B1D8200E07DC046018BE0E8
S1130310089F800C911C1124BE016F5F7F4FC401A4
S11303200E944A01B82E882309F46CC00F2EFBE00A
S1130330AF2EF02DA19EF00111243B97EC0DFD1D75
S11303408BE0D40101900D928A95E1F7F701608169
S1130350A69EB00111246B5071096C0D7D1D802F78
S113036090E08C01000F111F000F111F000F111FCF
S1130370080F191F44E050E0C80142960E94C406C9
S113038083ED90E30197F1F700C00000F70160816D
S1130390A69EB00111246B5071096C0D7D1D6B5F1D
S11303A07F4F44E050E0C80146960E94C40683EDA6
S11303B090E30197F1F700C00000F7018081A89E47
S11303C0C00111240B97F601E80FF91F628570E054
S11303D0C8014A960E94B20683ED90E30197F1F7B3
S11303E000C00000F70160816150608370E081E12A
S11303F090E00E94B20683ED90E30197F1F700C00C
S1130400000006C00F5FF7011081011708F47ECFCA
S11304108B2D0F900F900F900F900F90DF91CF9135
S11304201F910F91FF90EF90DF90CF90BF90AF900E
S11304309F908F900895CF93DF93CDB7DEB7C554C7
S1130440D1090FB6F894DEBF0FBECDBF0E94E809F4
S11304500E94190B0E94250B0E94B7080E94EB060C
S113046041E061E083E00E94EE09789419AEBE0198
S11304706F5F7F4F80E00E948E062FEF32E587E0AA
S1130480215030408040E1F700C0000088EC90E04B
S11304900E949A0960E081E00E94B90989ED90E028
S11304A00E949A099FEF27EA31E69150204030409C
S11304B0E1F700C000000E94DB0989818F3F09F049
S11304C091C069AD81E190E00E94B2068FEF92E5A0
S11304D027E0815090402040E1F700C0000080EE0A
S11304E090E00E949A0960E081E00E94B9098FEED1
S11304F090E00E949A093FEF87EA91E631508040EC
S11305009040E1F700C000000E94DB0983EF90E017
S11305100E949A0960E081E00E94B90982E091E0BA
S11305200E949A092FEF37EA81E62150304080403B
S1130530E1F700C00000BE01695F7F4FCE01029663
S11305400E94D00081E08C8744E050E0BE016E5FE1
S11305507F4F81E090E00E94C4069FEF23EC39E0D6
S1130560915020403040E1F700C0000044E050E0EA
S1130570BE01695F7F4F85E090E00E94C4068FEF63
S113058093EC29E0815090402040E1F700C0000046
S113059060E080E090E00E94B2063FEF82E597E0E1
S11305A0315080409040E1F700C000000E94DB0918
S11305B08CE091E00E949A0960E081E00E94B90910
S11305C089E491E00E949A092FEF33ED80E32150F2
S11305D030408040E1F700C000000E94DB0987E062
S11305E08983AAC08111A8C0BE01675C7F4F81E1E5
S11305F00E948E069FEF23EC39E09150204030405A
S1130600E1F700C0000044E050E0BE016E5F7F4FA0
S113061081E090E00E9499061E828FEF92E527E028
S1130620815090402040E1F700C0000044E050E0D9
S1130630BE01695F7F4F85E090E00E9499061B86AA
S11306403FEF82E597E0315080409040E1F700C0F1
S1130650000081E08C872FEF32E587E021503040A5
S11306608040E1F700C00000F12C60C08F2D90E0C5
S11306706C01CC0CDD1CCC0CDD1CCC0CDD1CC80EC0
S1130680D91E360122E1620E711C2BE0289F8001E5
S1130690299F100D11246DE070E06C0F7D1F600F19
S11306A0711F44E050E0C3010E9499063FEF82E5C8
S11306B097E0315080409040E1F700C00000B8015D
S11306C06B5F7F4F2DE030E02C0F3D1F620F731FD7
S11306D044E050E0C60146960E9499063FEF82E549
S11306E097E0315080409040E1F700C00000B8012D
S11306F0665F7F4F2DE030E02C0F3D1F620F731FAC
S113070088E0860D0E948E063FEF82E597E0315027
S113071080409040E1F700C00000E1E0F0E0EC0F21
S1130720FD1FE00FF11F108A158AF39489ADF816A6
S113073008F49CCF87E089830F2EF3E0AF2EF02DD1
S113074082E191E00E943B0B16C089E291E00E9495
S11307509A0960E081E00E94B90985E391E00E9472
S11307609A0980E090E00E94340B0E94650B882374
S113077011F082E089838981873039F3C9C0BE01D1
S1130780615C7F4FCE01CA960E942D01BE016E5F4F
S11307907F4FCE01CA960E944A01882359F0BE01B8
S11307A0695F7F4FCE01CF960E944A01882321F0D2
S11307B001E003C000E001C000E0013009F078C0AE
S11307C08DE391E00E943B0B2FEF39E688E1215045
S11307D030408040E1F700C0000086E591E00E94CF
S11307E03B0B9FEF29E638E1915020403040E1F780
S11307F000C0000084E089830F2EF3E0AF2EF02DBB
S11308005CC0E12EF12C2BE02E9DC0012F9D900D9C
S11308101124BE01665C7F4F2DE030E02C0F3D1F9C
S1130820820F931F0E944A018823B1F02BE02E9D72
S1130830C0012F9D900D11240596BE01615C7F4F70
S11308402DE030E02C0F3D1F820F931F0E944A01C0
S1130850882321F081E003C080E001C080E0B82E4D
S113086031E0831323C08BE08E9DF0018F9DF00D4A
S1130870112481E090E08C0F9D1FE80FF91F8689F9
S11308808230A1F488E691E00E943B0B9FEF29E6B9
S113089038E1915020403040E1F700C0000088E08A
S11308A089830F2EF3E0AF2EF02D07C01F5F01C028
S11308B010E089AD181708F4A4CF011129C0B110B4
S11308C027C01FEF1A0D83E891E00E943B0B8FEFC6
S11308D095EA2EE0815090402040E1F700C00000EE
S11308E080EA91E00E943B0B8FE28A0D0E942F0B5D
S11308F03FEF83ED90E3315080409040E1F700C03A
S11309000000111104C086E08983A12E01C0A12E2C
S11309108981823009F433CF29C185EB91E00E94AB
S11309203B0B82EC91E00E943B0B82ED91E00E9434
S11309303B0B8CED91E00E943B0B86EE91E00E9414
S11309403B0B80EF91E00E943B0B8AEF91E00E9409
S11309503B0B84E092E00E943B0B8FE092E00E940C
S11309603B0BCE018B5B9F4F0E94340B2696EFAD61
S113097026978E2F90E0FC01F197E930F10518F5E8
S1130980E65DFF4F0C948C0B16E02EC081E00E94B4
S1130990200B1BE029C082E00E94200B1BE024C036
S11309A083E00E94200B1BE01FC084E00E94200B08
S11309B01BE01AC085E00E94200B1BE015C018E064
S11309C013C01AE011C08AE192E00E943B0B2FEFA2
S11309D033ED80E3215030408040E1F700C0000057
S11309E003C017E001C010E0112309F496CF1630BC
S11309F021F0173009F49FC0B9C089AD843008F0E4
S1130A0084C02BE0829FC0011124BC016B5F7F4F27
S1130A102DE030E02C0F3D1F620F731F820F931FD8
S1130A200E942D018DE292E00E943B0B89E392E04B
S1130A300E943B0B86E492E00E943B0B85E592E02A
S1130A400E943B0BCE018B5B9F4F0E94340B26967A
S1130A508FAD2697813369F489ADE1E0F0E0EC0FC6
S1130A60FD1F3BE0839FE00DF11D112482E0868B86
S1130A702AC0823369F489ADE1E0F0E0EC0FFD1F98
S1130A809BE0899FE00DF11D112483E0868B1BC040
S1130A90833361F489ADE1E0F0E0EC0FFD1F2BE05E
S1130AA0829FE00DF11D1124168A0DC08AE192E0A7
S1130AB00E943B0B3FEF83ED90E331508040904028
S1130AC0E1F700C0000089ADA1E0B0E0AC0FBD1FAC
S1130AD02BE0829FA00DB11D1124FD013C96CE0197
S1130AE0C9966C011C96EC90F180028113812481DB
S1130AF03581468157816085718582850E945200C7
S1130B008DE992E00E943B0B31C089EB92E00E9498
S1130B103B0B82EE92E00E943B0B8CE293E00E943E
S1130B203B0B9FEF2DE232E2915020403040E1F741
S1130B3000C000001BC0BE01675C7F4FCE010D9654
S1130B400E946801813029F48EEF92E00E943B0BF1
S1130B5004C087E193E00E943B0B8FEF9DE222E209
S1130B60815090402040E1F700C00000898184302A
S1130B7009F439CF833009F08BC0BE01615C7F4F2B
S1130B80CE01CA960E94D00010E033C0E12EF12CB1
S1130B902BE02E9DC0012F9D900D1124BE01665C9B
S1130BA07F4F2DE030E02C0F3D1F820F931F0E94DA
S1130BB04A018823B1F02BE02E9DC0012F9D900D9A
S1130BC011240596BE01615C7F4F2DE030E02C0FAF
S1130BD03D1F820F931F0E944A01882321F081E068
S1130BE003C080E001C080E0982E31E0831721F03B
S1130BF01F5F89AD181750F2911031C00E94DB09B4
S1130C0087E493E00E949A0960E081E00E94B909B8
S1130C1084E991E00E949A098FEF92E527E08150E0
S1130C2090402040E1F700C000000E94DB0982EA06
S1130C3091E00E949A0960E081E00E94B90962E0B3
S1130C4070E080E090E00E9421093FEF82E597E0A8
S1130C50315080409040E1F700C0000019C00E946C
S1130C60DB0986E593E00E949A0960E081E00E9436
S1130C70B90989E491E00E949A092FEF3DE282E2EA
S1130C80215030408040E1F700C0000085E08983B6
S1130C908981853009F054CD0E94DB0980E693E018
S1130CA00E949A0960E081E00E94B909CE0102968F
S1130CB00E949A099FEF29E638E191502040304084
S1130CC0E1F700C000000E94DB098DE693E00E947A
S1130CD09A0960E081E00E94B9098FE793E00E94DD
S1130CE09A09CE018C5B9F4F0E943D0725968FADDC
S1130CF025978153833078F00E94DB098AE893E0DA
S1130D000E949A098FEF93EC29E081509040204093
S1130D10E1F700C0000087E0898312CDE199FECF9E
S1130D209FBB8EBB8CB381608CBB8DB3FB01808376
S1130D300895DC01E199FECF20E030E00FC0F90115
S1130D40EA0FFB1FFFBBEEBB9CB391609CBBFB0196
S1130D50E20FF31F9DB390832F5F3F4F2417350796
S1130D6070F30895E199FECF9FBB8EBB8CB3816075
S1130D708CBB8DB3861739F06DBB8CB384608CBB90
S1130D808CB382608CBB0895CF93DF93DC01EA01BE
S1130D9020E030E01AC0E199FECFC9018A0F9B1F01
S1130DA09FBB8EBB9CB391609CBB5DB3FB01E20F08
S1130DB0F31F9081591739F09DBB9CB394609CBB81
S1130DC09CB392609CBB2F5F3F4F2C173D0718F3D9
S1130DD0DF91CF91089541E063E083E00E94EE0942
S1130DE041E064E083E00E94EE0941E065E083E0D5
S1130DF00E94EE0941E066E083E00E94EE0940E0D3
S1130E0062E082E00E94EE0940E063E082E00E943A
S1130E10EE0940E064E082E00E94EE0940E065E013
S1130E2082E00E94EE0941E063E083E00E94600AF0
S1130E3041E064E083E00E94600A41E065E083E011
S1130E400E94600A41E066E083E00E94600A41E09B
S1130E5062E082E00E94600A41E063E082E00E9476
S1130E60600A41E064E082E00E94600A41E065E0DB
S1130E7082E00E94600A80E008956F927F928F92D0
S1130E809F92AF92BF92CF92DF92EF92FF920F9315
S1130E901F93CF93DF93CDB7DEB7A1970FB6F89426
S1130EA0DEBF0FBECDBF5C0183E089838A838B8361
S1130EB08C838D8334E03E8325E02F8396E09887EE
S1130EC092E099879A879B879C879D878E873F8727
S1130ED0288B8FEFF501808377C0C82CD12CE5E0F7
S1130EE0F0E0EC0FFD1FEC0DFD1D6080E1E0F0E093
S1130EF0EC0FFD1FEC0DFD1D708040E0662D872D6D
S1130F000E94600A10E051C0E12EF12CEDE0F0E007
S1130F10EC0FFD1FEE0DFF1D0081E9E0F0E0EC0F8A
S1130F20FD1FEE0DFF1D9080AE014F5E5F4F602FE1
S1130F30892D0E94D20A8989811136C083EC99E0F7
S1130F400197F1F700C00000AE014F5E5F4F602FC4
S1130F50892D0E94D20A8989811126C007C0AE0159
S1130F604F5E5F4F602F892D0E94D20A89898823A2
S1130F70B1F380E1E0E6F0E0DE01529601900D92DB
S1130F808A95E1F7EE0CFF1CEE0CFF1CE1E0F0E0AB
S1130F90EC0FFD1FEE0EFF1EF701EC0DFD1D818908
S1130FA0F501808381E015C01F5F143008F4ACCFD5
S1130FB041E0662D872D0E94600A839401C0812C34
S1130FC0F3E0F81508F089CFF50180818F3FB9F37C
S1130FD080E0A1960FB6F894DEBF0FBECDBFDF91BF
S1130FE0CF911F910F91FF90EF90DF90CF90BF9022
S1130FF0AF909F908F907F906F9008951F93CF93A1
S1131000DF931F92CDB7DEB7182F40E063E081E095
S11310100E94600A40E062E081E00E94600A1832A7
S1131020E1F5AE014F5F5F4F61E081E00E94D20ABB
S11310308981811132C0412F441F4427441F67E036
S11310400E94600A16FB442740F966E080E00E9493
S1131050600A15FB442740F965E080E00E94600ABD
S113106014FB442740F964E080E00E94600A41E0F8
S113107063E081E00E94600A81EE94E00197F1F759
S113108000C0000040E063E081E00E94600A83ED5C
S113109090E30197F1F700C00000412F441F44275B
S11310A0441F67E080E00E94600A16FB442740F971
S11310B066E080E00E94600A15FB442740F965E081
S11310C080E00E94600A14FB442740F964E080E059
S11310D00E94600A41E063E081E00E94600A81EEC0
S11310E094E00197F1F700C0000040E063E081E084
S11310F00E94600A83ED90E30197F1F700C00000BD
S113110013FB442740F967E080E00E94600A12FB69
S1131110442740F966E080E00E94600A11FB4427FE
S113112040F965E080E00E94600A412F417064E06C
S113113080E00E94600A41E063E081E00E94600A6E
S113114081EE94E00197F1F700C0000040E063E015
S113115081E00E94600A83ED90E30197F1F700C0FB
S1131160000080E00F90DF91CF911F91089541E03E
S113117061E081E00E94EE0941E062E081E00E94CA
S1131180EE0941E063E081E00E94EE0941E067E09E
S113119080E00E94EE0941E066E080E00E94EE09F2
S11311A041E065E080E00E94EE0941E064E080E017
S11311B00E94EE098DE292E20197F1F700C000006F
S11311C040E061E081E00E94600A88E20E94FE073C
S11311D089EF90E00197F1F700C0000040E061E082
S11311E081E00E94600A8FE00E94FE0789EF90E090
S11311F00197F1F700C0000040E061E081E00E9447
S1131200600A81E00E94FE0783EF91E00197F1F705
S113121000C0000040E061E081E00E94600A86E0D6
S11312200E94FE0780E00895CF93C82F41E061E05B
S113123081E00E94600A8C2F0E94FE0780E0CF911B
S11312400895AF92BF92CF92DF92EF92FF920F93E5
S11312501F93CF93DF93611571058105910561F5A6
S113126041E061E081E00E94600A80E30E94FE07A1
S1131270A12C54C02AE030E040E050E00E946A0B08
S1131280CC0CDD1CEE1CFF1CD701C601880F991F76
S1131290AA1FBB1F880F991FAA1FBB1FC80ED91EE8
S11312A0EA1EFB1EC60ED11CE11CF11CCF5F622F8F
S11312B0732F842F952F04C0C0E0C12CD12C76014C
S11312C06115710581059105A9F6A12C1BC041E0AA
S11312D061E081E00E94600AC701B6012AE030E0C3
S11312E040E050E00E946A0BB22E032F142FD52F3A
S11312F080E3860F0E94FE07A82ECB2CD02EE12E71
S1131300FD2EC150C114D104E104F10401F704C05D
S113131080E30E94FE07C150C111FACF8A2DDF91EC
S1131320CF911F910F91FF90EF90DF90CF90BF90DE
S1131330AF9008950F931F93CF93DF93EC01892B04
S113134079F482E011C041E061E081E00E94600A2A
S11313508E010F5F1F4F88810E94FE07E80101C0C4
S113136080E098819111EFCFDF91CF911F910F9180
S113137008951F93CF93DF938230A8F46031A8F4CB
S1131380162FC82F40E061E081E00E94600AD82F48
S11313908C2F90E0029620E4829F100D1124812F5F
S11313A00E94FE0703C0D0E001C0D0E08D2FDF9182
S11313B0CF911F910895CF9340E061E081E00E94B6
S11313C0600AC82F81E00E94FE078C2FCF910895F8
S11313D081EB8ABB86E18BBB80E00895843008F002
S11313E067C0683008F066C0423008F065C08130DC
S11313F0E9F030F0823081F1833009F443C05EC0FB
S113140081E090E0062E02C0880F991F0A94E2F74B
S113141080952AB32823842F90E002C0880F991F57
S11314206A95E2F7822B8ABB81E0089521E030E0DF
S1131430062E02C0220F331F0A94E2F7209587B3C9
S11314402823842F90E002C0880F991F6A95E2F741
S1131450822B87BB81E0089521E030E0062E02C094
S1131460220F331F0A94E2F7209584B32823842F94
S113147090E002C0880F991F6A95E2F7822B84BB23
S113148081E0089521E030E0062E02C0220F331FD0
S11314900A94E2F7209581B32823842F90E002C0B8
S11314A0880F991F6A95E2F7822B81BB81E008952A
S11314B083E0089583E0089583E0089581E008952A
S11314C0843008F067C0683008F066C0423008F025
S11314D065C08130E9F030F0823081F1833009F465
S11314E043C05EC081E090E0062E02C0880F991FC1
S11314F00A94E2F780952BB32823842F90E002C04E
S1131500880F991F6A95E2F7822B8BBB81E00895BF
S113151021E030E0062E02C0220F331F0A94E2F7C6
S1131520209588B32823842F90E002C0880F991F48
S11315306A95E2F7822B88BB81E0089521E030E0D0
S1131540062E02C0220F331F0A94E2F7209585B3BA
S11315502823842F90E002C0880F991F6A95E2F730
S1131560822B85BB81E0089521E030E0062E02C085
S1131570220F331F0A94E2F7209582B32823842F85
S113158090E002C0880F991F6A95E2F7822B82BB14
S113159081E0089583E0089583E0089583E0089549
S11315A081E0089541155105E1F18430E0F568309A
S11315B0E0F5813091F028F08230D9F0833029F1C0
S11315C036C089B390E002C0959587956A95E2F795
S11315D08170FA01808381E0089586B390E002C0AF
S11315E0959587956A95E2F78170FA01808381E089
S11315F0089583B390E002C0959587956A95E2F7C4
S11316008170FA01808381E0089580B390E002C084
S1131610959587956A95E2F78170FA01808381E058
S1131620089582E0089583E0089583E0089581E0B9
S1131630089587B3806B87BB8DB181658DB908959B
S11316408FB9779BFECF8FB108951BB888E18AB913
S113165086E880BD87E689B910BC80E008955D9B6B
S1131660FECF8CB980E008955F9BFECF2CB1FC01C6
S1131670208380E00895AC0120E009C05D9BFECF8B
S11316809CB990919A039F5F90939A032F5FFA01FC
S1131690E20FF11D90819111F1CF80E00895AC012A
S11316A020E05F9BFECFFA01E20FF11D9CB1908315
S11316B05D9BFECF9CB990819D3021F09A3011F052
S11316C02F5FEFCF108280E0089580919A038111FB
S11316D081E00895A1E21A2EAA1BBB1BFD010DC0D7
S11316E0AA1FBB1FEE1FFF1FA217B307E407F507CE
S11316F020F0A21BB30BE40BF50B661F771F881FAA
S1131700991F1A9469F760957095809590959B013F
S1131710AC01BD01CF010895EE0FFF1F0590F491B8
S10B1720E02D0994F894FFCFB9
S11317283738392B3435362D3132337863303D2F01
S1131738557365726E616D653A0050617373776FA6
S113174872643A000D0A0D0A557365726E616D650F
S11317583A200050617373776F72643A20000D0A5F
S1131768456E74657220557365726E616D6520529D
S11317786571756972656420746F206265205265AD
S11317886D6F7665643A200057656C636F6D6520EC
S1131798546F20536D61727400486F6D6520210089
S11317A8466F722046697273742054696D650055DA
S11317B873650052656769737465722041646D6965
S11317C86E006F6E204B65797061640053617665B5
S11317D86400505245535320454E54455220544FAB
S11317E82053544152540D0A00416C6C20446576D0
S11317F86963657300417265204F6666000D0A4C83
S11318086F6767656420696E2053756363657373D6
S113181866756C6C79000D0A57656C636F6D65208D
S113182841646D696E0D0A000D0A4C6F6767656443
S113183820696E205375636365737366756C6C7980
S11318480D0A000D0A57726F6E6720557365726E24
S1131858616D65206F722050617373776F726400D5
S11318680D0A52656D61696E696E6720547269610B
S11318786C733A20000D0A312D4164642055736558
S113188872000D0A322D52656D6F766520557365A9
S113189872000D0A332D526F6F6D31000D0A342D0D
S11318A8526F6F6D32000D0A352D526F6F6D330014
S11318B80D0A362D526F6F6D34000D0A372D526F95
S11318C86F6D35000D0A382D44696D6D6572000D14
S11318D80A392D446F6F720D0A000D0A496E76613C
S11318E86C69642043686F6963650D0A000D0A31E9
S11318F82D52656D6F746564000D0A322D50726F38
S11319086D6F746564000D0A332D4E6F6E72656DCC
S11319186F746564000D0A0D0A5072696F726974F8
S11319287920417272616E676D656E743A205072E7
S11319386F6D6F746564203E204E6F6E72656D6FB7
S113194874656420284C43442B4B65797061642981
S1131958203E2052656D6F7465640D0A000D0A52AD
S11319686567697374657265642053756363657329
S11319787366756C6C790D0A000D0A5265616368AB
S1131988656420546865204D6178204E756D6265E4
S113199872206F662053746F726564205573657284
S11319A873000D0A436F756C646E27742053746F4B
S11319B872652041204E65772055736572000D0AC3
S11319C852656D6F766564205375636365737366DA
S11319D8756C6C790D0A000D0A557365726E616D2C
S11319E865206E6F7420466F756E64200D0A52650B
S11319F87475726E696E6720746F204D61696E200C
S1131A084D656E750D0A0057726F6E6720557365C4
S1131A18726E616D65004C6F6767656420696E005E
S1131A2857656C636F6D65205573657200312D4C75
S1131A38696768747320322D44696D6D657200336B
S1131A482D41697220436F6E6400496E76616C693A
S10D1A58642043686F6963650000B1
S9030000FC
