:100000000C9432000C94960B0C944F000C944F00FF
:100010000C944F000C944F000C944F000C944F0024
:100020000C944F000C944F000C944F000C944F0014
:100030000C944F000C944F000C944F000C944F0004
:100040000C944F000C944F000C944F000C944F00F4
:100050000C944F00020504050A050C050E05140555
:100060001705450511241FBECFE5D8E0DEBFCDBF83
:1000700014E0A0E6B0E0ECECF8E102C005900D92CF
:10008000A835B107D9F724E0A8E5B4E001C01D9276
:10009000AE35B207E1F70E942C020C94640C0C946C
:1000A0000000CF92DF92EF92FF920F931F93CF93B6
:1000B000DF93CDB7DEB72B970FB6F894DEBF0FBE38
:1000C000CDBFE982FA820B831C832D833E834F834D
:1000D000588769877A878B87F6018081F9E08F9F3F
:1000E000C001112444E050E0BE016F5F7F4F429693
:1000F0000E948D072FEF80E792E0215080409040D2
:10010000E1F700C00000F6018081F9E08F9FC00197
:10011000112444E050E0BE016A5F7F4F46960E9482
:100120008D072FEF80E792E0215080409040E1F76B
:1001300000C00000F6018081F9E08F9FC00111240A
:100140006B854A960E9481072FEF80E792E021504D
:1001500080409040E1F700C00000F60160816F5FD1
:10016000608381E190E00E9481072B960FB6F8949E
:10017000DEBF0FBECDBFDF91CF911F910F91FF90DA
:10018000EF90DF90CF900895AF92BF92CF92DF9221
:10019000EF92FF920F931F93CF93DF931F92CDB7F0
:1001A000DEB78C016B010E94A30A80E890E00E94F8
:1001B000680A60E081E00E94850A7801580124E025
:1001C000A20EB11CCE0101960E94F90789810E94FE
:1001D000EE098981F70181937F01EA15FB0591F70B
:1001E000F80114820E94A30A8AE890E00E94680A3B
:1001F00060E081E00E94850A760110E0CE01019660
:100200000E94F90789810E94EE09FFEF29E688E143
:10021000F15020408040E1F700C00000612F81E0F4
:100220000E94850A8AE20E94EE098981F701819382
:100230007F011F5F143011F7F601148281E00F90E7
:10024000DF91CF911F910F91FF90EF90DF90CF90B2
:10025000BF90AF9008950F931F93CF93DF938C01BE
:10026000EB0184E990E00E94E10BC8010E94F00BD1
:10027000F801148283EA90E00E94E10BCE010E9413
:10028000F00B1C8281E0DF91CF911F910F910895B7
:10029000DC0140E0242F30E0FD01E20FF31F9081EC
:1002A000FB01E20FF31F2081921304C0992341F058
:1002B0004F5FF0CF911106C081E0222321F002C0F0
:1002C00081E0089580E008957F928F929F92AF928F
:1002D000BF92CF92DF92EF92FF920F931F93CF9333
:1002E000DF9300D000D01F92CDB7DEB78C015B0149
:1002F0008EEA90E00E94E10BCE0101960E94F00B85
:100300001D82F50190807801D12CD91409F47EC0AA
:100310007E2C8F2CBE016F5F7F4FC7010E9448016A
:10032000C82EFBE0EF0EF11C882309F46DC0F80124
:100330002BE0929EE00DF11D11243B978BE0A72D41
:10034000B82D01900D928A95E1F7F5018081F9E0D1
:10035000DF9E70011124B8012BE0829F600D711D9A
:1003600011246B50710944E050E0C70142960E948D
:100370008D078FEF90E7E2E081509040E040E1F799
:1003800000C00000F5018081B801FBE08F9F600D87
:10039000711D11246650710944E050E0C701469672
:1003A0000E948D072FEF80E792E02150804090401F
:1003B000E1F700C00000F5018081FBE08F9F000D98
:1003C000111D1124F8013B976285C7014A960E94CE
:1003D00081072FEF80E792E0215080409040E1F7C5
:1003E00000C00000F50160816150608381E190E010
:1003F0000E948107FFEF20E782E0F150204080401B
:10040000E1F700C0000003C0D3947FCFC12C8C2D36
:100410000F900F900F900F900F90DF91CF911F9141
:100420000F91FF90EF90DF90CF90BF90AF909F9093
:100430008F907F90089580915B04882319F010922B
:100440005804089580915A048111F9CF81E0809376
:100450005804109259040895CF93DF93CDB7DEB7B7
:10046000C754D1090FB6F894DEBF0FBECDBF0E94AE
:10047000B00A0E94BF0B0E94CB0B0E9491090E9400
:10048000A70741E061E083E00E94B60A0E94840B66
:1004900078948BE192E00E948C0B28961FAE2897EF
:1004A00027961FAE279788ED90E00E94680A60E0CB
:1004B00081E00E94850A89EE90E00E94680ABE01F0
:1004C000695B7F4F80E00E9464072FEF37EA81E687
:1004D000215030408040E1F700C000000E94A30A94
:1004E00028968FAD28978F3F09F091C027966FAD62
:1004F000279781E190E00E9481079FEFE2E5F7E016
:100500009150E040F040E1F700C0000081EF90E042
:100510000E94680A60E081E00E94850A80E091E024
:100520000E94680A2FEF37EA81E621503040804070
:10053000E1F700C000000E94A30A84E091E00E945D
:10054000680A60E081E00E94850A83E191E00E94F0
:10055000680A9FEFE7EAF1E69150E040F040E1F7EA
:1005600000C00000BE016E5C7F4FCE018D960E94E0
:10057000C40081E08FAB44E050E0BE01635D7F4F7B
:1005800081E090E00E948D072FEF32E587E0215057
:1005900030408040E1F700C0000044E050E0BE0180
:1005A0006E5C7F4F85E090E00E948D079FEFE2E553
:1005B000F7E09150E040F040E1F700C0000060E05B
:1005C00080E090E00E9481072FEF32E587E0215024
:1005D00030408040E1F700C000000E94A30A8DE196
:1005E00091E00E94680A60E081E00E94850A8AE545
:1005F00091E00E94680A9FEFE3EDF0E39150E04044
:10060000F040E1F700C000000E94A30A9FC08111E2
:10061000A1C0BE016A5B7F4F81E10E9464072FEF9A
:1006200032E587E0215030408040E1F700C0000013
:1006300044E050E0BE01635D7F4F81E090E00E94A6
:100640006D0719AA9FEFE2E5F7E09150E040F04016
:10065000E1F700C0000044E050E0BE016E5C7F4F57
:1006600085E090E00E946D071EAA2FEF32E587E03B
:10067000215030408040E1F700C0000081E08FABA6
:100680009FEFE2E5F7E09150E040F040E1F700C075
:100690000000512CABE0DA2E27968FAD2797581625
:1006A00008F054C029E0529E30011124430132E188
:1006B000830E911CD59C80011124EE24E394F12C2F
:1006C000EC0EFD1EE00EF11E44E050E0B701C40147
:1006D0000E946D078FEF92E5E7E081509040E04087
:1006E000E1F700C00000B8016B5F7F4F21E030E010
:1006F0002C0F3D1F620F731F44E050E0C30146966C
:100700000E946D073FEF82E597E0315080409040B6
:10071000E1F700C00000B801665F7F4FE1E0F0E064
:10072000EC0FFD1F6E0F7F1F88E0880D0E9464078D
:10073000FFEF22E537E0F15020403040E1F700C004
:100740000000F701148211865394A6CF87E0289603
:100750008FAF2897E3E09E2E83E291E00E94E10BA9
:1007600028968FAD2897873019F07BE0872E96C0AA
:100770000E94A30A8AE391E00E94680A60E081E097
:100780000E94850A86E491E00E94680A12E003E074
:1007900028968FAD2897873041F780915804813093
:1007A00021F428960FAF2897F3CF0E94060C8823D8
:1007B00079F328961FAF2897EBCFBE01685C7F4F77
:1007C000CE01CD960E942B01BE01635D7F4FCE010D
:1007D000CD960E944801811168C010E027968FAD28
:1007E0002797181708F069C3E12EF12C8E9C300171
:1007F0008F9C700C1124BE01635C7F4F81E090E000
:100800008C0F9D1F860D971D0E944801882309F4B7
:100810007BC0C3010596BE01685C7F4F21E030E0DC
:100820002C0F3D1F820F931F0E94480191E0811100
:1008300001C090E0B92E31E0B31281C08E9C8001DE
:100840008F9C100D112481E090E08C0F9D1F080FEC
:10085000191FF80182858250823008F457C01FEFBB
:10086000190D84E991E00E94E10BFFEF25EA3EE0DB
:10087000F15020403040E1F700C0000081EB91E0F2
:100880000E94E10B8FE2890D0E94D50B111104C06B
:1008900086E028968FAF2897B12C912E28968FADA1
:1008A0002897823009F489CF4CC0BE016E5C7F4F1F
:1008B000CE01C8960E94480111E0811101C010E0EC
:1008C000113009F08ACF8EE491E00E94E10BFFEF36
:1008D00029E638E1F15020403040E1F700C0000047
:1008E00087E691E00E94E10B8FEF99E6E8E1815005
:1008F0009040E040E1F700C0000010935B0484E00A
:1009000028968FAF2897DEC2B12C95CF89E791E06A
:100910000E94E10BFFEF29E638E1F1502040304022
:10092000E1F700C0000084E028968FAF2897F80117
:100930008285833009F0C6C2B0925A04C3C21F5FD9
:100940004DCF3BE0732E4BE0842E5FE0552E6BE0E5
:10095000662E94E6E92E0AE028E0F22E28968FAD66
:100960002897843009F0BEC1109159041111B9C003
:1009700086EC91E00E94E10B80ED91E00E94E10B9A
:100980008AED91E00E94E10B84EE91E00E94E10B80
:100990008EEE91E00E94E10B80915B04813091F436
:1009A00089EF91E00E94E10B82E092E00E94E10B6E
:1009B0008FE092E00E94E10BCE018C5B9F4F0E9482
:1009C000DA0B11C087E391E00E94E10BCE018C5B52
:1009D0009F4F0E94DA0B25968FAD2597863318F02E
:1009E0002596EFAE25972596EFAD25978E2F90E0B3
:1009F000FC01F197E830F10508F063C0E65DFF4FB8
:100A00000C94440C81E001C082E00E94C60B60920D
:100A10005904AACF83E0F9CF84E0F7CF8CE00E949D
:100A2000C60BF0925904A0CF009359049DCF27968E
:100A30008FAD2797843098F4789EC0011124BC01B3
:100A40006B5F7F4FE1E0F0E0EC0FFD1F6E0F7F1F4B
:100A50008E0F9F1F0E942B015092590485CF81E277
:100A600092E00E94E10B8AE492E00E94E10B84E9AB
:100A700092E00E94E10B10925904FFEF2DE232E266
:100A8000F15020403040E1F719C0BE016A5B7F4F52
:100A9000CE0101960E946401813019F486E692E04D
:100AA00002C08FE792E00E94E10B109259048FEF91
:100AB0009DE2E2E281509040E040E1F700C000009A
:100AC00053CF8FEA92E00E94E10BFFEF23ED30E37A
:100AD000F15020403040E1F700C00000109259046E
:100AE00043CF1A3009F4B1C088F5183009F036CF79
:100AF0008EE493E00E94E10BCE018D5B9F4F0E943C
:100B0000DA0B24968FAD24970E94D50B24968FADD7
:100B10002497805324968FAF2497CE018E5B9F4FEE
:100B20000E94DA0B23968FAD23970E94D50B239654
:100B30008FAD2397805323968FAF239724969FAD35
:100B400024972AE0929F800D11248EC01B3009F457
:100B500099C01F3009F002CF82EC92E00E94E10BB5
:100B60008EEC92E00E94E10B8BED92E00E94E10B93
:100B70008AEE92E00E94E10BCE018C5B9F4F0E94B7
:100B8000DA0B25968FAD2597813369F427968FADC3
:100B90002797E1E0F0E0EC0FFD1F789EE00DF11DDE
:100BA000112482E00EC0823321F527968FAD27975E
:100BB000E1E0F0E0EC0FFD1F789EE00DF11D112447
:100BC00083E082879E012A5B3F4F6901E080F180CC
:100BD0000281138124813581468157816085718529
:100BE0000E9451008092590482E393E00E94E10B3D
:100BF000B0CE8333E1F427968FAD2797E1E0F0E0A4
:100C0000EC0FFD1F789EE00DF11D11241286CE0120
:100C10008A5B9F4F6C01E080F18002811381248107
:100C20003581468157816085718580E0D9CF8FEA13
:100C300092E00E94E10B9FEFE3EDF0E39150E04082
:100C4000F040E1F700C0000084CE85E793E00E9409
:100C5000E10BCE018C5B9F4F0E94DA0B25968FAD86
:100C60002597813331F48DE00E94C60B80925904A0
:100C700070CE823311F48EE0F7CF803361F510929D
:100C8000590467CE81ED93E00E94E10BCE018C5BAD
:100C90009F4F0E94DA0B25968FAD25978133C9F4BB
:100CA00087E028968FAF28971092590486EF93E03B
:100CB0000E94E10B80915B04813019F410925B0477
:100CC00048CE80915A04813009F043CE10925A04E4
:100CD00040CE8233A1F28DEB93E00E94E10B1093A2
:100CE000590437CE0BE028968FAD2897833009F052
:100CF000B4C0BE01685C7F4FCE01CD960E94C40097
:100D000010E027968FAD2797181708F09EC0E12EA8
:100D1000F12C0E9D30010F9D700C1124BE01635CFF
:100D20007F4F81E090E08C0F9D1F860D971D0E94E4
:100D30004801882399F0C3010596BE01685C7F4F86
:100D4000E1E0F0E0EC0FFD1F8E0F9F1F0E944801B5
:100D500091E0811101C090E0A92E01C0A12CF1E029
:100D6000AF1271C00E9DF0010F9DF00D112421E016
:100D700030E02C0F3D1FE20FF31F82858823B1F175
:100D80009A940E94A30A85E094E00E94680A60E0B9
:100D900081E00E94850A85EA91E00E94680A3FEF9F
:100DA00082E597E0315080409040E1F700C00000BC
:100DB0000E94A30A83EB91E00E94680A60E081E050
:100DC0000E94850A892D90E00E94FB09EFEFF2E571
:100DD00027E0E150F0402040E1F700C00000911012
:100DE0003AC086E028968FAF289735C00E94A30AA4
:100DF00084E194E00E94680A60E081E00E94850A34
:100E00008AE591E00E94680A3FEF8DE292E231505C
:100E100080409040E1F700C000000E94A30A8EE1EC
:100E200094E00E94680AEFEFFDE222E2E150F04018
:100E30002040E1F700C0000085E028968FAF28979A
:100E400083E0982E50CF1F5F5CCFAA2009F498CF83
:100E5000AA24A39448CFA12C46CF853009F07CCC9E
:100E60000E94A30A8BE294E00E94680A60E081E09D
:100E70000E94850A8DE394E00E94680ACE018B5B94
:100E80009F4F0E94F90726968FAD26978153833096
:100E900078F00E94A30A88E494E00E94680A3FEF79
:100EA00083EC99E0315080409040E1F700C00000B1
:100EB00087E028968FAF28974FCCBB2009F4CFCC82
:100EC000192DEBCC13E0E9CCE199FECF9FBB8EBB93
:100ED000E09A8DB3FB0180830895E199FECF460F20
:100EE000571FFB01861B970BE417F50749F09C0180
:100EF0002E0F3F1F3FBB2EBBE09A2DB32193F4CFA3
:100F00000895E199FECF9FBB8EBBE09A8DB3861703
:100F100019F06DBBE29AE19A0895460F571FFB0145
:100F20009C01261B370BE417F50781F0E199FECFF2
:100F3000C9018E0F9F1F9FBB8EBBE09A8DB391910D
:100F4000891789F39DBBE29AE19AEDCF089541E0BC
:100F500063E083E00E94B60A41E064E083E00E941F
:100F6000B60A41E065E083E00E94B60A41E066E02F
:100F700083E00E94B60A40E062E082E00E94B60A86
:100F800040E063E082E00E94B60A40E064E082E074
:100F90000E94B60A40E065E082E00E94B60A41E0A5
:100FA00063E083E00E940C0B41E064E083E00E9478
:100FB0000C0B41E065E083E00E940C0B41E066E031
:100FC00083E00E940C0B41E062E082E00E940C0B87
:100FD00041E063E082E00E940C0B41E064E082E0CB
:100FE0000E940C0B41E065E082E00E940C0B80E067
:100FF00008952F923F924F925F926F927F928F92BD
:101000009F92AF92BF92CF92DF92EF92FF920F9397
:101010001F93CF93DF93CDB7DEB7A3970FB6F894A6
:10102000DEBF0FBECDBF6C0180916000909161006A
:10103000A0916200B09163008D8F9E8FAF8FB8A397
:101040008091640090916500A0916600B091670066
:10105000898F9A8FAB8FBC8F8091680090916900C7
:10106000A0916A00B0916B008D8B9E8BAF8BB88F77
:1010700080916C0090916D00A0916E00B0916F0016
:10108000898B9A8BAB8BBC8B8FEFF6018083F6013B
:1010900080818F3F09F07BC03E01F9E16F0E711C2A
:1010A000CE014D969BA38AA3E12CF12CF301219054
:1010B0003F01EAA1FBA13190FBA3EAA340E0622D2E
:1010C000832D0E940C0B4E01F1E18F0E911C5E01ED
:1010D00085E1A80EB11C00E010E0F40151904F0131
:1010E000F50141905F01AE014F5D5F4F652D842D8D
:1010F0000E94620B89A1811136C083EC99E00197AF
:10110000F1F700C00000AE014F5D5F4F652D842DEB
:101110000E94620B89A1811126C089A1811108C09A
:10112000AE014F5D5F4F652D842D0E94620BF5CFA0
:1011300080E1E0E7F0E0DE01119601900D928A95E2
:10114000E1F7000F111F000F111FE1E0F0E0EC0FBD
:10115000FD1F0E0F1F1FF801EE0DFF1D8081F60110
:10116000808381E015C00F5F1F4F0430110509F027
:10117000B4CF41E0622D832D0E940C0BFFEFEF1ADC
:10118000FF0A84E0E816F10409F090CF80CF80E0F8
:10119000A3960FB6F894DEBF0FBECDBFDF91CF91FF
:1011A0001F910F91FF90EF90DF90CF90BF90AF9085
:1011B0009F908F907F906F905F904F903F902F9077
:1011C00008951F93CF93DF931F92CDB7DEB7182FEB
:1011D00040E063E081E00E940C0B40E062E081E0CF
:1011E0000E940C0B183299F5AE014F5F5F4F61E022
:1011F00081E00E94620B8981811129C040E067E093
:101200000E940C0B40E066E080E00E940C0B41E085
:1012100065E080E00E940C0B40E064E080E00E940A
:101220000C0B41E063E081E00E940C0B81EE94E046
:101230000197F1F700C0000040E063E081E00E9408
:101240000C0B83ED90E30197F1F700C00000412FF4
:10125000441F4427441F67E080E00E940C0B16FBEC
:10126000442740F966E080E00E940C0B15FB442700
:1012700040F965E080E00E940C0B14FB442740F924
:1012800064E080E00E940C0B41E063E081E00E949A
:101290000C0B81EE94E00197F1F700C0000040E0F4
:1012A00063E081E00E940C0B83ED90E30197F1F77E
:1012B00000C0000013FB442740F967E080E00E9473
:1012C0000C0B12FB442740F966E080E00E940C0BF7
:1012D00011FB442740F965E080E00E940C0B412F90
:1012E000417064E080E00E940C0B41E063E081E02B
:1012F0000E940C0B81EE94E00197F1F700C0000012
:1013000040E063E081E00E940C0B83ED90E30197E5
:10131000F1F700C0000080E00F90DF91CF911F91A6
:10132000089541E061E081E00E94B60A41E062E098
:1013300081E00E94B60A41E063E081E00E94B60AC3
:1013400041E067E080E00E94B60A41E066E080E0AC
:101350000E94B60A41E065E080E00E94B60A41E0E2
:1013600064E080E00E94B60A8DE292E20197F1F714
:1013700000C0000040E061E081E00E940C0B88E2C8
:101380000E94E10889EF90E00197F1F700C00000AA
:1013900040E061E081E00E940C0B8FE00E94E108D8
:1013A00089EF90E00197F1F700C0000040E061E0B4
:1013B00081E00E940C0B81E00E94E10883EF91E044
:1013C0000197F1F700C0000040E061E081E00E9479
:1013D0000C0B86E00E94E10880E00895CF93C82FAF
:1013E00041E061E081E00E940C0B8C2F0E94E1083B
:1013F00080E0CF9108956F927F928F929F92AF92EB
:10140000BF92CF92DF92EF92FF920F931F93CF93F1
:10141000DF93FC01892B51F441E061E081E00E94FF
:101420000C0B80E30E94E108D0E042C0C0E0C12C78
:10143000D12C76010AE010E0AAE0B0E0A701960105
:101440000E944A0C6B017C01CF01B8010E940E0C76
:10145000C80ED91EE11CF11CCF5FFB01309761F76C
:10146000D0E08AE0882E912CA12CB12CC114D1049B
:10147000E104F104B1F041E061E081E00E940C0B75
:10148000C701B601A50194010E94220C39018A010D
:1014900080E3860F0E94E108D82F63017801C150D4
:1014A000E5CFCC2329F080E30E94E108C150F9CFB9
:1014B0008D2FDF91CF911F910F91FF90EF90DF90D3
:1014C000CF90BF90AF909F908F907F906F90089536
:1014D0000F931F93CF93DF93009789F0EC0180E087
:1014E0008E019881992361F041E061E081E00E94E2
:1014F0000C0B2196F80180810E94E108F1CF82E077
:10150000DF91CF911F910F9108951F93CF93DF9398
:10151000823098F4603188F4C62FD82F40E061E023
:1015200081E00E940C0B182F8C2F90E4D99F800D26
:10153000112480580E94E10801C010E0812FDF9142
:10154000CF911F910895CF9340E061E081E00E9428
:101550000C0BC82F81E00E94E1088C2FCF910895D9
:1015600081EB8ABB86E18BBB80E00895843008F074
:1015700051C0683008F04EC0423008F04BC0823095
:1015800039F18330B1F1813089F081E090E0062EAD
:1015900001C0880F0A94EAF780959AB3892301C0A5
:1015A000440F6A95EAF7482B4ABB10C081E090E0EF
:1015B000062E01C0880F0A94EAF7809597B3892315
:1015C00001C0440F6A95EAF7482B47BB81E00895B4
:1015D00081E090E0062E01C0880F0A94EAF780951A
:1015E00094B3892301C0440F6A95EAF7482B44BBA2
:1015F000EDCF81E090E0062E01C0880F0A94EAF753
:10160000809591B3892301C0440F6A95EAF7482B6E
:1016100041BBDCCF83E00895843008F051C06830CE
:1016200008F04EC0423008F04BC0823039F18330B0
:10163000B1F1813089F081E090E0062E01C0880F81
:101640000A94EAF780959BB3892301C0440F6A95F9
:10165000EAF7482B4BBB10C081E090E0062E01C09A
:10166000880F0A94EAF7809598B3892301C0440F44
:101670006A95EAF7482B48BB81E0089581E090E045
:10168000062E01C0880F0A94EAF7809595B3892346
:1016900001C0440F6A95EAF7482B45BBEDCF81E0C6
:1016A00090E0062E01C0880F0A94EAF7809592B365
:1016B000892301C0440F6A95EAF7482B42BBDCCF6F
:1016C00083E00895FA013097D9F08430D8F4683077
:1016D000C8F4823041F0833089F0813011F089B351
:1016E00003C086B301C083B390E002C0959587958F
:1016F0006A95E2F78170808381E0089580B3F4CF2A
:1017000082E0089583E008958BB780648BBF85B72E
:10171000836085BF80E00895009731F090935D0469
:1017200080935C0481E0089582E008951F920F92F7
:101730000FB60F9211242F933F934F935F936F93A4
:101740007F938F939F93AF93BF93EF93FF93E0911A
:101750005C04F0915D04309709F00995FF91EF91D9
:10176000BF91AF919F918F917F916F915F914F91B9
:101770003F912F910F900FBE0F901F90189587B338
:10178000806B87BB8DB181658DB908958FB9779BCB
:10179000FECF8FB108951BB888E18AB986E880BD75
:1017A00087E689B910BC80E008955D9BFECF8CB9B7
:1017B00080E008955F9BFECF2CB1FC01208380E088
:1017C0000895AC0190E0FA01E90FF11D2081222378
:1017D00029F05D9BFECF2CB99F5FF5CF80E0089587
:1017E000AC0190E05F9BFECFFA01E90FF11D2CB137
:1017F00020835D9BFECF2CB920812D3021F02A3033
:1018000011F09F5FEFCF108280E008958BB1881FA9
:101810008827881F11F08CB181E00895AA1BBB1B9B
:1018200051E107C0AA1FBB1FA617B70710F0A61BE0
:10183000B70B881F991F5A95A9F780959095BC0101
:10184000CD010895A1E21A2EAA1BBB1BFD010DC0FC
:10185000AA1FBB1FEE1FFF1FA217B307E407F50760
:1018600020F0A21BB30BE40BF50B661F771F881F3C
:10187000991F1A9469F760957095809590959B01D2
:10188000AC01BD01CF010895EE0FFF1F0590F4914B
:10189000E02D09940E94550CA59F900DB49F900DCA
:1018A000A49F800D911D11240895A29FB001B39FA4
:1018B000C001A39F700D811D1124911DB29F700D59
:0C18C000811D1124911D0895F894FFCFA4
:1018CC0003030303030405060202020202030405D8
:1018DC003738392B3435362D3132337863303D2F50
:1018EC00557365726E616D653A0050617373776FF5
:1018FC0072643A000D0A0D0A557365726E616D655E
:10190C003A200050617373776F72643A20000D0AAD
:10191C00456E74657220557365726E616D652052EB
:10192C006571756972656420746F206265205265FB
:10193C006D6F7665643A200057656C636F6D65203A
:10194C00546F20536D61727400486F6D65202120B7
:10195C0000466F722046697273742054696D65007D
:10196C005573650052656769737465722041646DC7
:10197C00696E006F6E204B657970616400536176FF
:10198C00656400505245535320454E5445522054E3
:10199C004F2053544152540D0A00416C6C20446545
:1019AC00766963657300417265204F6666000D0AA7
:1019BC004C6F6767656420696E205375636365734C
:1019CC007366756C6C79000D0A57656C636F6D6589
:1019DC002041646D696E0D0A000D0A4C6F676765D6
:1019EC006420696E205375636365737366756C6CE4
:1019FC00790D0A000D0A57726F6E67205573657268
:101A0C006E616D65206F722050617373776F7264B5
:101A1C00000D0A52656D61696E696E6720547269BA
:101A2C00616C733A20000D0A312D526F6F6D3100CD
:101A3C000D0A322D526F6F6D32000D0A332D526F1D
:101A4C006F6D33000D0A342D526F6F6D34000D0A1B
:101A5C00352D44696D6D6572000D0A362D446F6F1E
:101A6C0072000D0A372D4164642055736572000DA8
:101A7C000A382D52656D6F766520557365720D0AA7
:101A8C00000D0A5265616368656420546865204DD9
:101A9C006178204E756D626572206F662053746F8D
:101AAC00726564205573657273000D0A436F756C13
:101ABC00646E27742053746F72652041204E6577D5
:101ACC002055736572000D0A52656D6F7665642042
:101ADC005375636365737366756C6C790D0A000DD1
:101AEC000A557365726E616D65206E6F7420466F5A
:101AFC00756E64200D0A52657475726E696E67207E
:101B0C00746F204D61696E204D656E750D0A000D68
:101B1C000A496E76616C69642043686F6963650D70
:101B2C000A000D0A312D52656D6F746564000D0A43
:101B3C00322D50726F6D6F746564000D0A332D4E2B
:101B4C006F6E72656D6F746564000D0A0D0A5072CC
:101B5C00696F7269747920417272616E676D656E1E
:101B6C00743A2050726F6D6F746564203E204E6F16
:101B7C006E72656D6F74656420284C43442B4B6505
:101B8C007970616429203E2052656D6F7465640D17
:101B9C000A000D0A52656769737465726564205397
:101BAC0075636365737366756C6C790D0A000D0A49
:101BBC00456E746572205468652050657263656E5D
:101BCC0074616765206F66204272696768746E6520
:101BDC0073733A20000D0A446F6F72204F70746952
:101BEC006F6E73200D0A20312D4F70656E20446F7F
:101BFC006F720D0A20322D436C6F736520446F6F2A
:101C0C00720D0A20302D52657475726E20746F201F
:101C1C006D61696E206D656E750D0A20000D0A49A7
:101C2C006E76616C69642043686F6963650D0A2088
:101C3C00000D0A312D4C6F67204F75740D0A322D33
:101C4C0052657475726E20746F206D61696E206DB3
:101C5C00656E750D0A000D0A4C6F67676564204F41
:101C6C0075740D0A0057726F6E6720557365726E2E
:101C7C00616D65004C6F6767656420696E00576520
:101C8C006C636F6D65205573657200312D4C6967FF
:101C9C0068747320322D44696D6D657200332D416B
:101CAC00697220436F6E6400496E76616C696420C2
:081CBC0043686F6963650000D5
:00000001FF
