:100000000C9433000C9450000C9450000C9450004D
:100010000C9450000C9450000C9450000C94500020
:100020000C9450000C9450000C9450000C94500010
:100030000C9450000C9450000C9450000C94500000
:100040000C9450000C9450000C9450000C945000F0
:100050000C945000E6031304E803ED03F203F703E6
:10006000FC030104030411241FBECFE5D8E0DEBF6A
:10007000CDBF12E0A0E6B0E0E0EFF4E102C00590F1
:100080000D92AE37B107D9F722E0AEE7B2E001C07A
:100090001D92AF37B207E1F70E9468010C94760A0F
:1000A0000C940000CF92DF92EF92FF920F931F9378
:1000B000CF93DF93CDB7DEB72B970FB6F894DEBFA3
:1000C0000FBECDBFE982FA820B831C832D833E8352
:1000D0004F83588769877A878B87F601808190E004
:1000E0009C01220F331F220F331F220F331F820F59
:1000F000931F44E050E0BE016F5F7F4F42960E9425
:10010000A80583ED90E30197F1F700C00000F60128
:10011000808190E09C01220F331F220F331F220F9A
:10012000331F820F931F44E050E0BE016A5F7F4F90
:1001300046960E94A80583ED90E30197F1F700C071
:1001400000006B85F601808190E09C01220F331F37
:10015000220F331F220F331F820F931F70E04A9626
:100160000E94960583ED90E30197F1F700C000002F
:10017000F60160816F5F608370E081E190E00E9432
:1001800096052B960FB6F894DEBF0FBECDBFDF915C
:10019000CF911F910F91FF90EF90DF90CF90089536
:1001A000CF92DF92EF92FF921F93CF93DF931F9234
:1001B000CDB7DEB76C017B010E94BF0880E790E0FD
:1001C0000E947E0860E081E00E949D0810E00DC062
:1001D000CE0101960E94210689810E94F807F6014E
:1001E000E10FF11D898180831F5F143088F3F601D0
:1001F00014820E94BF088AE790E00E947E0860E0B7
:1002000081E00E949D0810E01AC0CE0101960E9474
:10021000210689810E94F80787EA91E60197F1F7A4
:1002200000C00000612F81E00E949D088AE20E94C8
:10023000F807F701E10FF11D898180831F5F1430FA
:1002400020F3F701148281E00F90DF91CF911F918D
:10025000FF90EF90DF90CF9008950F931F93CF936F
:10026000DF938C01EB0184E890E00E941F0AC80133
:100270000E94330AF80114828FE890E00E941F0A5E
:10028000CE010E94330A1C8281E0DF91CF911F9141
:100290000F910895DC0140E005C0992379F02223F5
:1002A00069F04F5F242F30E0FD01E20FF31F9081D2
:1002B000FB01E20FF31F2081921779F3911104C023
:1002C000222321F080E0089580E0089581E00895E0
:1002D000CF93DF93CDB7DEB7C554D1090FB6F894ED
:1002E000DEBF0FBECDBF0E94CC080E94FD090E9458
:1002F000090A0E949B070E94CF0541E061E083E06C
:100300000E94D208789419AEBE016F5F7F4F80E0E3
:100310000E9472052FEF32E587E021503040804087
:10032000E1F700C000008AE990E00E947E0860E0EA
:1003300081E00E949D088BEA90E00E947E089FEF7A
:1003400027EA31E6915020403040E1F700C000003C
:100350000E94BF0889818F3F09F08FC069AD81E19C
:1003600090E00E9496058FEF92E527E08150904043
:100370002040E1F700C0000082EB90E00E947E0880
:1003800060E081E00E949D0881EC90E00E947E0880
:100390003FEF87EA91E6315080409040E1F700C09E
:1003A00000000E94BF0885EC90E00E947E0860E09B
:1003B00081E00E949D0884ED90E00E947E082FEF6E
:1003C00037EA81E6215030408040E1F700C000006C
:1003D000BE01695F7F4FCE0102960E94D00081E08E
:1003E0008C8744E050E0BE016E5F7F4F81E090E07B
:1003F0000E94A8059FEF23EC39E091502040304047
:10040000E1F700C0000044E050E0BE01695F7F4FAB
:1004100085E090E00E94A8058FEF93EC29E08150E1
:1004200090402040E1F700C0000060E080E090E0F4
:100430000E9496053FEF82E597E031508040904062
:10044000E1F700C000000E94BF088EED90E00E941E
:100450007E0860E081E00E949D0889E391E00E94AF
:100460007E082FEF33ED80E3215030408040E1F7EC
:1004700000C0000087E08983AAC08111A8C0BE0126
:10048000675C7F4F81E10E9472059FEF23EC39E0AA
:10049000915020403040E1F700C0000044E050E0BF
:1004A000BE016E5F7F4F81E090E00E947D051E825D
:1004B0008FEF92E527E0815090402040E1F700C0A7
:1004C000000044E050E0BE01695F7F4F85E090E0AE
:1004D0000E947D051B863FEF82E597E0315080400A
:1004E0009040E1F700C0000081E08C872FEF32E5FB
:1004F00087E0215030408040E1F700C0000010E06C
:1005000060C0812F90E06C01CC0CDD1CCC0CDD1C9C
:10051000CC0CDD1CC80ED91E460122E1820E911CB6
:100520002BE0289F7001299FF00C11246DE070E0F2
:100530006C0F7D1F6E0D7F1D44E050E0C4010E94D2
:100540007D053FEF82E597E0315080409040E1F734
:1005500000C00000B7016B5F7F4F2DE030E02C0F33
:100560003D1F620F731F44E050E0C60146960E9493
:100570007D053FEF82E597E0315080409040E1F704
:1005800000C00000B701665F7F4F2DE030E02C0F08
:100590003D1F620F731F88E0880D0E9472053FEFB8
:1005A00082E597E0315080409040E1F700C00000C4
:1005B000E1E0F0E0EC0FFD1FEE0DFF1D108A158A43
:1005C0001F5F89AD181708F49CCF87E0898384EEFC
:1005D00090E00E941F0A0AC080E090E00E94180A82
:1005E0000E94490A882311F082E08983898187303B
:1005F00099F3823009F09EC1BE01615C7F4FCE014C
:10060000CA960E942D01BE016E5F7F4FCE01CA9631
:100610000E944A01882359F0BE01695F7F4FCE01D5
:10062000CF960E944A01882321F081E003C080E038
:1006300001C080E0082F813009F049C084E089833F
:100640004BC0E12EF12C2BE02E9DC0012F9D900D73
:100650001124BE01665C7F4F2DE030E02C0F3D1F62
:10066000820F931F0E944A018823B1F02BE02E9D38
:10067000C0012F9D900D11240596BE01615C7F4F36
:100680002DE030E02C0F3D1F820F931F0E944A0186
:10069000882321F081E003C080E001C080E0A82E23
:1006A00031E0831312C08BE08E9DF0018F9DF00D21
:1006B000112481E090E08C0F9D1FE80FF91F8689BF
:1006C000823051F488E0898307C01F5F01C010E0C9
:1006D00089AD181708F4B5CF011120C0A1101EC0B4
:1006E0008BEF90E00E941F0A9FEF25EA3EE09150B9
:1006F00020403040E1F700C0000088E191E00E9416
:100700001F0A82E30E94130A8FEF93ED20E38150CA
:1007100090402040E1F700C000000CC18DE291E064
:100720000E941F0A3FEF89E698E1315080409040D7
:10073000E1F700C00000FEC086E491E00E941F0ABD
:10074000CE0102960E941F0A2FEF39E688E1215060
:1007500030408040E1F700C0000010E065C088E54F
:1007600091E00E941F0A85E691E00E941F0A85E73A
:1007700091E00E941F0A8FE791E00E941F0A89E81A
:1007800091E00E941F0A83E991E00E941F0A8DE90F
:1007900091E00E941F0A87EA91E00E941F0A82EB03
:1007A00091E00E941F0ACE018B5B9F4F0E94180AA6
:1007B0002696EFAD26978E2F90E0FC01F197E93059
:1007C000F10518F5E65DFF4F0C94700A16E02CC099
:1007D00081E00E94040A1BE027C082E00E94040A14
:1007E0001BE022C083E00E94040A1BE01DC084E0DD
:1007F0000E94040A1BE018C085E00E94040A1BE066
:1008000013C018E011C01AE00FC08DEB91E00E94F8
:100810001F0A9FEF23ED30E3915020403040E1F775
:1008200000C0000001C017E0112309F498CF163072
:1008300009F080C089AD2BE0829FC0011124BC016A
:100840006B5F7F4F2DE030E02C0F3D1F620F731F59
:10085000820F931F0E942D018EEC91E00E941F0ACF
:100860008AED91E00E941F0A87EE91E00E941F0A24
:1008700086EF91E00E941F0ACE018B5B9F4F0E9482
:10088000180A26968FAD2697813369F489ADE1E089
:10089000F0E0EC0FFD1F3BE0839FE00DF11D112404
:1008A00082E0868B2AC0823369F489ADE1E0F0E012
:1008B000EC0FFD1F9BE0899FE00DF11D112483E0EB
:1008C000868B1BC0833361F489ADE1E0F0E0EC0F6F
:1008D000FD1F2BE0829FE00DF11D1124168A0DC033
:1008E0008DEB91E00E941F0A3FEF83ED90E33150C2
:1008F00080409040E1F700C0000089ADA1E0B0E089
:10090000AC0FBD1F2BE0829FA00DB11D1124FD0176
:100910003C96CE01C9966C011C96EC90F180028148
:100920001381248135814681578160857185828557
:100930000E9452008981843009F4FECE833009F090
:100940008BC0BE01615C7F4FCE01CA960E94D00071
:1009500010E033C0E12EF12C2BE02E9DC0012F9D25
:10096000900D1124BE01665C7F4F2DE030E02C0F0E
:100970003D1F820F931F0E944A018823B1F02BE094
:100980002E9DC0012F9D900D11240596BE01615C26
:100990007F4F2DE030E02C0F3D1F820F931F0E94F0
:1009A0004A01882321F081E003C080E001C080E09B
:1009B000B82E31E0831721F01F5F89AD181750F270
:1009C000B11031C00E94BF088AE392E00E947E0805
:1009D00060E081E00E949D088CE091E00E947E082A
:1009E0008FEF92E527E0815090402040E1F700C072
:1009F00000000E94BF088AE191E00E947E0860E04A
:100A000081E00E949D0862E070E080E090E00E943A
:100A100005083FEF82E597E0315080409040E1F7D4
:100A200000C0000019C00E94BF0889E492E00E9443
:100A30007E0860E081E00E949D0889E391E00E94C9
:100A40007E082FEF3DE282E2215030408040E1F706
:100A500000C0000085E089838981853009F0B7CD29
:100A60000E94BF0883E592E00E947E0860E081E07A
:100A70000E949D08CE0102960E947E089FEF29E603
:100A800038E1915020403040E1F700C000000E9462
:100A9000BF0880E692E00E947E0860E081E00E944C
:100AA0009D0882E792E00E947E08CE018C5B9F4FFA
:100AB0000E94210625968FAD25978153833078F0CB
:100AC0000E94BF088FEB91E00E947E088FEF93ECAD
:100AD00029E0815090402040E1F700C0000087E00D
:100AE000898375CDE199FECF9FBB8EBB8CB38160AE
:100AF0008CBB8DB3FB0180830895DC01E199FECFAF
:100B000020E030E00FC0F901EA0FFB1FFFBBEEBB96
:100B10009CB391609CBBFB01E20FF31F9DB39083DC
:100B20002F5F3F4F2417350770F30895E199FECFEB
:100B30009FBB8EBB8CB381608CBB8DB3861739F0A5
:100B40006DBB8CB384608CBB8CB382608CBB08950E
:100B5000CF93DF93DC01EA0120E030E01AC0E19995
:100B6000FECFC9018A0F9B1F9FBB8EBB9CB39160B8
:100B70009CBB5DB3FB01E20FF31F9081591739F065
:100B80009DBB9CB394609CBB9CB392609CBB2F5F4D
:100B90003F4F2C173D0718F3DF91CF91089541E0A7
:100BA00063E083E00E94D20841E064E083E00E94B9
:100BB000D20841E065E083E00E94D20841E066E0AF
:100BC00083E00E94D20840E062E082E00E94D20806
:100BD00040E063E082E00E94D20840E064E082E00E
:100BE0000E94D20840E065E082E00E94D20841E025
:100BF00063E083E00E94440941E064E083E00E94F6
:100C0000440941E065E083E00E94440941E066E078
:100C100083E00E94440941E062E082E00E944409CE
:100C200041E063E082E00E94440941E064E082E048
:100C30000E94440941E065E082E00E94440980E0AE
:100C400008956F927F928F929F92AF92BF92CF92B0
:100C5000DF92EF92FF920F931F93CF93DF93CDB765
:100C6000DEB7A1970FB6F894DEBF0FBECDBF5C0113
:100C700083E089838A838B838C838D8334E03E83F6
:100C800025E02F8396E0988792E099879A879B8743
:100C90009C879D878E873F87288B8FEFF501808308
:100CA00077C0C82CD12CE5E0F0E0EC0FFD1FEC0D77
:100CB000FD1D6080E1E0F0E0EC0FFD1FEC0DFD1D7F
:100CC000708040E0662D872D0E94440910E051C0DD
:100CD000E12EF12CEDE0F0E0EC0FFD1FEE0DFF1D1D
:100CE0000081E9E0F0E0EC0FFD1FEE0DFF1D9080AC
:100CF000AE014F5E5F4F602F892D0E94B609898932
:100D0000811136C083EC99E00197F1F700C0000033
:100D1000AE014F5E5F4F602F892D0E94B609898911
:100D2000811126C007C0AE014F5E5F4F602F892D35
:100D30000E94B60989898823B1F380E1E0E6F0E0FA
:100D4000DE01529601900D928A95E1F7EE0CFF1CA0
:100D5000EE0CFF1CE1E0F0E0EC0FFD1FEE0EFF1EBD
:100D6000F701EC0DFD1D8189F501808381E015C03F
:100D70001F5F143008F4ACCF41E0662D872D0E9430
:100D80004409839401C0812CF3E0F81508F089CF61
:100D9000F50180818F3FB9F380E0A1960FB6F894FA
:100DA000DEBF0FBECDBFDF91CF911F910F91FF909E
:100DB000EF90DF90CF90BF90AF909F908F907F90FB
:100DC0006F9008951F93CF93DF931F92CDB7DEB737
:100DD000182F40E063E081E00E94440940E062E0B7
:100DE00081E00E9444091832E1F5AE014F5F5F4F88
:100DF00061E081E00E94B6098981811132C0412FF2
:100E0000441F4427441F67E00E94440916FB4427FF
:100E100040F966E080E00E94440915FB442740F950
:100E200065E080E00E94440914FB442740F964E037
:100E300080E00E94440941E063E081E00E944409AF
:100E400081EE94E00197F1F700C0000040E063E01C
:100E500081E00E94440983ED90E30197F1F700C01F
:100E60000000412F441F4427441F67E080E00E9498
:100E7000440916FB442740F966E080E00E944409DB
:100E800015FB442740F965E080E00E94440914FB0B
:100E9000442740F964E080E00E94440941E063E0B7
:100EA00081E00E94440981EE94E00197F1F700C0CF
:100EB000000040E063E081E00E94440983ED90E39C
:100EC0000197F1F700C0000013FB442740F967E0E9
:100ED00080E00E94440912FB442740F966E080E06C
:100EE0000E94440911FB442740F965E080E00E941C
:100EF0004409412F417064E080E00E94440941E0D0
:100F000063E081E00E94440981EE94E00197F1F7EB
:100F100000C0000040E063E081E00E94440983EDEE
:100F200090E30197F1F700C0000080E00F90DF919F
:100F3000CF911F91089541E061E081E00E94D208C5
:100F400041E062E081E00E94D20841E063E081E09C
:100F50000E94D20841E067E080E00E94D20841E0B0
:100F600066E080E00E94D20841E065E080E00E94F7
:100F7000D20841E064E080E00E94D2088DE292E273
:100F80000197F1F700C0000040E061E081E00E94BD
:100F9000440988E20E94E20689EF90E00197F1F7A8
:100FA00000C0000040E061E081E00E9444098FE061
:100FB0000E94E20689EF90E00197F1F700C000007F
:100FC00040E061E081E00E94440981E00E94E20685
:100FD00083EF91E00197F1F700C0000040E061E08D
:100FE00081E00E94440986E00E94E20680E00895C4
:100FF000CF93C82F41E061E081E00E9444098C2F2B
:101000000E94E20680E0CF910895AF92BF92CF9206
:10101000DF92EF92FF920F931F93CF93DF936115AF
:1010200071058105910561F541E061E081E00E9473
:10103000440980E30E94E206A12C54C02AE030E07B
:1010400040E050E00E944E0ACC0CDD1CEE1CFF1C60
:10105000D701C601880F991FAA1FBB1F880F991FB0
:10106000AA1FBB1FC80ED91EEA1EFB1EC60ED11C2E
:10107000E11CF11CCF5F622F732F842F952F04C0CA
:10108000C0E0C12CD12C7601611571058105910557
:10109000A9F6A12C1BC041E061E081E00E94440957
:1010A000C701B6012AE030E040E050E00E944E0A5D
:1010B000B22E032F142FD52F80E3860F0E94E20655
:1010C000A82ECB2CD02EE12EFD2EC150C114D10460
:1010D000E104F10401F704C080E30E94E206C1507C
:1010E000C111FACF8A2DDF91CF911F910F91FF90FF
:1010F000EF90DF90CF90BF90AF9008950F931F9324
:10110000CF93DF93EC01892B79F482E011C041E0A9
:1011100061E081E00E9444098E010F5F1F4F8881CA
:101120000E94E206E80101C080E098819111EFCFB2
:10113000DF91CF911F910F9108951F93CF93DF936C
:101140008230A8F46031A8F4162FC82F40E061E087
:1011500081E00E944409D82F8C2F90E0029620E471
:10116000829F100D1124812F0E94E20603C0D0E05F
:1011700001C0D0E08D2FDF91CF911F910895CF93C3
:1011800040E061E081E00E944409C82F81E00E94B4
:10119000E2068C2FCF91089581EB8ABB86E18BBB51
:1011A00080E00895843008F067C0683008F066C0B9
:1011B000423008F065C08130E9F030F0823081F1D2
:1011C000833009F443C05EC081E090E0062E02C087
:1011D000880F991F0A94E2F780952AB32823842F59
:1011E00090E002C0880F991F6A95E2F7822B8ABBB4
:1011F00081E0089521E030E0062E02C0220F331F67
:101200000A94E2F7209587B32823842F90E002C048
:10121000880F991F6A95E2F7822B87BB81E00895BA
:1012200021E030E0062E02C0220F331F0A94E2F7BD
:10123000209584B32823842F90E002C0880F991F43
:101240006A95E2F7822B84BB81E0089521E030E0CB
:10125000062E02C0220F331F0A94E2F7209581B3B5
:101260002823842F90E002C0880F991F6A95E2F727
:10127000822B81BB81E0089583E0089583E0089587
:1012800083E0089581E00895843008F067C06830F5
:1012900008F066C0423008F065C08130E9F030F0F7
:1012A000823081F1833009F443C05EC081E090E078
:1012B000062E02C0880F991F0A94E2F780952BB37F
:1012C0002823842F90E002C0880F991F6A95E2F7C7
:1012D000822B8BBB81E0089521E030E0062E02C016
:1012E000220F331F0A94E2F7209588B32823842F16
:1012F00090E002C0880F991F6A95E2F7822B88BBA5
:1013000081E0089521E030E0062E02C0220F331F55
:101310000A94E2F7209585B32823842F90E002C039
:10132000880F991F6A95E2F7822B85BB81E00895AB
:1013300021E030E0062E02C0220F331F0A94E2F7AC
:10134000209582B32823842F90E002C0880F991F34
:101350006A95E2F7822B82BB81E0089583E00895CD
:1013600083E0089583E0089581E0089541155105D3
:10137000E1F18430E0F56830E0F5813091F028F05B
:101380008230D9F0833029F136C089B390E002C0B1
:10139000959587956A95E2F78170FA01808381E0DF
:1013A000089586B390E002C0959587956A95E2F717
:1013B0008170FA01808381E0089583B390E002C0D8
:1013C000959587956A95E2F78170FA01808381E0AF
:1013D000089580B390E002C0959587956A95E2F7ED
:1013E0008170FA01808381E0089582E0089583E0AE
:1013F000089583E0089581E0089587B3806B87BBEB
:101400008DB181658DB908958FB9779BFECF8FB16E
:1014100008951BB888E18AB986E880BD87E689B956
:1014200010BC80E008955D9BFECF8CB980E00895EC
:101430005F9BFECF2CB1FC01208380E00895AC01BE
:1014400020E009C05D9BFECF9CB990917E029F5F1A
:1014500090937E022F5FFA01E20FF11D90819111AE
:10146000F1CF80E00895AC0120E05F9BFECFFA0150
:10147000E20FF11D9CB190835D9BFECF9CB99081E2
:101480009D3021F09A3011F02F5FEFCF108280E075
:10149000089580917E02811181E00895A1E21A2EC3
:1014A000AA1BBB1BFD010DC0AA1FBB1FEE1FFF1F08
:1014B000A217B307E407F50720F0A21BB30BE40B58
:1014C000F50B661F771F881F991F1A9469F760959F
:1014D0007095809590959B01AC01BD01CF01089559
:1014E000EE0FFF1F0590F491E02D0994F894FFCFC3
:1014F0003738392B3435362D3132337863303D2F40
:10150000557365726E616D653A0050617373776FE4
:1015100072643A00557365726E616D653A200050D1
:10152000617373776F72643A200057656C636F6DF7
:101530006520546F20536D61727400486F6D652093
:101540002100466F722046697273742054696D657C
:101550000055736500526567697374657220416454
:101560006D696E006F6E204B657970616400536128
:1015700076656400505245535320454E54455220E1
:10158000544F2053544152540D0A000D0A57726FA4
:101590006E6720557365726E616D65206F722050A5
:1015A000617373776F7264000D0A52656D61696EC5
:1015B000696E6720547269616C733A20000D0A4CA1
:1015C0006F6767656420696E205375636365737325
:1015D00066756C6C79000D0A57656C636F6D6520DC
:1015E00041646D696E3A0A000D0A312D4164642030
:1015F00055736572000D0A322D52656D6F76652048
:1016000055736572000D0A332D526F6F6D31000DE9
:101610000A342D526F6F6D32000D0A352D526F6FE7
:101620006D33000D0A362D526F6F6D34000D0A3781
:101630002D526F6F6D35000D0A382D44696D6D6543
:1016400072000D0A392D446F6F720D0A000D0A49A0
:101650006E76616C69642043686F696365000D0A8A
:10166000312D52656D6F746564000D0A322D507214
:101670006F6D6F746564000D0A332D4E6F6E726569
:101680006D6F746564000D0A5072696F72697479C8
:1016900020417272616E676D656E743A2050726F90
:1016A0006D6F746564203E204E6F6E72656D6F7451
:1016B000656420284C43442B4B6579706164292074
:1016C0003E2052656D6F7465640057726F6E6720BF
:1016D000557365726E616D65004C6F676765642058
:1016E000696E0057656C636F6D6520557365720098
:1016F000312D4C696768747320322D44696D6D65B6
:0E1700007200332D41697220436F6E64000049
:00000001FF
