:100000000C9433000C94E00A0C9450000C945000B3
:100010000C9450000C9450000C9450000C94500020
:100020000C9450000C9450000C9450000C94500010
:100030000C9450000C9450000C9450000C94500000
:100040000C9450000C9450000C9450000C945000F0
:100050000C945000360438043A043C043E04430433
:1000600037055405470411241FBECFE5D8E0DEBF95
:10007000CDBF14E0A0E6B0E0E0E6F7E102C00590F5
:100080000D92A43BB107D9F724E0A4EBB4E001C082
:100090001D92A93BB207E1F70E9465010C94AE0BDB
:1000A0000C940000CF92DF92EF92FF920F931F9378
:1000B000CF93DF93CDB7DEB72B970FB6F894DEBFA3
:1000C0000FBECDBFE982FA820B831C832D833E8352
:1000D0004F83588769877A878B87F6018081F9E09B
:1000E0008F9FC001112444E050E0BE016F5F7F4F3D
:1000F00042960E94E1062FEF80E792E02150804077
:100100009040E1F700C00000F6018081F9E08F9F88
:10011000C001112444E050E0BE016A5F7F4F469663
:100120000E94E1062FEF80E792E02150804090404E
:10013000E1F700C00000F6018081F9E08F9FC00167
:1001400011246B854A960E94D5062FEF80E792E036
:10015000215080409040E1F700C00000F60160812E
:100160006F5F608381E190E00E94D5062B960FB609
:10017000F894DEBF0FBECDBFDF91CF911F910F91DD
:10018000FF90EF90DF90CF900895AF92BF92CF9203
:10019000DF92EF92FF920F931F93CF93DF931F9203
:1001A000CDB7DEB78C016B010E94F70980E890E0C3
:1001B0000E94BC0960E081E00E94D90978015801E1
:1001C00024E0A20EB11CCE0101960E944D07898148
:1001D0000E9442098981F70181937F01EA15FB059D
:1001E00091F7F80114820E94F7098AE890E00E94D2
:1001F000BC0960E081E00E94D909760110E0CE01DF
:1002000001960E944D0789810E944209FFEF29E66D
:1002100088E1F15020408040E1F700C00000612FEC
:1002200081E00E94D9098AE20E9442098981F7018E
:1002300081937F011F5F143011F7F601148281E072
:100240000F90DF91CF911F910F91FF90EF90DF9072
:10025000CF90BF90AF9008950F931F93CF93DF93EC
:100260008C01EB0184E990E00E942B0BC8010E94F5
:100270003A0BF801148283EA90E00E942B0BCE0126
:100280000E943A0B1C8281E0DF91CF911F910F9168
:100290000895DC0140E0242F30E0FD01E20FF31F60
:1002A0009081FB01E20FF31F2081921304C0992378
:1002B00041F04F5FF0CF911106C081E0222321F081
:1002C00002C081E0089580E00895CF93DF93CDB719
:1002D000DEB7C754D1090FB6F894DEBF0FBECDBF4D
:1002E0000E94040A0E94090B0E94150B0E94E50857
:1002F0000E94FB060E94D80A41E061E083E00E9470
:100300000A0A789428961FAE289727961FAE27973B
:1003100088ED90E00E94BC0960E081E00E94D9096C
:1003200089EE90E00E94BC09BE01695B7F4F80E0CE
:100330000E94B8062FEF37EA81E621503040804016
:10034000E1F700C000000E94F70928968FAD2897BA
:100350008F3F09F091C027966FAD279781E190E01C
:100360000E94D5069FEFE2E5F7E09150E040F040B3
:10037000E1F700C0000081EF90E00E94BC0960E05E
:1003800081E00E94D90980E091E00E94BC092FEF32
:1003900037EA81E6215030408040E1F700C000009C
:1003A0000E94F70984E091E00E94BC0960E081E0CE
:1003B0000E94D90983E191E00E94BC099FEFE7EA1E
:1003C000F1E69150E040F040E1F700C00000BE01CE
:1003D0006E5C7F4FCE018D960E94C50081E08FAB91
:1003E00044E050E0BE01635D7F4F81E090E00E94F9
:1003F000E1062FEF32E587E0215030408040E1F701
:1004000000C0000044E050E0BE016E5C7F4F85E01C
:1004100090E00E94E1069FEFE2E5F7E09150E040B6
:10042000F040E1F700C0000060E080E090E00E9452
:10043000D5062FEF32E587E0215030408040E1F7CC
:1004400000C000000E94F7098DE191E00E94BC0904
:1004500060E081E00E94D9098AE591E00E94BC0930
:100460009FEFE3EDF0E39150E040F040E1F700C092
:1004700000000E94F7099EC08111A0C0BE016A5B06
:100480007F4F81E10E94B8062FEF32E587E02150CF
:1004900030408040E1F700C0000044E050E0BE0181
:1004A000635D7F4F81E090E00E94C10619AA9FEF33
:1004B000E2E5F7E09150E040F040E1F700C00000D5
:1004C00044E050E0BE016E5C7F4F85E090E00E940A
:1004D000C1061EAA2FEF32E587E021503040804050
:1004E000E1F700C0000081E08FAB9FEFE2E5F7E0AD
:1004F0009150E040F040E1F700C00000D12CEBE06B
:10050000CE2E27968FAD2797D81608F053C029E036
:10051000D29E70011124370132E1630E711CCD9C13
:100520004001112401E010E00C0F1D1F080D191DE2
:1005300044E050E0B801C3010E94C1068FEF92E58C
:10054000E7E081509040E040E1F700C00000B401D6
:100550006B5F7F4F21E030E02C0F3D1F620F731F58
:1005600044E050E0C70146960E94C1063FEF82E595
:1005700097E0315080409040E1F700C00000B401A6
:10058000665F7F4FE1E0F0E0EC0FFD1F6E0F7F1F15
:1005900088E0860D0E94B806FFEF22E537E0F150B3
:1005A00020403040E1F700C00000F80114821186BD
:1005B000D394A7CF87E028968FAF289773E0972E24
:1005C00010E083E291E00E942B0B28968FAD2897D4
:1005D000873019F06BE0D62E98C00E94F7098AE3A5
:1005E00091E00E94BC0960E081E00E94D90986E4A4
:1005F00091E00E94BC0902E053E0F52E28968FADF1
:100600002897873039F78091B404813021F42896F7
:10061000FFAE2897F3CF0E94500B882379F32896DA
:100620000FAF2897EBCFBE01685C7F4FCE01CD9610
:100630000E942C01BE01635D7F4FCE01CD960E94CA
:100640004901811169C000E027968FAD27970817EF
:1006500008F089C3E02EF12CDE9C3001DF9C700C89
:100660001124BE01635C7F4F81E090E08C0F9D1FE1
:10067000860D971D0E944901882309F47CC0C3019F
:100680000596BE01685C7F4F21E030E02C0F3D1FD6
:10069000820F931F0E94490191E0811101C090E0F7
:1006A000B92E31E0B31282C0DE9CC001DF9C900DF8
:1006B0001124EE24E394F12CEC0EFD1EE80EF91E3D
:1006C000F70182858250823008F457C00FEF090D80
:1006D00085E991E00E942B0BFFEF25EA3EE0F15007
:1006E00020403040E1F700C0000082EB91E00E9422
:1006F0002B0B8FE2890D0E941F0B011104C086E0B5
:1007000028968FAF2897B12C902E28968FAD2897DA
:10071000823009F488CF4CC0BE016E5C7F4FCE01A1
:10072000C8960E94490101E0811101C000E001303A
:1007300009F089CF8EE491E00E942B0BFFEF29E6B0
:1007400038E1F15020403040E1F700C0000087E67A
:1007500091E00E942B0B8FEF99E6E8E181509040E9
:10076000E040E1F700C000000093B60484E0289662
:100770008FAF2897F6C2B12C94CF8AE791E00E9400
:100780002B0BFFEF29E638E1F15020403040E1F734
:1007900000C0000084E028968FAF2897F70182857B
:1007A000833009F0DEC2B092B504DBC20F5F4CCFDC
:1007B00024E6722E3BE0832E28968FAD2897843056
:1007C00009F0B4C111119CC087EC91E00E942B0B81
:1007D00081ED91E00E942B0B8BED91E00E942B0BA1
:1007E00085EE91E00E942B0B8FEE91E00E942B0B87
:1007F00089EF91E00E942B0B84E092E00E942B0B8A
:100800008091B604813091F488E192E00E942B0B34
:1008100081E292E00E942B0B8EE292E00E942B0B71
:10082000CE018C5B9F4F0E94240B11C087E791E0A3
:100830000E942B0BCE018C5B9F4F0E94240B2596B0
:100840008FAD2597863318F025967FAE2597259690
:10085000EFAD25978E2F90E0FC01F197E930F1057F
:1008600008F040C0E65DFF4F0C948E0B81E007C09E
:1008700082E005C083E003C084E001C085E00E94FF
:10088000100B1BE027C18CE00E94100BC2C0279602
:100890008FAD2797843090F4889EC0011124BC014D
:1008A0006B5F7F4FE1E0F0E0EC0FFD1F6E0F7F1FED
:1008B0008E0F9F1F0E942C011FE033C081E492E045
:1008C0000E942B0B8AE692E00E942B0B86E892E0B6
:1008D0000E942B0BFFEF2DE232E2F150204030401E
:1008E000E1F70BC081EA92E00E942B0B8FEF93EDB2
:1008F000E0E381509040E040E1F700C0000064CFA9
:100900001A3009F4D1C038F4183009F482C0193013
:1009100009F4ADC051CF1B3009F4DCC01F3009F021
:100920004BCF84EB92E00E942B0B80EC92E00E9474
:100930002B0B8DEC92E00E942B0B8CED92E00E9431
:100940002B0BCE018C5B9F4F0E94240B25968FAD05
:100950002597813369F427968FAD2797E1E0F0E082
:10096000EC0FFD1F889EE00DF11D112482E00EC0EA
:10097000823319F527968FAD2797E1E0F0E0EC0F71
:10098000FD1F889EE00DF11D112483E082879E01EA
:100990002A5B3F4F6901E080F1800281138124814D
:1009A000358146815781608571850E94520084E2BD
:1009B00093E00E942B0B1BE0FFCE8333E1F42796DC
:1009C0008FAD2797E1E0F0E0EC0FFD1F889EE00D72
:1009D000F11D11241286CE018A5B9F4F6C01E080CD
:1009E000F1800281138124813581468157816085A0
:1009F000718580E0DACF81EA92E00E942B0B9FEFB5
:100A0000E3EDF0E39150E040F040E1F700C000007A
:100A1000D3CE80E493E00E942B0BCE018D5B9F4FE1
:100A20000E94240B24968FAD24970E941F0B2496BE
:100A30008FAD2497805324968FAF2497CE018E5B81
:100A40009F4F0E94240B23968FAD23970E941F0B6C
:100A500023968FAD2397805323968FAF23972496A9
:100A60009FAD24972AE0929F800D112430C087E625
:100A700093E00E942B0BCE018C5B9F4F0E94240BB6
:100A800025968FAD2597813311F480E120C0823304
:100A900011F481E11CC0803309F43FC082EB93E084
:100AA0000E942B0B1AE088CE86EC93E00E942B0B61
:100AB000CE018C5B9F4F0E94240B25968FAD25970E
:100AC000813311F48DE003C0823329F78EE00E9458
:100AD000100B71CF8EE094E00E942B0BCE018C5B4B
:100AE0009F4F0E94240B25968FAD25978133B9F433
:100AF00087E028968FAF289783E394E00E942B0B22
:100B00008091B604813019F41092B60406C0809129
:100B1000B504813011F41092B50410E04DCE82334B
:100B2000E1F382EB93E00E942B0B46CE9BE0D92EA3
:100B300028968FAD2897833009F0B1C0BE01685C5C
:100B40007F4FCE01CD960E94C50000E027968FAD65
:100B50002797081708F09EC0E02EF12CDE9C30018C
:100B6000DF9C700C1124BE01635C7F4F81E090E03C
:100B70008C0F9D1F860D971D0E944901882399F0B7
:100B8000C3010596BE01685C7F4FE1E0F0E0EC0F29
:100B9000FD1F8E0F9F1F0E94490191E0811101C02E
:100BA00090E0A92E01C0A12CF1E0AF1271C0DE9C33
:100BB000F001DF9CF00D112421E030E02C0F3D1FEF
:100BC000E20FF31F82858823B1F19A940E94F709FE
:100BD00082E494E00E94BC0960E081E00E94D909AF
:100BE00086EA91E00E94BC093FEF8DE292E231502B
:100BF00080409040E1F700C000000E94F70984EBBC
:100C000091E00E94BC0960E081E00E94D909892D31
:100C100090E00E944F09EFEFFDE222E2E150F04048
:100C20002040E1F700C00000911037C086E0289610
:100C30008FAF289732C00E94F70981E594E00E94A7
:100C4000BC0960E081E00E94D9098AE591E00E9438
:100C5000BC093FEF8DE292E2315080409040E1F7D5
:100C600000C000000E94F7098BE594E00E94BC09D7
:100C7000EFEFFDE222E2E150F0402040E1F700C05A
:100C8000000085E028968FAF289783E0982E50CFFC
:100C90000F5F5CCFA1104CCF98CFA12C49CF8530EE
:100CA00009F08FCC0E94F70988E694E00E94BC0905
:100CB00060E081E00E94D9098AE794E00E94BC09C3
:100CC000CE018B5B9F4F0E944D0726968FAD2697D6
:100CD000823389F1833309F43FC0813371F50E9477
:100CE000F70985E894E00E94BC0960E081E00E9479
:100CF000D90987E994E00E94BC09CE018B5B9F4F24
:100D00000E944D0726968FAD2697813311F481E01E
:100D10000FC0823311F482E00BC0833311F483E0FF
:100D200007C0843311F484E003C08533A9F485E05F
:100D30000E94100B11C08CE0FBCF0E94F70985EADE
:100D400094E00E94BC093FEF83EC99E03150804071
:100D50009040E1F700C0000087E028968FAF289709
:100D600030CC03E0D1CCBB2009F4B0CC092DCCCCE5
:100D7000E199FECF9FBB8EBBE09A8DB3FB018083D0
:100D80000895E199FECF460F571FFB01861B970B75
:100D9000E417F50749F09C012E0F3F1F3FBB2EBB08
:100DA000E09A2DB32193F4CF0895E199FECF9FBB34
:100DB0008EBBE09A8DB3861719F06DBBE29AE19A6B
:100DC0000895460F571FFB019C01261B370BE417A4
:100DD000F50781F0E199FECFC9018E0F9F1F9FBBE0
:100DE0008EBBE09A8DB39191891789F39DBBE29AEE
:100DF000E19AEDCF089541E063E083E00E940A0AA2
:100E000041E064E083E00E940A0A41E065E083E09B
:100E10000E940A0A41E066E083E00E940A0A40E07C
:100E200062E082E00E940A0A40E063E082E00E9401
:100E30000A0A40E064E082E00E940A0A40E065E0BD
:100E400082E00E940A0A41E063E083E00E94600AB7
:100E500041E064E083E00E94600A41E065E083E0F5
:100E60000E94600A41E066E083E00E94600A41E07F
:100E700062E082E00E94600A41E063E082E00E945A
:100E8000600A41E064E082E00E94600A41E065E0BF
:100E900082E00E94600A80E008952F923F924F9274
:100EA0005F926F927F928F929F92AF92BF92CF92FA
:100EB000DF92EF92FF920F931F93CF93DF93CDB703
:100EC000DEB7A3970FB6F894DEBF0FBECDBF6C019F
:100ED0008091600090916100A0916200B0916300E8
:100EE0008D8F9E8FAF8FB8A3809164009091650025
:100EF000A0916600B0916700898F9A8FAB8FBC8FED
:100F00008091680090916900A0916A00B0916B0097
:100F10008D8B9E8BAF8BB88F80916C0090916D0004
:100F2000A0916E00B0916F00898B9A8BAB8BBC8BBC
:100F30008FEFF6018083F60180818F3F09F07BC03F
:100F40003E01F9E16F0E711CCE014D969BA38AA361
:100F5000E12CF12CF30121903F01EAA1FBA131909A
:100F6000FBA3EAA340E0622D832D0E94600A4E019C
:100F7000F1E18F0E911C5E0185E1A80EB11C00E02D
:100F800010E0F40151904F01F50141905F01AE0175
:100F90004F5D5F4F652D842D0E94B60A89A1811196
:100FA00036C083EC99E00197F1F700C00000AE0174
:100FB0004F5D5F4F652D842D0E94B60A89A1811176
:100FC00026C089A1811108C0AE014F5D5F4F652D1C
:100FD000842D0E94B60AF5CF80E1E0E7F0E0DE0163
:100FE000119601900D928A95E1F7000F111F000FE5
:100FF000111FE1E0F0E0EC0FFD1F0E0F1F1FF801C5
:10100000EE0DFF1D8081F601808381E015C00F5F2A
:101010001F4F0430110509F0B4CF41E0622D832D3C
:101020000E94600AFFEFEF1AFF0A84E0E816F1045D
:1010300009F090CF80CF80E0A3960FB6F894DEBF82
:101040000FBECDBFDF91CF911F910F91FF90EF9019
:10105000DF90CF90BF90AF909F908F907F906F90D8
:101060005F904F903F902F9008951F93CF93DF9301
:101070001F92CDB7DEB7182F40E063E081E00E94F9
:10108000600A40E062E081E00E94600A183299F54F
:10109000AE014F5F5F4F61E081E00E94B60A898137
:1010A000811129C040E067E00E94600A40E066E0EC
:1010B00080E00E94600A41E065E080E00E94600AF2
:1010C00040E064E080E00E94600A41E063E081E08B
:1010D0000E94600A81EE94E00197F1F700C00000E1
:1010E00040E063E081E00E94600A83ED90E30197B5
:1010F000F1F700C00000412F441F4427441F67E060
:1011000080E00E94600A16FB442740F966E080E018
:101110000E94600A15FB442740F965E080E00E94C8
:10112000600A14FB442740F964E080E00E94600AF2
:1011300041E063E081E00E94600A81EE94E0019763
:10114000F1F700C0000040E063E081E00E94600A27
:1011500083ED90E30197F1F700C0000013FB4427F3
:1011600040F967E080E00E94600A12FB442740F9E2
:1011700066E080E00E94600A11FB442740F965E0C8
:1011800080E00E94600A412F417064E080E00E948C
:10119000600A41E063E081E00E94600A81EE94E031
:1011A0000197F1F700C0000040E063E081E00E9499
:1011B000600A83ED90E30197F1F700C0000080E042
:1011C0000F90DF91CF911F91089541E061E081E0A0
:1011D0000E940A0A41E062E081E00E940A0A41E0BE
:1011E00063E081E00E940A0A41E067E080E00E943B
:1011F0000A0A41E066E080E00E940A0A41E065E0F8
:1012000080E00E940A0A41E064E080E00E940A0A4D
:101210008DE292E20197F1F700C0000040E061E04A
:1012200081E00E94600A88E20E94350889EF90E020
:101230000197F1F700C0000040E061E081E00E940A
:10124000600A8FE00E94350889EF90E00197F1F77E
:1012500000C0000040E061E081E00E94600A81E09F
:101260000E94350883EF91E00197F1F700C000007C
:1012700040E061E081E00E94600A86E00E9435085B
:1012800080E00895CF93C82F41E061E081E00E94A3
:10129000600A8C2F0E94350880E0CF9108956F92EC
:1012A0007F928F929F92AF92BF92CF92DF92EF92F6
:1012B000FF920F931F93CF93DF93FC01892B51F47F
:1012C00041E061E081E00E94600A80E30E9435080D
:1012D000D0E042C0C0E0C12CD12C76010AE010E081
:1012E000AAE0B0E0A70196010E94940B6B017C017B
:1012F000CF01B8010E94580BC80ED91EE11CF11C89
:10130000CF5FFB01309761F7D0E08AE0882E912C07
:10131000A12CB12CC114D104E104F104B1F041E0DD
:1013200061E081E00E94600AC701B601A501940155
:101330000E946C0B39018A0180E3860F0E943508F8
:10134000D82F63017801C150E5CFCC2329F080E389
:101350000E943508C150F9CF8D2FDF91CF911F9199
:101360000F91FF90EF90DF90CF90BF90AF909F9044
:101370008F907F906F9008950F931F93CF93DF937B
:10138000009789F0EC0180E08E019881992361F04B
:1013900041E061E081E00E94600A2196F8018081CD
:1013A0000E943508F1CF82E0DF91CF911F910F911C
:1013B00008951F93CF93DF93823098F4603188F4BF
:1013C000C62FD82F40E061E081E00E94600A182F0C
:1013D0008C2F90E4D99F800D112480580E943508ED
:1013E00001C010E0812FDF91CF911F910895CF931D
:1013F00040E061E081E00E94600AC82F81E00E9425
:1014000035088C2FCF91089581EB8ABB86E18BBB89
:1014100080E00895843008F051C0683008F04EC074
:10142000423008F04BC0823039F18330B1F1813065
:1014300089F081E090E0062E01C0880F0A94EAF757
:1014400080959AB3892301C0440F6A95EAF7482B27
:101450004ABB10C081E090E0062E01C0880F0A94BC
:10146000EAF7809597B3892301C0440F6A95EAF79C
:10147000482B47BB81E0089581E090E0062E01C033
:10148000880F0A94EAF7809594B3892301C0440F2A
:101490006A95EAF7482B44BBEDCF81E090E0062E39
:1014A00001C0880F0A94EAF7809591B3892301C09F
:1014B000440F6A95EAF7482B41BBDCCF83E00895DF
:1014C000843008F051C0683008F04EC0423008F057
:1014D0004BC0823039F18330B1F1813089F081E045
:1014E00090E0062E01C0880F0A94EAF780959BB31E
:1014F000892301C0440F6A95EAF7482B4BBB10C003
:1015000081E090E0062E01C0880F0A94EAF78095EA
:1015100098B3892301C0440F6A95EAF7482B48BB6A
:1015200081E0089581E090E0062E01C0880F0A94C2
:10153000EAF7809595B3892301C0440F6A95EAF7CD
:10154000482B45BBEDCF81E090E0062E01C0880F0F
:101550000A94EAF7809592B3892301C0440F6A95F3
:10156000EAF7482B42BBDCCF83E00895FA013097BD
:10157000D9F08430D8F46830C8F4823041F0833038
:1015800089F0813011F089B303C086B301C083B301
:1015900090E002C0959587956A95E2F78170808307
:1015A00081E0089580B3F4CF82E0089583E0089548
:1015B0008BB780648BBF85B7836085BF80E008955B
:1015C0001F920F920FB60F9211242F933F934F93B8
:1015D0005F936F937F938F939F93AF93BF93EF939B
:1015E000FF93E091B704F091B804309709F00995A2
:1015F000FF91EF91BF91AF919F918F917F916F91EB
:101600005F914F913F912F910F900FBE0F901F90C0
:10161000189587B3806B87BB8DB181658DB90895AF
:101620008FB9779BFECF8FB108951BB888E18AB937
:1016300086E880BD87E689B910BC80E008955D9B8F
:10164000FECF8CB980E008955F9BFECF2CB1FC01EA
:10165000208380E00895AC0190E0FA01E90FF11DCC
:101660002081222329F05D9BFECF2CB99F5FF5CF0F
:1016700080E00895AC0190E05F9BFECFFA01E90F96
:10168000F11D2CB120835D9BFECF2CB920812D3024
:1016900021F02A3011F09F5FEFCF108280E0089593
:1016A0008BB1881F8827881F11F08CB181E00895C5
:1016B000AA1BBB1B51E107C0AA1FBB1FA617B70778
:1016C00010F0A61BB70B881F991F5A95A9F7809594
:1016D0009095BC01CD010895A1E21A2EAA1BBB1B57
:1016E000FD010DC0AA1FBB1FEE1FFF1FA217B307EE
:1016F000E407F50720F0A21BB30BE40BF50B661F04
:10170000771F881F991F1A9469F7609570958095C7
:1017100090959B01AC01BD01CF010895EE0FFF1F15
:101720000590F491E02D09940E949F0BA59F900DC8
:10173000B49F900DA49F800D911D11240895A29F28
:10174000B001B39FC001A39F700D811D1124911D95
:10175000B29F700D811D1124911D0895F894FFCF43
:101760000303030303040506020202020203040545
:101770003738392B3435362D3132337863303D2FBD
:10178000557365726E616D653A0050617373776F62
:1017900072643A000D0A0D0A557365726E616D65CB
:1017A0003A200050617373776F72643A20000D0A1B
:1017B000456E74657220557365726E616D65205259
:1017C0006571756972656420746F20626520526569
:1017D0006D6F7665643A200057656C636F6D6520A8
:1017E000546F20536D61727400486F6D6520212025
:1017F00000466F722046697273742054696D6500EB
:101800005573650052656769737465722041646D34
:10181000696E006F6E204B6579706164005361766C
:10182000656400505245535320454E544552205450
:101830004F2053544152540D0A00416C6C204465B2
:10184000766963657300417265204F6666000D0A14
:101850004C6F6767656420696E20537563636573B9
:101860007366756C6C79000D0A57656C636F6D65F6
:101870002041646D696E200D0A000D0A4C6F676788
:10188000656420696E205375636365737366756C58
:101890006C790D0A000D0A57726F6E6720557365DB
:1018A000726E616D65206F722050617373776F7215
:1018B00064000D0A52656D61696E696E672054722D
:1018C00069616C733A20000D0A312D526F6F6D31D2
:1018D000000D0A322D526F6F6D32000D0A332D52FA
:1018E0006F6F6D33000D0A342D526F6F6D34000D24
:1018F0000A352D526F6F6D35000D0A362D44696D16
:101900006D6572000D0A372D41697220436F6E6458
:101910006974696F6E6572000D0A382D446F6F72BD
:10192000000D0A392D4164642055736572000D0A5B
:1019300031302D52656D6F766520557365720D0AD5
:10194000000D0A5265616368656420546865204D26
:101950006178204E756D626572206F662053746FDA
:10196000726564205573657273000D0A436F756C60
:10197000646E27742053746F72652041204E657722
:101980002055736572000D0A52657475726E696E2A
:101990006720746F204D61696E204D656E750D0A6C
:1019A000000D0A496E76616C69642043686F696353
:1019B000650D0A000D0A312D52656D6F7465640066
:1019C0000D0A322D50726F6D6F746564000D0A330D
:1019D0002D4E6F6E72656D6F746564000D0A0D0A91
:1019E0005072696F7269747920417272616E676DAD
:1019F000656E743A2050726F6D6F746564203E207E
:101A00004E6F6E72656D6F74656420284C43442B75
:101A10004B657970616429203E2052656D6F746555
:101A2000640D0A000D0A5265676973746572656416
:101A3000205375636365737366756C6C790D0A006A
:101A40000D0A456E74657220546865205065726396
:101A5000656E74616765206F66204272696768749D
:101A60006E6573733A20000D0A312D4F70656E203C
:101A700041697220436F6E646974696F6E65720D9F
:101A80000A322D436C6F73652041697220436F6E7B
:101A9000646974696F6E65720D0A302D52657475D4
:101AA000726E20746F206D61696E206D656E750DAC
:101AB0000A000D0A496E76616C69642043686F699B
:101AC00063650D0A20000D0A446F6F72204F707419
:101AD000696F6E73200D0A20312D4F70656E2044A2
:101AE0006F6F720D0A20322D436C6F736520446F47
:101AF0006F720D0A20302D52657475726E20746FEE
:101B0000206D61696E206D656E750D0A20000D0AED
:101B1000312D4C6F67204F75740D0A322D5265744C
:101B200075726E20746F206D61696E206D656E75C3
:101B30000D0A000D0A4C6F67676564204F75740DC0
:101B40000A0057726F6E6720557365726E616D651E
:101B5000004C6F6767656420696E0057656C636F42
:101B60006D65205573657200312D4C69676874731B
:101B700020322D44696D6D657200332D41697220EC
:101B8000436F6E6400436F6E74726F6C20526F6FA0
:101B90006D204E756D200046726F6D203120746F80
:101BA00020353A2000496E76616C69642043686F85
:041BB0006963650000
:00000001FF
