S01100004156524D61737465722E73726563BE
S11300000C943A000C948C0D0C9457000C945700EB
S11300100C9457000C9457000C9457000C94570000
S11300200C9457000C9457000C9457000C945700F0
S11300300C9457000C9457000C9457000C945700E0
S11300400C9457000C9457000C9457000C945700D0
S11300500C94570005040A041404190438042A04EF
S1130060250485058A0596059B05A005AC05AF0505
S1130070B205E00511241FBECFE5D8E0DEBFCDBF39
S113008015E0A0E6B0E0E0ECFCE102C005900D92C2
S1130090A835B107D9F725E0A8E5B5E001C01D9260
S11300A0A036B207E1F70E943E020C945E0E0C9457
S11300B00000CF92DF92EF92FF920F931F93CF93A2
S11300C0DF93CDB7DEB72B970FB6F894DEBF0FBE24
S11300D0CDBFE982FA820B831C832D833E834F8339
S11300E0588769877A878B87F6018081F9E08F9F2B
S11300F0C001112444E050E0BE016F5F7F4F42967F
S11301000E94600D2FEF80E792E0215080409040E4
S1130110E1F700C00000F6018081F9E08F9FC00183
S1130120112444E050E0BE016A5F7F4F46960E946E
S1130130600D2FEF80E792E0215080409040E1F77E
S113014000C00000F6018081F9E08F9FC0011124F6
S11301506B854A960E94540D2FEF80E792E0215060
S113016080409040E1F700C00000F60160816F5FBD
S1130170608381E190E00E94540D2B960FB6F894B1
S1130180DEBF0FBECDBFDF91CF911F910F91FF90C6
S1130190EF90DF90CF900895AF92BF92CF92DF920D
S11301A0EF92FF920F931F93CF93DF931F92CDB7DC
S11301B0DEB77C018B010E94560C80E890E00E941F
S11301C01B0C60E081E00E94380C6701570184E059
S11301D0A80EB11CCE0101960E94AC0989810E942F
S11301E0A10B8981F60181936F01AE16BF0691F7C9
S11301F0F70114820E94560C8AE890E00E941B0CBE
S113020060E081E00E94380C78016801F4E0CF0ED0
S1130210D11CCE0101960E94AC098AE20E94A10B76
S11302208981F70181937F01EC15FD0591F7F801B0
S1130230148281E00F90DF91CF911F910F91FF9075
S1130240EF90DF90CF90BF90AF9008950F931F93DE
S1130250CF93DF938C01EB0184E990E00E94DB0DE6
S1130260C8010E94EA0DF801148283EA90E00E941A
S1130270DB0DCE010E94EA0D1C8281E0DF91CF915B
S11302801F910F910895DC0140E0242F30E0FD011F
S1130290E20FF31F9081FB01E20FF31F2081921301
S11302A004C0992341F04F5FF0CF911106C081E063
S11302B0222321F002C081E0089580E008957F9216
S11302C08F929F92AF92BF92CF92DF92EF92FF9262
S11302D00F931F93CF93DF9300D000D01F92CDB71D
S11302E0DEB78C015B018EEA90E00E94DB0DCE014B
S11302F001960E94EA0D1D82F50190807801D12CAF
S1130300D91409F47EC07E2C8F2CBE016F5F7F4F01
S1130310C7010E944301C82EFBE0EF0EF11C8823A5
S113032009F46DC0F8012BE0929EE00DF11D11243B
S11303303B978BE0A72DB82D01900D928A95E1F79C
S1130340F5018081F9E0DF9E70011124B8012BE0F2
S1130350829F600D711D11246B50710944E050E0BF
S1130360C70142960E94600D8FEF90E7E2E0815052
S11303709040E040E1F700C00000F5018081B80141
S1130380FBE08F9F600D711D11246650710944E0DC
S113039050E0C70146960E94600D2FEF80E792E07F
S11303A0215080409040E1F700C00000F5018081B9
S11303B0FBE08F9F000D111D1124F8013B9762850E
S11303C0C7014A960E94540D2FEF80E792E0215016
S11303D080409040E1F700C00000F5016081615069
S11303E0608381E190E00E94540DFFEF20E782E0FA
S11303F0F15020408040E1F700C0000003C0D394D6
S11304007FCFC12C8C2D0F900F900F900F900F90D9
S1130410DF91CF911F910F91FF90EF90DF90CF90DC
S1130420BF90AF909F908F907F90089521E030E02F
S113043001C0220F6A95EAF7FC013081232B208347
S1130440089521E030E001C0220F6A95EAF7FC012B
S1130450308123272083089580915D0581110DC08B
S113046080915C05811109C080915905811105C0F5
S113047083E080935A0510925B050895CF93DF9330
S1130480CDB7DEB7C754D1090FB6F894DEBF0FBE9F
S1130490CDBF0E94630C0E94B50D0E94C50D0E9441
S11304A0440B0E945A090E947A0D8CE292E00E9449
S11304B0820D41E061E083E00E94690C41E060E06C
S11304C082E00E94690C789428961FAE289726969D
S11304D01FAE269788ED90E00E941B0C60E081E03F
S11304E00E94380C89EE90E00E941B0C6AE575E0CE
S11304F080E00E94370D2FEF3DE282E22150304030
S11305008040E1F700C000000E94560C80915A051B
S11305108F3F09F091C028966FAD289781E190E054
S11305200E94540D9FEFE2E5F7E09150E040F04067
S1130530E1F700C0000080EF90E00E941B0C60E037
S113054081E00E94380C8FEF90E00E941B0C2FEF8B
S11305503DE282E2215030408040E1F700C00000DB
S11305600E94560C83E091E00E941B0C60E081E045
S11305700E94380C82E191E00E941B0C9FEFEDE297
S1130580F2E29150E040F040E1F700C00000BE010B
S11305906E5C7F4FCE018D960E94CC0081E08FABC4
S11305A044E050E0BE01635D7F4F81E090E00E9433
S11305B0600D2FEF32E587E0215030408040E1F7B5
S11305C000C0000044E050E0BE016E5C7F4F85E057
S11305D090E00E94600D9FEFE2E5F7E09150E0406B
S11305E0F040E1F700C0000060E080E090E00E948D
S11305F0540D2FEF32E587E0215030408040E1F781
S113060000C000000E94560C8CE191E00E941B0C7B
S113061060E081E00E94380C89EA91E00E941B0CA2
S11306209FEFEDE2F2E29150E040F040E1F700C0CC
S113063000000E94560C9FC08111A0C0BE01695BDE
S11306407F4F81E10E94370D2FEF32E587E0215083
S113065030408040E1F700C0000044E050E0BE01BB
S1130660635D7F4F81E090E00E94400D19AA9FEFE7
S1130670E2E5F7E09150E040F040E1F700C000000F
S113068044E050E0BE016E5C7F4F85E090E00E9444
S1130690400D1EAA2FEF32E587E021503040804004
S11306A0E1F700C0000081E08FAB9FEFE2E5F7E0E7
S11306B09150E040F040E1F700C00000612C5BE0A5
S11306C0552E28968FAD2897681608F054C029E057
S11306D0629E40011124640132E1C30ED11C569C78
S11306E080011124EE24E394F12CEC0EFD1EE00EA7
S11306F0F11E44E050E0B701C6010E94400D8FEFA7
S113070092E5E7E081509040E040E1F700C000004E
S1130710B8016B5F7F4F21E030E02C0F3D1F620F6B
S1130720731F44E050E0C40146960E94400D3FEF21
S113073082E597E0315080409040E1F700C000002E
S1130740B801665F7F4FE1E0F0E0EC0FFD1F6E0F34
S11307507F1F88E08C0D0E94370DFFEF22E537E004
S1130760F15020403040E1F700C00000F70114824E
S113077011866394A6CF87E080935A0533E0932EC5
S113078082E291E00E94DB0D80915A05873019F0D6
S11307902BE0E22E04C126968FAD269781110EC060
S11307A00E94560C89E391E00E941B0C60E081E0FA
S11307B00E94380C85E491E00E941B0CFF24F39402
S11307C00B2D10E082E0E82E93E0D92E80915A059B
S11307D08730F1F626962FAD2697E22FF0E00F2C06
S11307E002C0F595E7950A94E2F7E170EF9DE02DDC
S11307F011248E2F90E0FC013197E730F10508F0C9
S113080049C0E65DFF4F0C943E0E0E94560C8DE4E9
S113081091E024C021FF0E94560C60E081E00E9418
S1130820380C86E591E00EC00E94560C8FE591E0ED
S113083015C023FF0E94560C60E081E00E94380C32
S113084088E691E00E941B0C1CC081E791E00E94A5
S11308501B0C20C00E94560C85E891E00E941B0CE2
S1130860FFEF23ED30E3F15020403040E1F710C0BA
S11308700E94560C84E991E00E941B0CC8010E945E
S1130880AE0B8FEF93EDE0E381509040E040E1F751
S113089000C00000F394F7E0FF1202C0FF24F394B9
S11308A080915805813019F4D0925A058FCF0E9457
S11308B0000E882309F48ACFE0925A0587CFBE013F
S11308C0685C7F4FCE01CD960E942601BE01635D18
S11308D07F4FCE01CD960E944301811166C0F12C59
S11308E028968FAD2897F81608F0DFC40F2D10E076
S11308F0E09E6001E19ED00C1124BE01635C7F4F39
S113090081E090E08C0F9D1F8C0D9D1D0E94430182
S1130910882309F478C0C6010596BE01685C7F4F40
S113092021E030E02C0F3D1F820F931F0E944301F2
S113093091E0811101C090E0A92E31E0A3127DC0A5
S1130940E09EC001E19E900D112401E010E00C0F27
S11309501D1F080F191FF80182858250823008F488
S113096054C01FEF190D83EE91E00E94DB0DFFEFE1
S113097025EA3EE0F15020403040E1F700C000009D
S113098080E092E00E94DB0D8FE2890D0E94CF0D82
S1130990111103C086E080935A05A12C912E8091F9
S11309A05A05823009F48BCF4AC0BE016E5C7F4F7A
S11309B0CE01C8960E94430111E0811101C010E0EC
S11309C0113009F08CCF8DE991E00E94DB0D2FEFFF
S11309D039E688E1215030408040E1F700C0000052
S11309E086EB91E00E94DB0D9FEFE9E6F8E1915080
S11309F0E040F040E1F700C0000010935D0584E0A2
S1130A0080935A0550C4A12C98CF88EC91E00E94A1
S1130A10DB0DFFEF29E638E1F15020403040E1F7EB
S1130A2000C0000084E080935A05F8018285833079
S1130A3009F039C4A0925C0536C4F39451CFABE0FD
S1130A406A2EBBE08B2E1FE0412E0BE0502E74E685
S1130A50F72EEAE0EE2EF9E0DF2E80915A0584307D
S1130A6009F0FFC108E010915B051111D5C085E1C3
S1130A7092E00E94DB0D8FE192E00E94DB0D89E29F
S1130A8092E00E94DB0D83E392E00E94DB0D8DE394
S1130A9092E00E94DB0D88E492E00E94DB0D8091DD
S1130AA05D05813091F48CE592E00E94DB0D85E6D2
S1130AB092E00E94DB0D82E792E00E94DB0DCE0102
S1130AC08C5B9F4F0E94D40D11C086E391E00E947D
S1130AD0DB0DCE018C5B9F4F0E94D40D25968FAD0C
S1130AE02597873318F02596FFAE25972596EFAD09
S1130AF025978E2F90E0FC01F197E930F10508F07D
S1130B007BC0EF5CFF4F0C943E0E81E00E94BE0D53
S1130B1061E004C082E00E94BE0D62E0CE018B5B06
S1130B209F4F0E94210250925B059DCF83E00E945B
S1130B30BE0D63E0F3CF84E00E94BE0D64E0EECF0F
S1130B408CE00E94BE0D65E0CE018B5B9F4F0E943E
S1130B50160200935B0587CFD0925B0584CFE092A9
S1130B605B0581CF28968FAD2897843098F4689ED2
S1130B70C0011124BC016B5F7F4FE1E0F0E0EC0F9A
S1130B80FD1F6E0F7F1F8E0F9F1F0E942601409234
S1130B905B0569CF84E892E00E94DB0D8DEA92E068
S1130BA00E94DB0D87EF92E00E94DB0D10925B0543
S1130BB0FFEF2DE232E2F15020403040E1F719C05E
S1130BC0BE01695B7F4FCE0101960E945F018130B7
S1130BD019F489EC92E002C082EE92E00E94DB0DEF
S1130BE010925B058FEF9DE2E2E281509040E0407D
S1130BF0E1F700C0000037CF82E193E00E94DB0DF3
S1130C00FFEF23ED30E3F15020403040E1F700C026
S1130C10000010925B0527CF1A3009F4B8C038F4ED
S1130C20183009F483C0193009F4D3C016CF1B302F
S1130C3009F4E5C01F3009F010CF85E293E00E946B
S1130C40DB0D81E393E00E94DB0D8EE393E00E94D1
S1130C50DB0D8DE493E00E94DB0DCE018C5B9F4F96
S1130C600E94D40D25968FAD2597813369F428967B
S1130C708FAD2897E1E0F0E0EC0FFD1F689EE00DDA
S1130C80F11D112482E00EC0823321F528968FAD28
S1130C902897E1E0F0E0EC0FFD1F689EE00DF11DE8
S1130CA0112483E082879E01295B3F4F6901E08024
S1130CB0F1800281138124813581468157816085C9
S1130CC071850E94590080925B0585E993E00E943A
S1130CD0DB0DBDCE8333E1F428968FAD2897E1E098
S1130CE0F0E0EC0FFD1F689EE00DF11D112412864B
S1130CF0CE01895B9F4F6C01E080F18002811381FA
S1130D0024813581468157816085718580E0D9CF02
S1130D1082E193E00E94DB0D9FEFE3EDF0E391505D
S1130D20E040F040E1F700C0000091CE81EB93E099
S1130D300E94DB0DCE018D5B9F4F0E94D40D249643
S1130D408FAD24970E94CF0D24968FAD24978053A6
S1130D5024968FAF2497CE018E5B9F4F0E94D40DB3
S1130D6023968FAD23970E94CF0D23968FAD2397A3
S1130D7090ED980F23969FAF239724968FAD2497D9
S1130D80B92E2AE0829FB00C11248B2D35C088ED3A
S1130D9093E00E94DB0DCE018C5B9F4F0E94D40D2B
S1130DA025968FAD2597813361F48DE00E94BE0DA9
S1130DB066E0CE018B5B9F4F0E94160280925B051A
S1130DC046CE823311F48EE017C0803309F042C05E
S1130DD03EC084E394E00E94DB0DCE018C5B9F4F08
S1130DE00E94D40D25968FAD2597813311F480E1AF
S1130DF003C0823319F781E10E94BE0DDFCF88E47E
S1130E0094E00E94DB0DCE018C5B9F4F0E94D40DB9
S1130E1025968FAD25978133C1F487E080935A05D9
S1130E2010925B058DE694E00E94DB0D80915D05D8
S1130E30813019F410925D050ACE80915C058130F1
S1130E4009F005CE10925C0502CE823319F410929B
S1130E505B05FDCD80E294E00E94DB0D10935B0501
S1130E60F6CD4BE0E42E56E0852E65E0662E8091AB
S1130E705A05833009F0C4C00E94560C8CE794E0F4
S1130E800E941B0C60E081E00E94380C87E894E02B
S1130E900E941B0C3FEF8DE292E231508040904063
S1130EA0E1F700C00000BE01685C7F4FCE01CD9623
S1130EB00E94CC00F12C28968FAD2897F81608F0E4
S1130EC09AC00F2D10E0E09E6001E19ED00C112429
S1130ED0BE01635C7F4F81E090E08C0F9D1F8C0D01
S1130EE09D1D0E944301882399F0C6010596BE0109
S1130EF0685C7F4FE1E0F0E0EC0FFD1F8E0F9F1F59
S1130F000E94430191E0811101C090E0792E01C05B
S1130F10712CF1E07F126DC0E09EF001E19EF00DB6
S1130F20112421E030E02C0F3D1FE20FF31F8285D6
S1130F308823A1F19A940E94560C88E994E00E94B7
S1130F401B0C60E081E00E94380C84EF91E00E9469
S1130F501B0C3FEF8DE292E2315080409040E1F76C
S1130F6000C000000E94560C82E092E00E941B0C1C
S1130F7060E081E00E94380C892D90E00E94AE0B65
S1130F80EFEFFDE222E2E150F0402040E1F700C043
S1130F900000911033C080925A0530C00E94560C54
S1130FA087EA94E00E941B0C60E081E00E94380C08
S1130FB089EA91E00E941B0C3FEF8DE292E23150EE
S1130FC080409040E1F700C000000E94560C81EB85
S1130FD094E00E941B0CEFEFFDE222E2E150F040AE
S1130FE02040E1F700C0000060925A0533E0932EE0
S1130FF03ECFF39460CF71103ACF9CCF712C37CF92
S11310008BE0F82E98E0E92E1BE020E1D22E8091AF
S11310105A05853009F023C180915B0581116BC0AD
S11310200E94560C8EEB94E00E941B0C60E081E061
S11310300E94380C8EEC94E00E941B0CCE018A5B5B
S11310409F4F0E94AC0927968FAD2797823379F082
S113105038F48133E9F481E00E94BE0D61E010C0F0
S1131060833351F08433A1F4D0925B05D5CF82E071
S11310700E94BE0D62E004C083E00E94BE0D63E0E6
S1131080CE018B5B9F4F0E94210210935B05C4CF5E
S11310900E94560C8DED94E00E941B0C3FEF8DE2F4
S11310A092E2315080409040E1F700C00000B4CF9C
S11310B00E94560C8CEE94E00E941B0C60E081E0D0
S11310C00E94380C8DEF94E00E941B0CCE018A5BC9
S11310D09F4F0E94AC0927968FAD2797813381F4E7
S11310E084E00E94BE0D64E0CE018B5B9F4F0E94A2
S11310F0210210935B0500915B050031C9F21DC00C
S1131100823329F0803349F410925B05F4CF8CE0EC
S11311100E94BE0DE0925B05EECF0E94560C8DED51
S113112094E00E941B0CEFEFFDE222E2E150F0405C
S11311302040E1F700C00000DECF083021F00B3082
S113114009F44FC064CF0E94560C86E095E00E94DB
S11311501B0C60E081E00E94380C81E195E00E9464
S11311601B0CCE018D5B9F4F0E94AC0924968FAD62
S113117024970E94A10B24968FAD24978053249624
S11311808FAF2497CE018E5B9F4F0E94AC092396AC
S11311908FAD23970E94A10B23968FAD239790EDDB
S11311A0980F23969FAF239724968FAD2497B92E3B
S11311B03AE0839FB00C11248B2D0E94BE0D8FEF5B
S11311C09DE2E2E281509040E040E1F700C000007F
S11311D065E0CE018B5B9F4F0E941602F0925B0587
S11311E016CF0E94560C8DE195E00E941B0CCE0197
S11311F08A5B9F4F0E94AC0927968FAD2797813356
S1131200B9F487E080935A0510925B051092580553
S11312100E94560C8DE295E00E941B0CFFEF2DE21C
S113122032E2F15020403040E1F700C00000EFCE40
S1131230823319F410925B05EACE0E94560C8DEDB0
S113124094E00E941B0C8FEF9DE2E2E281509040FB
S1131250E040E1F700C0000000935B05D8CE863083
S113126009F08ECA66E080E090E00E94540D81E0AF
S1131270809359050E94560C88E395E00E941B0C4C
S113128060E081E00E94380C88E495E00E941B0C29
S113129041E060E082E00E94BF0C80915A058630F4
S11312A009F06ECAFFCF13E079CBAA2009F459CB19
S11312B0192D74CB41E063E083E00E94690C41E0A6
S11312C064E083E00E94690C41E065E083E00E94F1
S11312D0690C41E066E083E00E94690C40E062E052
S11312E082E00E94690C40E063E082E00E94690CA5
S11312F040E064E082E00E94690C40E065E082E046
S11313000E94690C41E063E083E00E94BF0C41E06D
S113131064E083E00E94BF0C41E065E083E00E944A
S1131320BF0C41E066E083E00E94BF0C41E062E054
S113133082E00E94BF0C41E063E082E00E94BF0CA7
S113134041E064E082E00E94BF0C41E065E082E09D
S11313500E94BF0C80E008952F923F924F925F92BB
S11313606F927F928F929F92AF92BF92CF92DF92B1
S1131370EF92FF920F931F93CF93DF93CDB7DEB716
S1131380A3970FB6F894DEBF0FBECDBF6C0180915A
S1131390600090916100A0916200B09163008D8F14
S11313A09E8FAF8FB8A38091640090916500A09147
S11313B06600B0916700898F9A8FAB8FBC8F809144
S11313C0680090916900A0916A00B0916B008D8BC8
S11313D09E8BAF8BB88F80916C0090916D00A09123
S11313E06E00B0916F00898B9A8BAB8BBC8B8FEFA7
S11313F0F6018083F60180818F3F09F07BC03E01B6
S1131400F9E16F0E711CCE014D969BA38AA3E12CCA
S1131410F12CF30121903F01EAA1FBA13190FBA340
S1131420EAA340E0622D832D0E94BF0C4E01F1E13E
S11314308F0E911C5E0185E1A80EB11C00E010E046
S1131440F40151904F01F50141905F01AE014F5DF0
S11314505F4F652D842D0E94150D89A1811136C021
S113146083EC99E00197F1F700C00000AE014F5DF5
S11314705F4F652D842D0E94150D89A1811126C011
S113148089A1811108C0AE014F5D5F4F652D842D88
S11314900E94150DF5CF80E1E0E7F0E0DE01119642
S11314A001900D928A95E1F7000F111F000F111F93
S11314B0E1E0F0E0EC0FFD1F0E0F1F1FF801EE0D31
S11314C0FF1D8081F601808381E015C00F5F1F4FEF
S11314D00430110509F0B4CF41E0622D832D0E9440
S11314E0BF0CFFEFEF1AFF0A84E0E816F10409F0DD
S11314F090CF80CF80E0A3960FB6F894DEBF0FBEE6
S1131500CDBFDF91CF911F910F91FF90EF90DF90AE
S1131510CF90BF90AF909F908F907F906F905F908F
S11315204F903F902F9008951F93CF93DF931F9276
S1131530CDB7DEB7182F40E063E081E00E94BF0C16
S113154040E062E081E00E94BF0C183299F5AE01E0
S11315504F5F5F4F61E081E00E94150D8981811129
S113156029C040E067E00E94BF0C40E066E080E0F4
S11315700E94BF0C41E065E080E00E94BF0C40E0A7
S113158064E080E00E94BF0C41E063E081E00E94DF
S1131590BF0C81EE94E00197F1F700C0000040E039
S11315A063E081E00E94BF0C83ED90E30197F1F7C3
S11315B000C00000412F441F4427441F67E080E01F
S11315C00E94BF0C16FB442740F966E080E00E94AD
S11315D0BF0C15FB442740F965E080E00E94BF0C76
S11315E014FB442740F964E080E00E94BF0C41E012
S11315F063E081E00E94BF0C81EE94E00197F1F773
S113160000C0000040E063E081E00E94BF0C83ED75
S113161090E30197F1F700C0000013FB442740F961
S113162067E080E00E94BF0C12FB442740F966E0AB
S113163080E00E94BF0C11FB442740F965E080E084
S11316400E94BF0C412F417064E080E00E94BF0CF7
S113165041E063E081E00E94BF0C81EE94E00197D9
S1131660F1F700C0000040E063E081E00E94BF0C9D
S113167083ED90E30197F1F700C0000080E00F9044
S1131680DF91CF911F91089541E061E081E00E94D4
S1131690690C41E062E081E00E94690C41E063E092
S11316A081E00E94690C41E067E080E00E94690CDF
S11316B041E066E080E00E94690C41E065E080E082
S11316C00E94690C41E064E080E00E94690C8DE2B4
S11316D092E20197F1F700C0000040E061E081E090
S11316E00E94BF0C88E20E94940A89EF90E001975F
S11316F0F1F700C0000040E061E081E00E94BF0C0F
S11317008FE00E94940A89EF90E00197F1F700C0FE
S1131710000040E061E081E00E94BF0C81E00E9493
S1131720940A83EF91E00197F1F700C0000040E0D4
S113173061E081E00E94BF0C86E00E94940A80E090
S11317400895CF93C82F41E061E081E00E94BF0C6F
S11317508C2F0E94940A80E0CF9108956F927F921B
S11317608F929F92AF92BF92CF92DF92EF92FF92AD
S11317700F931F93CF93DF93FC01892B51F441E026
S113178061E081E00E94BF0C80E30E94940AD0E0F3
S113179042C0C0E0C12CD12C76010AE010E0AAE0DE
S11317A0B0E0A70196010E94440E6B017C01CF01B9
S11317B0B8010E94080EC80ED91EE11CF11CCF5FAF
S11317C0FB01309761F7D0E08AE0882E912CA12CA0
S11317D0B12CC114D104E104F104B1F041E061E0A1
S11317E081E00E94BF0CC701B601A50194010E94CB
S11317F01C0E39018A0180E3860F0E94940AD82FB7
S113180063017801C150E5CFCC2329F080E30E9425
S1131810940AC150F9CF8D2FDF91CF911F910F9171
S1131820FF90EF90DF90CF90BF90AF909F908F90FC
S11318307F906F9008950F931F93CF93DF9300973A
S113184089F0EC0180E08E019881992361F041E0F8
S113185061E081E00E94BF0C2196F80180810E9422
S1131860940AF1CF82E0DF91CF911F910F910895F7
S11318701F93CF93DF93823098F4603188F4C62F9E
S1131880D82F40E061E081E00E94BF0C182F8C2F1C
S113189090E4D99F800D112480580E94940A01C0BD
S11318A010E0812FDF91CF911F910895CF9340E0F5
S11318B061E081E00E94BF0CC82F81E00E94940A7D
S11318C08C2FCF91089581EB8ABB86E18BBB80E09E
S11318D00895843008F051C0683008F04EC042309A
S11318E008F04BC0823039F18330B1F1813089F096
S11318F081E090E0062E01C0880F0A94EAF78095F3
S11319009AB3892301C0440F6A95EAF7482B4ABB6E
S113191010C081E090E0062E01C0880F0A94EAF717
S1131920809597B3892301C0440F6A95EAF7482B41
S113193047BB81E0089581E090E0062E01C0880F46
S11319400A94EAF7809594B3892301C0440F6A95F9
S1131950EAF7482B44BBEDCF81E090E0062E01C0AE
S1131960880F0A94EAF7809591B3892301C0440F44
S11319706A95EAF7482B41BBDCCF83E008958430B5
S113198008F051C0683008F04EC0423008F04BC037
S1131990823039F18330B1F1813089F081E090E017
S11319A0062E01C0880F0A94EAF780959BB3892319
S11319B001C0440F6A95EAF7482B4BBB10C081E085
S11319C090E0062E01C0880F0A94EAF7809598B338
S11319D0892301C0440F6A95EAF7482B48BB81E08C
S11319E0089581E090E0062E01C0880F0A94EAF77A
S11319F0809595B3892301C0440F6A95EAF7482B73
S1131A0045BBEDCF81E090E0062E01C0880F0A941B
S1131A10EAF7809592B3892301C0440F6A95EAF7E7
S1131A20482B42BBDCCF83E00895FA013097D9F00C
S1131A308430D8F46830C8F4823041F0833089F0BF
S1131A40813011F089B303C086B301C083B390E041
S1131A5002C0959587956A95E2F78170808381E04D
S1131A60089580B3F4CF82E0089583E00895E19966
S1131A70FECF9FBB8EBBE09A8DB3FB01808308959C
S1131A80E199FECF460F571FFB01861B970BE41706
S1131A90F50749F09C012E0F3F1F3FBB2EBBE09A78
S1131AA02DB32193F4CF0895E199FECF9FBB8EBB54
S1131AB0E09A8DB3861719F06DBBE29AE19A089506
S1131AC0460F571FFB019C01261B370BE417F50734
S1131AD081F0E199FECFC9018E0F9F1F9FBB8EBB82
S1131AE0E09A8DB39191891789F39DBBE29AE19AAB
S1131AF0EDCF08958BB780648BBF85B7836085BFB6
S1131B0080E00895009731F090935F0580935E051F
S1131B1081E0089582E008951F920F920FB60F920C
S1131B2011242F933F934F935F936F937F938F93DE
S1131B309F93AF93BF93EF93FF93E0915E05F09172
S1131B405F05309709F00995FF91EF91BF91AF912F
S1131B509F918F917F916F915F914F913F912F91C1
S1131B600F900FBE0F901F9018956C9ABC9ABD9A57
S1131B70BE98BF9A699A68986E9A0895C4988FB966
S1131B80779BFECFC49A8FB108951BB888E18AB9B8
S1131B9086E880BD87E689B910BC80E008955D9B26
S1131BA0FECF8CB980E008955F9BFECF2CB1FC0181
S1131BB0208380E00895AC0190E0FA01E90FF11D63
S1131BC02081222329F05D9BFECF2CB99F5FF5CFA6
S1131BD080E00895AC0190E05F9BFECFFA01E90F2D
S1131BE0F11D2CB120835D9BFECF2CB920812D30BB
S1131BF021F02A3011F09F5FEFCF108280E008952A
S1131C008BB1881F8827881F11F08CB181E008955B
S1131C10AA1BBB1B51E107C0AA1FBB1FA617B7070E
S1131C2010F0A61BB70B881F991F5A95A9F780952A
S1131C309095BC01CD010895A1E21A2EAA1BBB1BED
S1131C40FD010DC0AA1FBB1FEE1FFF1FA217B30784
S1131C50E407F50720F0A21BB30BE40BF50B661F9A
S1131C60771F881F991F1A9469F76095709580955E
S1131C7090959B01AC01BD01CF010895EE0FFF1FAC
S1131C800590F491E02D09940E944F0EA59F900DAC
S1131C90B49F900DA49F800D911D11240895A29FBF
S1131CA0B001B39FC001A39F700D811D1124911D2C
S1131CB0B29F700D811D1124911D0895F894FFCFDA
S1131CC003030303030405060202020202030405DC
S1131CD03738392B3435362D3132337863303D2F54
S1131CE0557365726E616D653A0050617373776FF9
S1131CF072643A000D0A0D0A557365726E616D6562
S1131D003A200050617373776F72643A20000D0AB1
S1131D10456E74657220557365726E616D652052EF
S1131D206571756972656420746F206265205265FF
S1131D306D6F7665643A200057656C636F6D65203E
S1131D40546F20536D61727400486F6D65202100DB
S1131D50466F722046697273742054696D6500552C
S1131D6073650052656769737465722041646D69B7
S1131D706E006F6E204B6579706164005361766507
S1131D806400505245535320454E54455220544FFD
S1131D902053544152540D0A00416C6C2044657622
S1131DA06963657300417265204F666600526F6F08
S1131DB06D31204F6E00526F6F6D32204F6E0052A6
S1131DC06F6F6D33204F6E00526F6F6D34204F6E06
S1131DD00041697220436F6E6420636F6E74726F8A
S1131DE06C6C656400446F6F72206973204F70657A
S1131DF06E65640044696D6D65723A20000D0A4C8D
S1131E006F6767656420696E2053756363657373D8
S1131E1066756C6C79000D0A57656C636F6D65208F
S1131E2041646D696E0D0A000D0A4C6F6767656445
S1131E3020696E205375636365737366756C6C7982
S1131E400D0A000D0A57726F6E6720557365726E26
S1131E50616D65206F722050617373776F726400D7
S1131E600D0A52656D61696E696E6720547269610D
S1131E706C733A20000D0A312D526F6F6D31000DD5
S1131E800A322D526F6F6D32000D0A332D526F6F6F
S1131E906D33000D0A342D526F6F6D34000D0A3509
S1131EA02D44696D6D6572000D0A362D41697220ED
S1131EB0436F6E646974696F6E6572000D0A372D25
S1131EC0446F6F72000D0A382D41646420557365A8
S1131ED072000D0A392D52656D6F76652055736554
S1131EE0720D0A000D0A52656163686564205468C6
S1131EF065204D6178204E756D626572206F662095
S1131F0053746F726564205573657273000D0A43D0
S1131F106F756C646E27742053746F726520412052
S1131F204E65772055736572000D0A52656D6F76A4
S1131F306564205375636365737366756C6C790DA2
S1131F400A000D0A557365726E616D65206E6F74BB
S1131F5020466F756E64200D0A52657475726E6941
S1131F606E6720746F204D61696E204D656E750D2E
S1131F700A000D0A496E76616C69642043686F69D2
S1131F8063650D0A000D0A312D52656D6F74656429
S1131F90000D0A322D50726F6D6F746564000D0A66
S1131FA0332D4E6F6E72656D6F746564000D0A0D8E
S1131FB00A5072696F7269747920417272616E6736
S1131FC06D656E743A2050726F6D6F746564203E57
S1131FD0204E6F6E72656D6F74656420284C4344A7
S1131FE02B4B657970616429203E2052656D6F74B6
S1131FF065640D0A000D0A5265676973746572653C
S113200064205375636365737366756C6C790D0A2C
S1132010000D0A456E74657220546865205065721F
S113202063656E74616765206F66204272696768D4
S1132030746E6573733A20000D0A446F6F72204FFB
S11320407074696F6E73200D0A20312D4F70656EA8
S113205020446F6F720D0A20322D436C6F7365201C
S1132060446F6F720D0A20302D52657475726E20A4
S1132070746F206D61696E206D656E750D0A2000A8
S11320800D0A496E76616C69642043686F69636503
S11320900D0A20000D0A312D4F70656E0D0A322D88
S11320A0436C6F73650D0A000D0A312D4C6F672068
S11320B04F75740D0A322D52657475726E20746FEB
S11320C0206D61696E206D656E750D0A000D0A4CF8
S11320D06F67676564204F75740D0A0055736572E8
S11320E0204C6F67696E00417474656D7074204490
S11320F0657465637465640057726F6E6720557309
S113210065726E616D65004C6F6767656420696E0A
S11321100057656C636F6D65205573657200313AC5
S1132120526F6F6D3120323A526F6F6D3200333A15
S1132130526F6F6D3320343A4D6F726500496E767D
S1132140616C69642043686F69636500313A526F5A
S11321506F6D3420323A44696D6D657200303A52C5
S1132160657475726E004272696768746E65737324
S11321700050657263656E746167653A00313A4C6C
S11321806F67204F757420323A526574004C6F6744
S1132190676564204F757400596F752061726520FE
S11321A0426C6F636B65640046726F6D20546865A2
S10B21B02053797374656D007E
S9030000FC
