S01100004156524D61737465722E73726563BE
S11300000C9433000C94B70C0C9450000C945000D6
S11300100C9450000C9450000C9450000C9450001C
S11300200C9450000C9450000C9450000C9450000C
S11300300C9450000C9450000C9450000C945000FC
S11300400C9450000C9450000C9450000C945000EC
S11300500C945000E504CA04C304BC04B504AE0403
S11300608F04A703450511241FBECFE5D8E0DEBFEA
S1130070CDBF14E0A0E6B0E0E4EDFAE102C00590E3
S11300800D92AA35B107D9F724E0AAE5B4E001C07E
S11300901D92A036B207E1F70E943A020C94680D53
S11300A00C940000CF92DF92EF92FF920F931F9374
S11300B0CF93DF93CDB7DEB72B970FB6F894DEBF9F
S11300C00FBECDBFE982FA820B831C832D833E834E
S11300D04F83588769877A878B87F6018081F9E097
S11300E08F9FC001112444E050E0BE016F5F7F4F39
S11300F042960E94D9072FEF80E792E0215080407A
S11301009040E1F700C00000F6018081F9E08F9F84
S1130110C001112444E050E0BE016A5F7F4F46965F
S11301200E94D9072FEF80E792E021508040904051
S1130130E1F700C00000F6018081F9E08F9FC00163
S113014011246B854A960E94CD072FEF80E792E039
S1130150215080409040E1F700C00000F60160812A
S11301606F5F608381E190E00E94CD072B960FB60C
S1130170F894DEBF0FBECDBFDF91CF911F910F91D9
S1130180FF90EF90DF90CF900895AF92BF92CF92FF
S1130190DF92EF92FF920F931F93CF93DF931F92FF
S11301A0CDB7DEB75C016B010E94BC0B80E790E029
S11301B00E947D0B60E081E00E949A0B850175012D
S11301C024E0E20EF11CCE0101960E9447088981C9
S11301D00E94DC0A8981F80181938F01EE15FF05E5
S11301E091F7F50114820E94BC0B8AE790E00E940B
S11301F07D0B60E081E00E949A0B760110E0CE0155
S113020001960E94470889810E94DC0AFFEF29E6D3
S113021088E1F15020408040E1F700C00000612FE8
S113022081E00E949A0B8AE20E94DC0A8981F7012C
S113023081937F011F5F143011F7F601148281E06E
S11302400F90DF91CF911F910F91FF90EF90DF906E
S1130250CF90BF90AF9008950F931F93CF93DF93E8
S11302608C01EB0184E890E00E94020DC8010E9419
S1130270130DF801148283E990E00E94020DCE016F
S11302800E94130D1C8281E0DF91CF911F910F9189
S11302900895DC019C91FB012081921313C09923E2
S11302A0A9F040E002C0992389F04F5F242F30E089
S11302B0FD01E20FF31F9081FB01E20FF31F208188
S11302C0921789F3992321F080E0089581E008953D
S11302D081E02111F9CF0895CF92DF92EF92FF923E
S11302E00F931F93CF93DF9300D000D01F92CDB70D
S11302F0DEB78C017B018EE990E00E94020DCE01F5
S113030001960E94130D1D82F7015081552321F19E
S11303104981D801C12C2C91241399C0442359F14B
S113032030E002C0222339F13F5F832F90E0FD01CA
S1130330E80FF91F2081E1E0F0E0EC0FFD1FE80F6A
S1130340F91F8081281771F3211102C0882399F0C5
S1130350C3941B96C512DFCF80E00F900F900F90CF
S11303600F900F90DF91CF911F910F91FF90EF901D
S1130370DF90CF900895F8012BE0529FE00DF11D1E
S113038011243B978BE001900D928A95E1F7F701D8
S11303908081F9E0CF9E60011124B8012BE0829F97
S11303A0600D711D11246B50710944E050E0C601C9
S11303B042960E94D9078FEF90E7E2E08150904087
S11303C0E040E1F700C00000F7018081B801FBE0E4
S11303D08F9F600D711D11246650710944E050E037
S11303E0C60146960E94D9072FEF80E792E021507C
S11303F080409040E1F700C00000F7018081FBE0FD
S11304008F9F000D111D1124F8013B976285C601D1
S11304104A960E94CD072FEF80E792E0215080405A
S11304209040E1F700C00000F701608161506083F3
S113043081E190E00E94CD07FFEF20E782E0F150D8
S113044020408040E1F700C0000081E086CF842F87
S11304507BCF80915D0481110AC080915C0481117D
S113046006C081E080935A0410925B0408951092B0
S11304705A040895CF93DF93CDB7DEB7CC54D10996
S11304800FB6F894DEBF0FBECDBF0E94C80B0E940A
S1130490E00C0E94EC0C0E94800A0E94F50741E0E7
S11304A061E083E00E94CE0B0E94A50C789489E25F
S11304B092E00E94AD0C28961FAE289727961FAE97
S11304C0279788EC90E00E947D0B60E081E00E9419
S11304D09A0B89ED90E00E947D0BBE01695B7F4F12
S11304E080E00E94AD072FEF89E698E1215080401B
S11304F09040E1F700C0000028968FAD289790E067
S11305000E94E90AEFEFF7EA21E6E150F0402040CB
S1130510E1F700C000000E94BC0B28968FAD28971D
S11305208F3F09F474C4882309F4CBC3FE01BD963C
S11305302A96FFAFEEAF2A97CE01C2962D969FAFB3
S11305408EAF2D97BC975F0153E0352E6BE0962E4E
S11305507BE0272EEAE05E2EF8E06F2EABE08A2ED9
S113056083E191E00E94020D28968FAD2897873091
S113057009F44CC0072D8230A9F5BE01685C7F4F99
S1130580CE01CD960E942C012A966EAD7FAD2A979E
S1130590CE01CD960E94490181115DC027968FAD91
S11305A027978823B1F010E0919E70011124650112
S11305B0CE0CDF1CBE01635C7F4FC6010E94490163
S11305C0811112C000E01F5F27968FAD279718177F
S11305D058F3002309F4C5C228968FAD289701E08B
S11305E0823059F2702E63C0C7010596BE01685C63
S11305F07F4F8A0D9B1D0E944901882319F3F60140
S11306008285823009F490C201E0DDCF0E94BC0BE8
S11306108AE291E00E947D0B60E081E00E949A0BE7
S113062086E391E00E947D0B28968FAD2897873052
S113063009F0A0CF80915A04813029F483E02896F0
S11306408FAF289797CF0E94290D811184C22896D5
S11306508FAD2897ECCF2D966EAD7FAD2D97CE0143
S1130660C8960E944901882309F498CF702E8EE21F
S113067094E00E94020DFFEF29E688E1F15020404A
S11306808040E1F700C0000087E494E00E94020D7E
S11306909FEFE9E6F8E19150E040F040E1F700C057
S11306A0000084E028968FAF289793E0392E37E036
S11306B0432E843009F087C010915B04111100C2ED
S11306C08BE891E00E94020D88E991E00E94020DFE
S11306D088EA91E00E94020D82EB91E00E94020DF3
S11306E08CEB91E00E94020D86EC91E00E94020DD9
S11306F080ED91E00E94020D8AED91E00E94020DCE
S113070085EE91E00E94020DCE018C5B9F4F0E940A
S1130710FB0C2596EFAD25978E2F90E0FC01F19709
S1130720E930F10580F080EF91E00E94020D9FEF27
S1130730E3EDF0E39150E040F040E1F700C0000049
S113074010925B04BDCFE65DFF4F0C94530D8CE01B
S11307500E94E70C60925B048DE193E00E94020D1D
S1130760CE018D5B9F4F0E94FB0C24968FAD249786
S11307700E94F60C24968FAD2497805324968FAF55
S11307802497CE018E5B9F4F0E94FB0C23968FAD66
S113079023970E94F60C23968FAD239780532396BC
S11307A08FAF239724969FAD2497EAE09E9F800DF8
S11307B011240E94E70C20925B0428968FAD2897A1
S11307C0843009F479CF2B961FAD2B97833009F031
S11307D051C2BE01685C7F4FCE01CD960E94C50018
S11307E027968FAD2797882309F40AC210E007C023
S11307F01F5F27968FAD2797181708F003C2919EA5
S113080070011124BE01635C7F4FC5018E0D9F1DD5
S11308100E944901882361F3C7010596BE01685C03
S11308207F4F8A0D9B1D0E944901882309F323E011
S1130830322E0E94BC0B83EE93E00E947D0B60E09D
S113084081E00E949A0B8AE394E00E947D0B8FEF73
S11308509DE2E2E281509040E040E1F700C00000F8
S11308600E94BC0B8DEE93E00E947D0B60E081E062
S11308700E949A0B83E991E00E947D0BFFEF2DE229
S113088082E2F15020408040E1F700C0000085E0A2
S113089028968FAF289791E02B969FAF2B970E94B5
S11308A0BC0B85EF93E00E947D0B60E081E00E9429
S11308B09A0BEFEFF9E628E1E150F0402040E1F730
S11308C000C000000E94BC0B82E094E00E947D0BFB
S11308D060E081E00E949A0B84E194E00E947D0B29
S11308E0CE018B5B9F4F0E94470826968FAD2697BB
S11308F08153833078F00E94BC0B8FE194E00E9416
S11309007D0B8FEF93ECE9E081509040E040E1F7FC
S113091000C0000087E028968FAF289721CE85E09D
S11309200E94E70C80925B041BE080EA93E00E9443
S1130930020DCE018C5B9F4F0E94FB0C25968FAD60
S11309402597813309F432C1823309F4B6C08CE8A7
S113095093E00E94020D10935B042FCF84E00E9469
S1130960E70C80925B041BE0E0CF83E00E94E70C7D
S113097080925B041BE0D9CF82E00E94E70C809256
S11309805B041BE0D2CF81E00E94E70C80925B0401
S11309901BE0CBCF40925B04BE016A5B7F4FC50175
S11309A00E946C01813009F49EC08DEE92E00E9499
S11309B0020D10925B042FEF8DE292E221508040F1
S11309C09040E1F700C00000F8CE86E080935B041D
S11309D027968FAD2797843008F090C0989EC00169
S11309E01124BC016B5F7F4F6A0D7B1D8A0D9B1D1B
S11309F00E942C0183E092E00E94020D8FE092E0BD
S1130A000E94020D8CE192E00E94020D8BE292E0C2
S1130A100E94020DCE018C5B9F4F0E94FB0C259619
S1130A208FAD2597813309F4CCC0823309F435C1E5
S1130A30833309F0D3C027962FAD2797822F90E0F8
S1130A40F501929EE00DF11D11241286989EF0018D
S1130A50999EF00D1124EA0DFB1DCE018A5B9F4F78
S1130A606C01E080F180028113812481358146810B
S1130A7057816085718582850E94520083E792E0E8
S1130A800E94020D20925B0498CE50925B041AE0FF
S1130A9084E493E00E94020DCE018C5B9F4F0E9480
S1130AA0FB0C25968FAD2597813309F479C08233E9
S1130AB009F4EFC0803309F04ACF10925B047DCE75
S1130AC0183009F449CEA0F4163009F481CF173058
S1130AD009F073CEBE016A5B7F4FC5010E946C01B1
S1130AE0813009F062CF84ED92E00E94020D61CF63
S1130AF01A3071F21B3009F418CF5FCE8FE892E000
S1130B000E94020D88EB92E00E94020D82E093E0C5
S1130B100E94020D9FEFEDE2F2E29150E040F040BE
S1130B20E1F700C00000AECF8EE391E00E94020D19
S1130B302FEF89E698E1215080409040E1F700C012
S1130B400000E8E02896EFAF289788E077247394B4
S1130B5043E0342EACCDF2E02896FFAF289782E034
S1130B6009CD1FEF130D89E591E00E94020DFFEFFF
S1130B7025EA8EE0F15020408040E1F700C00000FB
S1130B8086E791E00E94020D8FE2830D0E94F60C2D
S1130B90112309F48FC028968FAD2897312EEBCC02
S1130BA08DE00E94E70C20925B0407CEF7E02896C4
S1130BB0FFAF289710925B0485EC93E00E94020D2E
S1130BC0FCCD27962FAD2797822F90E0F501929EBA
S1130BD0E00DF11D112422E0228738CF80EF91E04F
S1130BE00E94020D8FEF93EDE0E381509040E040CE
S1130BF0E1F700C0000027968FAD279790E026CF3D
S1130C00111117CE3A940E94BC0B84ED93E00E941C
S1130C107D0B60E081E00E949A0B8AE691E00E94DD
S1130C207D0B2FEF82E597E0215080409040E1F763
S1130C3000C000000E94BC0B88E791E00E947D0B7D
S1130C4060E081E00E949A0B832D90E00E94E90A03
S1130C50EFEFF2E527E0E150F0402040E1F700C07B
S1130C600000332071F028968FAD289710E0833070
S1130C7009F4AFCD2B961FAF2B97853009F070CCBC
S1130C800ECE86E028968FAF28972B961FAE2B9713
S1130C9067CC8EE00E94E70CF5CE27962FAD279700
S1130CA0822F90E0F501929EE00DF11D112423E0C6
S1130CB02287CCCE702E86E028968FAF2897312CD1
S1130CC0F6CCBE016A5B7F4F81E10E94AD07FFEF66
S1130CD023EC89E0F15020408040E1F700C000009F
S1130CE0FE01BD962A96FFAFEEAF2A9744E050E08E
S1130CF0BF0181E090E00E94B60719AAFFEF22E548
S1130D0087E0F15020408040E1F700C00000FE0180
S1130D10F2962D96FFAFEEAF2D9744E050E0BF0161
S1130D2085E090E00E94B6071EAAFFEF22E587E067
S1130D30F15020408040E1F700C0000081E08FAB1B
S1130D409FEFE2E5F7E09150E040F040E1F700C0AA
S1130D50000027968FAD2797882309F4FAC0612CE9
S1130D60FE0131965F01BBE0FB2EF9E06F9E20018E
S1130D701124420122E1820E911CF69C800111246F
S1130D806501C00ED11E44E050E0B601C4010E94CA
S1130D90B6078FEF92E5E7E081509040E040E1F73D
S1130DA000C00000B8016B5F7F4F6A0D7B1D44E0FB
S1130DB050E0C20146960E94B607FFEF22E587E0A5
S1130DC0F15020408040E1F700C00000B801665FA8
S1130DD07F4F6A0D7B1D88E0880D0E94AD079FEF51
S1130DE0E2E5F7E09150E040F040E1F700C0000098
S1130DF0F60114821186639427968FAD279768169F
S1130E0008F4B3CF87E028968FAF28979DCB279619
S1130E106FAD279781E190E00E94CD078FEF92E5B7
S1130E20E7E081509040E040E1F700C0000081EE2F
S1130E3090E00E947D0B60E081E00E949A0B80EFBD
S1130E4090E00E947D0BFFEF27EA81E6F1502040FD
S1130E508040E1F700C000000E94BC0B84EF90E0EA
S1130E600E947D0B60E081E00E949A0B83E091E098
S1130E700E947D0B9FEFE7EAF1E69150E040F040DD
S1130E80E1F700C00000CE018D962A969FAF8EAF89
S1130E902A97FE01F2962D96FFAFEEAF2D97BF0174
S1130EA00E94C50081E08FAB44E050E02A966EAD0D
S1130EB07FAD2A9781E090E00E94D907FFEF23ECF1
S1130EC089E0F15020408040E1F700C0000044E098
S1130ED050E02D966EAD7FAD2D9785E090E00E9499
S1130EE0D9079FEFE3ECF9E09150E040F040E1F7DF
S1130EF000C0000060E080E090E00E94CD072FEF8A
S1130F0082E597E0215080409040E1F700C0000066
S1130F100E94BC0B8DE091E00E947D0B60E081E0BB
S1130F200E949A0B8AE394E00E947D0BEFEFF3EDAD
S1130F3020E3E150F0402040E1F700C000000E94AF
S1130F40BC0B87E028968FAF2897CE0101965C01F1
S1130F50FBCACE0101965C0155CFE199FECF9FBB40
S1130F608EBBE09A8DB3FB0180830895E199FECF97
S1130F704115510589F0460F571FFB01BC016E1B3B
S1130F807F0B9B012E0F3F1F3FBB2EBBE09A9DB3EF
S1130F909193E417F507A9F70895E199FECF9FBB54
S1130FA08EBBE09A8DB3861719F06DBBE29AE19A75
S1130FB0089541155105C1F0460F571FFB01BC01AF
S1130FC06E1B7F0BE199FECF9B012E0F3F1F3FBB92
S1130FD02EBBE09A2DB39191291719F09DBBE29A8B
S1130FE0E19AE417F50771F7089541E063E083E0BF
S1130FF00E94CE0B41E064E083E00E94CE0B41E00E
S113100065E083E00E94CE0B41E066E083E00E944D
S1131010CE0B40E062E082E00E94CE0B40E063E051
S113102082E00E94CE0B40E064E082E00E94CE0B9E
S113103040E065E082E00E94CE0B41E063E083E0A3
S11310400E94280C41E064E083E00E94280C41E007
S113105065E083E00E94280C41E066E083E00E94A2
S1131060280C41E062E082E00E94280C41E063E049
S113107082E00E94280C41E064E082E00E94280C97
S113108041E065E082E00E94280C80E008952F9200
S11310903F924F925F926F927F928F929F92AF9204
S11310A0BF92CF92DF92EF92FF920F931F93CF9351
S11310B0DF93CDB7DEB7A3970FB6F894DEBF0FBEAC
S11310C0CDBF9BA38AA383E08D8F8E8F8F8F88A340
S11310D0898F34E03A8F25E02B8F96E09C8F92E045
S11310E09D8B9E8B9F8B988F998B8A8B3B8B2C8BA4
S11310F08FEFEAA1FBA18083CE0149964C01FE014A
S11311007D963F01A12CB12CF40121904F01F301F4
S113111031903F0140E0622D832D0E94280CCE01C6
S113112041966C01FE0175967F0100E010E0F60126
S113113051906F01F70141907F01AE014F5D5F4F08
S1131140652D842D0E94820C89A18823C9F00F5F2C
S11311501F4F0430110559F741E0622D832D0E9481
S1131160280CFFEFAF1ABF0A84E0A816B10461F699
S1131170EAA1FBA180818F3F09F4BECF80E035C096
S113118083EC99E00197F1F700C00000AE014F5DD8
S11311905F4F652D842D0E94820C89A18111D7CFC8
S11311A0AE014F5D5F4F652D842D0E94820C89A195
S11311B08823B1F380E1E0E6F0E0DE0111960190CE
S11311C00D928A95E1F7000F111F000F111FE1E046
S11311D0F0E0EC0FFD1F0E0F1F1FF801EA0DFB1DC1
S11311E08081EAA1FBA1808381E0A3960FB6F894E5
S11311F0DEBF0FBECDBFDF91CF911F910F91FF9046
S1131200EF90DF90CF90BF90AF909F908F907F90A2
S11312106F905F904F903F902F9008951F93CF93BE
S1131220DF931F92CDB7DEB7182F40E063E081E073
S11312300E94280C40E062E081E00E94280C1832F1
S113124009F46AC0412F441F4427441F67E080E02B
S11312500E94280C16FB442740F966E080E00E94B7
S1131260280C15FB442740F965E080E00E94280C17
S113127014FB442740F964E080E00E94280C41E01C
S113128063E081E00E94280C81EE94E00197F1F77D
S113129000C0000040E063E081E00E94280C83ED80
S11312A090E30197F1F700C0000013FB442740F9D5
S11312B067E080E00E94280C12FB442740F966E0B6
S11312C080E00E94280C11FB442740F965E080E08F
S11312D00E94280C412F417064E080E00E94280C99
S11312E041E063E081E00E94280C81EE94E00197E4
S11312F0F1F700C0000040E063E081E00E94280CA8
S113130083ED90E30197F1F700C0000080E00F90B7
S1131310DF91CF911F910895AE014F5F5F4F61E060
S113132081E00E94820C898181118CCF40E067E0CA
S11313300E94280C40E066E080E00E94280C41E016
S113134065E080E00E94280C40E064E080E00E94B8
S1131350280C41E063E081E00E94280C81EE94E0D7
S11313600197F1F700C0000040E063E081E00E94D3
S1131370280C83ED90E30197F1F700C0000062CFE1
S113138040E063E081E00E94280C40E062E081E0FC
S11313900E94280C40E067E080E00E94280C40E0B6
S11313A066E080E00E94280C41E065E080E00E9455
S11313B0280C41E064E080E00E94280C41E063E0F6
S11313C081E00E94280C81EE94E00197F1F700C0BF
S11313D0000040E063E081E00E94280C83ED90E38C
S11313E00197F1F700C0000040E067E080E00E9450
S11313F0280C40E066E080E00E94280C40E065E0B4
S113140080E00E94280C40E064E080E00E94280C08
S113141041E063E081E00E94280C81EE94E00197B2
S1131420F1F700C0000040E063E081E00E94280C76
S113143083ED90E30197F1F700C0000080E0089588
S113144040E063E081E00E94280C40E062E081E03B
S11314500E94280C40E067E080E00E94280C40E0F5
S113146066E080E00E94280C40E065E080E00E9495
S1131470280C40E064E080E00E94280C41E063E036
S113148081E00E94280C81EE94E00197F1F700C0FE
S1131490000040E063E081E00E94280C83ED90E3CB
S11314A00197F1F700C0000040E067E080E00E948F
S11314B0280C40E066E080E00E94280C40E065E0F3
S11314C080E00E94280C41E064E080E00E94280C47
S11314D041E063E081E00E94280C81EE94E00197F2
S11314E0F1F700C0000040E063E081E00E94280CB6
S11314F083ED90E30197F1F700C0000080E00895C8
S113150041E061E081E00E94CE0B41E062E081E0D5
S11315100E94CE0B41E063E081E00E94CE0B41E0EB
S113152067E080E00E94CE0B41E066E080E00E942C
S1131530CE0B41E065E080E00E94CE0B41E064E028
S113154080E00E94CE0B8DE292E20197F1F700C099
S1131550000040E061E081E00E94280C88E20E94E3
S11315600E0989EF90E00197F1F700C0000040E018
S113157061E081E00E94280C8FE00E940E0989EF4F
S113158090E00197F1F700C0000040E061E081E0E5
S11315900E94280C0E94200A83EF91E00197F1F742
S11315A000C0000040E061E081E00E94280C86E079
S11315B00E940E0980E00895CF93C82F41E061E0B6
S11315C081E00E94280C8C2F0E940E0980E0CF91AC
S11315D008954F925F926F927F92AF92BF92CF9293
S11315E0DF92EF92FF920F931F93CF93DF93AC019F
S11315F0892B09F477C0C0E0C12CD12C7601CC0C26
S1131600DD1CEE1CFF1CD701C601880F991FAA1F01
S1131610BB1F880F991FAA1FBB1FC80ED91EEA1E25
S1131620FB1E9A01ADECBCEC0E94590D9695879572
S11316309695879596958795BC01660F771F9C01B3
S1131640220F331F220F331F220F331F260F371F82
S1131650421B530BC40ED51EE11CF11CCF5FAC0121
S1131660892B69F6C114D104E104F10409F443C0DF
S11316708AE0482E512C612C712C41E061E081E01C
S11316800E94280CC701B601A30192010E94310DEA
S1131690B22E032F142FD52F80E3860F0E940E093C
S11316A0A82ECB2CD02EE12EFD2EC150C114D10476
S11316B0E104F10411F7CC2329F00E94C009C150C0
S11316C0C111FBCF8A2DDF91CF911F910F91FF9014
S11316D0EF90DF90CF90BF90AF907F906F905F902E
S11316E04F90089541E061E081E00E94280C0E943F
S11316F0C009A12CE7CFA12CE3CFCF93DF930097B0
S113170099F0FC012081222399F0EC0141E061E091
S113171081E00E94280C89910E940E099881911100
S1131720F5CFDF91CF91089582E0DF91CF910895B5
S113173080E0F7CF1F93CF93DF93823030F010E037
S1131740812FDF91CF911F9108956031C0F7D62F7B
S1131750C82F40E061E081E00E94280C182F8D2FF3
S113176090E4C99F800D112480580E940E09812F96
S1131770DF91CF911F910895CF9340E061E081E024
S11317800E94280CC82F0E94200A8C2FCF91089504
S113179081EB8ABB86E18BBB80E00895843010F036
S11317A083E008956830E0F74230D0F78230B9F032
S11317B08330D9F1813031F121E030E0062E01C0CF
S11317C0220F0A94EAF720958AB32823842F01C0B4
S11317D0880F6A95EAF7822B8ABB81E0089521E09D
S11317E030E0062E01C0220F0A94EAF7209584B354
S11317F02823842F01C0880F6A95EAF7822B84BBC3
S113180081E0089581E090E0062E01C0880F0A94DB
S1131810EAF7809527B32823842F01C0880F6A959F
S1131820EAF7822B87BB81E0089521E030E0062EA1
S113183001C0220F0A94EAF7209581B32823842F4C
S113184001C0880F6A95EAF7822B81BB81E0089575
S1131850843010F083E008956830E0F74230D0F728
S11318608230B9F08330D9F1813031F121E030E0B8
S1131870062E01C0220F0A94EAF720958BB3282381
S1131880842F01C0880F6A95EAF7822B8BBB81E015
S1131890089521E030E0062E01C0220F0A94EAF7F1
S11318A0209585B32823842F01C0880F6A95EAF711
S11318B0822B85BB81E0089581E090E0062E01C073
S11318C0880F0A94EAF7809528B32823842F01C04F
S11318D0880F6A95EAF7822B88BB81E0089521E09E
S11318E030E0062E01C0220F0A94EAF7209582B355
S11318F02823842F01C0880F6A95EAF7822B82BBC4
S113190081E0089541155105C1F0843010F083E061
S113191008956830E0F78230A1F0833081F081309F
S113192091F089B390E002C0959587956A95E2F7A6
S11319308170FA01808381E0089582E0089580B384
S1131940F1CF83B3EFCF86B3EDCF8BB780648BBF7A
S113195085B7836085BF80E00895009731F0909348
S11319605F0480935E0481E0089582E008951F92ED
S11319700F920FB60F9211242F933F934F935F93BF
S11319806F937F938F939F93AF93BF93EF93FF9343
S1131990E0915E04F0915F04309709F00995FF919E
S11319A0EF91BF91AF919F918F917F916F915F91D3
S11319B04F913F912F910F900FBE0F901F9018954C
S11319C087B3806B87BB8DB181658DB908958FB95D
S11319D0779BFECF8FB108951BB888E18AB986E85A
S11319E080BD87E689B910BC80E008955D9BFECF79
S11319F08CB980E008955F9BFECF2CB1FC0120835D
S1131A0080E00895DC019C91992359F020E05D9BCE
S1131A10FECF9CB92F5FFD01E20FF11D9081911162
S1131A20F6CF80E00895AC0120E05F9BFECFFA0181
S1131A30E20FF11D9CB190835D9BFECF9CB9908118
S1131A409D3021F09A3011F02F5FEFCF108280E0AB
S1131A5008958BB1881F8827881F11F08CB181E00D
S1131A600895A1E21A2EAA1BBB1BFD010DC0AA1FDB
S1131A70BB1FEE1FFF1FA217B307E407F50720F0F3
S1131A80A21BB30BE40BF50B661F771F881F991F6E
S1131A901A9469F760957095809590959B01AC01B7
S1131AA0BD01CF010895EE0FFF1F0590F491E02DC5
S1131AB00994A29FB001B39FC001A39F700D811D23
S1131AC01124911DB29F700D811D1124911D089543
S1071AD0F894FFCFB4
S1131AD43738392B3435362D3132337863303D2F52
S1131AE4557365726E616D653A0050617373776FF7
S1131AF472643A000D0A0D0A557365726E616D6560
S1131B043A200050617373776F72643A20000D0AAF
S1131B14456E74657220557365726E616D652052ED
S1131B246571756972656420746F206265205265FD
S1131B346D6F7665643A200057656C636F6D65203C
S1131B44546F20536D61727400486F6D65202120B9
S1131B5400466F722046697273742054696D65007F
S1131B645573650052656769737465722041646DC9
S1131B74696E006F6E204B65797061640053617601
S1131B84656400505245535320454E5445522054E5
S1131B944F2053544152540D0A00416C6C20446547
S1131BA4766963657300417265204F6666000D0AA9
S1131BB44C6F6767656420696E205375636365734E
S1131BC47366756C6C790D0A000D0A57726F6E6733
S1131BD420557365726E616D65206F722050617358
S1131BE473776F7264000D0A52656D61696E696E74
S1131BF46720547269616C733A20000D0A312D41D7
S1131C0464642055736572000D0A322D52656D6F3C
S1131C1476652055736572000D0A332D526F6F6D0E
S1131C2431000D0A342D526F6F6D32000D0A352DBB
S1131C34526F6F6D33000D0A362D526F6F6D340081
S1131C440D0A372D526F6F6D35000D0A382D446916
S1131C546D6D6572000D0A392D446F6F720D0A00A3
S1131C640D0A496E76616C69642043686F69636523
S1131C740D0A000D0A312D52656D6F746564000DF3
S1131C840A322D50726F6D6F746564000D0A332D22
S1131C944E6F6E72656D6F746564000D0A0D0A50A3
S1131CA472696F7269747920417272616E676D65CD
S1131CB46E743A2050726F6D6F746564203E204ECA
S1131CC46F6E72656D6F74656420284C43442B4BAE
S1131CD4657970616429203E2052656D6F74656472
S1131CE40D0A000D0A526567697374657265642090
S1131CF45375636365737366756C6C790D0A000DB3
S1131D040A5265616368656420546865204D61788E
S1131D14204E756D626572206F662053746F726510
S1131D2464205573657273000D0A436F756C646E99
S1131D3427742053746F72652041204E65772055B3
S1131D44736572000D0A52656D6F76656420537570
S1131D54636365737366756C6C790D0A000D0A55BB
S1131D647365726E616D65206E6F7420466F756E57
S1131D7464200D0A52657475726E696E6720746FFF
S1131D84204D61696E204D656E750D0A000D0A457E
S1131D946E746572205468652050657263656E7450
S1131DA4616765206F66204272696768746E657343
S1131DB4733A20000D0A446F6F72204F7074696F78
S1131DC46E73200D0A20312D4F70656E20446F6FA1
S1131DD4720D0A20322D436C6F736520446F6F7249
S1131DE40D0A20302D52657475726E20746F206D47
S1131DF461696E206D656E750D0A20000D0A496EC9
S1131E0476616C69642043686F6963650D0A200018
S1131E140D0A312D4C6F67204F75740D0A322D5203
S1131E24657475726E20746F206D61696E206D65C2
S1131E346E750D0A000D0A4C6F67676564204F7553
S1131E44740D0A0057726F6E6720557365726E6164
S1131E546D65004C6F6767656420696E0057656C37
S1131E64636F6D650057656C636F6D6520557365AD
S1131E747200312D4C696768747320322D44696D86
S1131E846D657200332D41697220436F6E6400499D
S1131E946E76616C69642043686F696365000D0A3A
S1131EA44C6F6767656420696E205375636365735B
S1131EB47366756C6C79000D0A57656C636F6D6598
S10D1EC42041646D696E0D0A0000F0
S9030000FC
